:020000040800F2
:1000000058040020450100084D140008531300084F
:10001000491400088D010008511800080000000074
:10002000000000000000000000000000791400083B
:1000300091010008000000004F1400087B14000824
:100040005F0100085F0100085F0100085F01000810
:100050005F0100085F010008930100085F010008CC
:100060009D010008A7010008B10100085F01000818
:100070005F0100085F0100085F0100085F010008E0
:100080005F0100085F0100085F0100085F010008D0
:100090005F0100085F0100085F0100085F010008C0
:1000A0005F0100085F0100085F0100085F010008B0
:1000B0005F010008911500085F0100085F0100085A
:1000C0005F0100085F0100085F0100085F01000890
:1000D0005F0100085F0100085F0100085F01000880
:1000E0005F0100085F0100085F0100085F01000870
:1000F0005F0100085F0100085F0100085F01000860
:100100005F0100085F0100085F0100085F0100084F
:100110005F0100085F0100085F0100085F0100083F
:100120005F0100085F0100085F0100085F0100082F
:10013000DFF80CD000F018F8004800470D1900084F
:10014000580400200648804706480047FEE7FEE7BF
:10015000FEE7FEE7FEE7FEE7FEE7FEE7FEE7FEE777
:10016000F114000831010008064C074D06E0E06874
:1001700040F0010394E8070098471034AC42F6D3EE
:10018000FFF7DAFF84190008A419000800BFFEE792
:10019000704710B5012000F0B9F810BD10B504206B
:1001A00000F0B4F810BD10B5082000F0AFF810BD95
:1001B00010B5102000F0AAF810BD000000B585B001
:1001C00000BF2848806940F004002649886108463D
:1001D000806900F00400009000BF00BF00BF084627
:1001E000806940F0400088610846806900F0400066
:1001F000009000BF00BF012001901B480290022028
:10020000039001A9194800F08FF81C2001901848AC
:1002100002900120039001A9164800F085F8002201
:100220000221062000F08BFA062000F078FA012265
:100230000221082000F083FA082000F070FA022260
:100240001146092000F07BFA092000F068FA032229
:1002500002210A2000F073FA0A2000F060FA05B0CB
:1002600000BD000000100240000011100008014015
:10027000000021100018014070B5044600F002FA99
:1002800006462546681C10B104480078054400BFA6
:1002900000F0F8F9801BA842FAD370BD0C000020D2
:1002A00010B504460A2001F000FB012C06D0042CF6
:1002B0000CD0082C12D0102C20D117E01048006868
:1002C000012802D100200F49086017E00D488C3842
:1002D000006810B901200C4908600FE0094888380F
:1002E000006810B901200749086007E00548843814
:1002F000006810B900200449086000BF00BF10BDAD
:100300000001214294012342A081214210B50446FC
:1003100004480068204020B1024804602046FFF7EE
:10032000BFFF10BD140401402DE9F8470246002329
:100330009C467BE14FF0010808FA03F4D1F80080F5
:1003400008EA0400A0427DD1DFF8F4A2D1F80480CD
:10035000A8EB0A09D0453AD014DCB8F1030F50D00D
:1003600009DCB8F1000F31D0B8F1010F1CD0B8F1A1
:10037000020F49D120E0B8F1110F18D0B8F1120FD7
:1003800042D11EE0B9F5881F25D006DCB9F5803FC3
:1003900020D0B9F5801F37D11AE0B9F5001F18D069
:1003A000B9F5041F30D117E0D1F80CC02DE0D1F819
:1003B0000C8008F1040C28E0D1F80C8008F1080C3E
:1003C00023E0D1F80C8008F10C0C1EE000BF00BF48
:1003D00000BF00BF00BF00BFD1F80880B8F1000F18
:1003E00002D14FF0040C0BE0D1F80880B8F1010FF6
:1003F00003D14FF0080C146102E04FF0080C546177
:1004000003E04FF0000C00E000BF00BFFF2801D860
:10041000904601E002F104084646FF2802D84FEA60
:10042000830803E0A3F108084FEA88084746D6F896
:1004300000804FF00F0909FA07F928EA09080CFAB9
:1004400007F900E07AE048EA0908C6F80080D1F828
:10045000048008F08058B8F1805F6FD100BFDFF8EA
:10046000E481D8F8188048F00108DFF8D891C9F87D
:100470001880C846D8F8188008F00108CDF8008028
:1004800000BF00BF4FEAB9384FEA930958F8295026
:100490004FEA83784FEA18794FF00F0808FA09F805
:1004A00025EA0805DFF8A081424502D14FF0000897
:1004B00024E0DFF89881424502D14FF001081DE0A9
:1004C000DFF88C81424502D14FF0020816E0DFF8D8
:1004D0008481424502D14FF003080FE0DFF87881B4
:1004E000424502D14FF0040808E0DFF87081424530
:1004F00002D14FF0050801E04FF006084FEA83797A
:100500004FEA197908FA09F848EA0505DFF8508139
:100510004FEA930948F82950D1F8048008F480384C
:10052000B8F5803F0BD1DFF83C81D8F8008048EA6D
:100530000008DFF83091C9F800800AE075E0DFF8C4
:100540002481D8F8008028EA0008DFF81891C9F85B
:100550000080D1F8048008F40038B8F5003F0ED1CF
:10056000DFF8008108F10408D8F8008048EA0008A4
:10057000DFF8F09009F10409C9F800800DE0DFF818
:10058000E48008F10408D8F8008028EA0008DFF8C1
:10059000D49009F10409C9F80080D1F8048008F466
:1005A0008018B8F5801F0ED1DFF8B88008F1080870
:1005B000D8F8008048EA0008DFF8A89009F1080997
:1005C000C9F800800DE0DFF89C8008F10808D8F831
:1005D000008028EA0008DFF88C9009F10809C9F8C2
:1005E0000080D1F8048008F40018B8F5001F0ED17F
:1005F000DFF8708008F10C08D8F8008048EA00089D
:10060000DFF8609009F10C09C9F800800DE0DFF80F
:10061000548008F10C08D8F8008028EA0008DFF8B8
:10062000449009F10C09C9F800805B1CD1F80080E6
:1006300028FA03F8B8F1000F7FF47CAEBDE8F88724
:10064000000011100010024000080140000C0140A1
:10065000001001400014014000180140001C01403E
:100660000800014000040140C2680A400AB141612B
:1006700000E0016170470AB1016101E00B04036110
:100680007047000001480068704700000400002027
:100690000348006803490978084401490860704725
:1006A000040000200C00002010B50848006840F04D
:1006B000100006490860052000F080F80F2000F0C7
:1006C00007F800F02BF8002010BD000000200240C9
:1006D00070B504460E4800784FF47A71B1FBF0F023
:1006E0000C490968B1FBF0F5284600F0D1FB08B1D0
:1006F000012070BD102C07D200222146501E00F0B0
:100700001EF80548046001E00120F2E70020F0E750
:100710000C00002000000020080000207047014667
:100720000846002809DB00F01F0301229A40430914
:100730009B0003F1E023C3F8002100BF70472DE9BF
:10074000F05F80460D461646002701F083F8074605
:1007500039462A46334601F00700C0F1070ABAF1CC
:10076000040F02D94FF0040A01E0C0F1070AD14694
:1007700000F1040ABAF1070F02D24FF0000A01E0BB
:10078000A0F1030AD4464FF0010A0AFA09FAAAF1C5
:10079000010A0AEA020A0AFA0CFA4FF0010B0BFAF4
:1007A0000CFBABF1010B0BEA030B4AEA0B042146ED
:1007B000404601F057F8BDE8F09F000000BF00F090
:1007C0000702064B19684FF6FF031940044B0B4311
:1007D00043EA0221014B196000BF70470CED00E0B5
:1007E0000000FA0570B504460D460CB9012070BD35
:1007F0005A48006800F00700A8420ED25748006827
:1008000020F007002843554908600846006800F0BA
:100810000700A84201D00120E9E7207800F002009B
:1008200002281DD1207800F00400042805D14C488E
:10083000406840F4E0604A494860207800F00800D1
:10084000082805D14648406840F460504449486053
:100850004348406820F0F000A168084340494860E0
:10086000207800F0010078B36068012806D13C4888
:10087000006800F4003090B90120B8E760680228F1
:1008800006D13748006800F0007040B90120AEE79B
:100890003348006800F0020008B90120A7E730489B
:1008A000406820F00300616808432D494860FFF765
:1008B000E9FE064609E0FFF7E5FE801B41F28831BC
:1008C000884202D9032092E707E02548406800F0FB
:1008D0000C006168B0EB810FEDD12048006800F09A
:1008E0000700A8420ED91D48006820F007002843E1
:1008F0001A4908600846006800F00700A84201D0C5
:10090000012074E7207800F00400042807D114487F
:10091000406820F4E060E1680843114948602078AD
:1009200000F00800082808D10D48406820F4605005
:10093000216940EAC1000A49486000F019F80849F5
:100940004968C1F30311074A515CC8400649086071
:1009500006480068FFF7BCFE002048E70020024080
:10096000001002406C190008000000200800002060
:10097000F0B585B00FF26C0C9CE8E01001A8A0E87F
:10098000E0101CA52D680095002100220023002402
:100990000020194D696801F00C05F5B1042D02D055
:1009A000082D19D101E0154819E001ADC1F38346C6
:1009B000AC5D01F4803555B10F4D6D68C5F3404510
:1009C0001DF805200D4D6543B5FBF2F302E00C4D1B
:1009D00004FB05F3184602E000BF084800BF00BF53
:1009E00005B0F0BD02030405060708090A0B0C0D4B
:1009F0000E0F1010010200000010024000127A00D9
:100A000000093D00F8B504460CB90120F8BD207876
:100A100000F00100002878D0F848406800F00C0091
:100A200004280CD0F548406800F00C00082811D1CB
:100A3000F248406800F48030B0F5803F0AD1EF48BA
:100A4000006800F4003000285FD0606800285CD1A6
:100A50000120DBE700BF6068B0F5803F06D1E748C2
:100A6000006840F48030E549086028E0606858B9C3
:100A7000E248006820F48030E049086008460068D9
:100A800020F4802008601AE06068B0F5A02F0BD138
:100A9000DA48006840F48020D849086008460068B9
:100AA00040F4803008600AE0D448006820F48030C8
:100AB000D24908600846006820F48020086000BF22
:100AC000606888B1FFF7DEFD054606E0FFF7DAFD56
:100AD000401B642801D9032098E7C848006800F447
:100AE00000300028F2D010E0FFF7CCFD054606E00C
:100AF000FFF7C8FD401B642801D9032086E7BF48E3
:100B0000006800F400300028F2D1207800F00200E4
:100B1000022857D1B948406800F00C0050B1B748DE
:100B2000406800F00C00082818D1B448406800F470
:100B3000803098B9B148006800F0020020B1206907
:100B4000012801D0012061E7AC48006820F0F800DE
:100B5000616940EAC100A949086033E02069E8B151
:100B60000120A7490860FFF78DFD054606E0FFF765
:100B700089FD401B022801D9032047E79F480068F0
:100B800000F002000028F2D09C48006820F0F80035
:100B9000616940EAC1009949086013E00020984962
:100BA0000860FFF76FFD054606E0FFF76BFD401B91
:100BB000022801D9032029E79048006800F00200CC
:100BC0000028F2D1207800F0080008282DD1A06973
:100BD000B8B101208B490860FFF754FD054606E0D7
:100BE000FFF750FD401B022801D903200EE7834880
:100BF000406A00F002000028F2D0012000F028FC3A
:100C000013E000207F490860FFF73CFD054606E041
:100C1000FFF738FD401B022801D90320F6E677488C
:100C2000406A00F002000028F2D1207800F00400B1
:100C3000042873D100277148C06900F0805070B952
:100C400000BF6E48C06940F080506C49C8610846DA
:100C5000C06900F08050009000BF00BF01276A48C3
:100C6000006800F48070B0B96748006840F4807094
:100C700065490860FFF706FD054606E0FFF702FD3F
:100C8000401B642801D90320C0E65F48006800F4D7
:100C900080700028F2D000BFE068012806D15748D4
:100CA000006A40F001005549086227E0E06858B941
:100CB0005248006A20F00100504908620846006A64
:100CC00020F00400086219E0E06805280BD14B48C9
:100CD000006A40F00400494908620846006A40F092
:100CE000010008620AE04548006A20F0010043491B
:100CF00008620846006A20F00400086200BFE0684D
:100D0000A0B1FFF7BFFC054609E0FFF7BBFC401BA5
:100D100041F28831884202D9032077E622E0374841
:100D2000006A00F002000028EFD012E0FFF7AAFCF2
:100D3000054608E0FFF7A6FC401B41F288318842D7
:100D400001D9032062E62D48006A00F00200002865
:100D5000F0D1012F05D12948C06920F080502749E2
:100D6000C86100BFE069C8B32448406800F00C00C7
:100D7000082860D0E069022848D100202049086690
:100D8000FFF780FC054606E0FFF77CFC401B0228CD
:100D900001D903203AE61948006800F000700028E5
:100DA000F2D1206AB0F5803F07D11448406820F4A2
:100DB0000030A168084311494860D4E9080108439C
:100DC0000E49496821F4741108430C494860012018
:100DD0000B490866FFF756FC054607E03DE0FFF7C4
:100DE00051FC401B022801D903200FE6034800688C
:100DF00000F000700028F2D02FE000000010024048
:100E00000000424280044242007000400020144929
:100E10000866FFF737FC054606E0FFF733FC401B8A
:100E2000022801D90320F1E50E48006800F00070A7
:100E30000028F2D111E0E069012800D1E6E5094877
:100E4000466806F48031206A814204D106F47011AC
:100E5000606A814201D00120D8E50020D6E500007B
:100E60000000424200100240042808D14FF0E02167
:100E7000096941F004014FF0E022116107E04FF0F1
:100E8000E021096921F004014FF0E022116170476F
:100E900070B504462546681EB0F1807F01D301205D
:100EA0000FE0681E4FF0E02148610F214FF0FF3046
:100EB00000F0D8FC00204FF0E02188610720086195
:100EC000002070BD7047704710B504460CB9012072
:100ED00010BD94F83D0028B9002084F83C0020465D
:100EE00000F00CF8022084F83D00211D206800F07D
:100EF00073FB012084F83D000020E9E738B5044683
:100F00000D492068884215D100BF0C48C06940F0E7
:100F100002000A49C8610846C06900F0020000905A
:100F200000BF00BF032201211D20FFF708FC1D2088
:100F3000FFF7F5FB38BD0000000400400010024040
:100F400001460868C06840F001000B68D860086876
:100F5000806800F00702062A05D00868006840F0A3
:100F600001000B68186000207047704710B50446F8
:100F700020680069C0F34000D8B12068C068C0F3A1
:100F80004000B0B16FF002002168086101202077B5
:100F90002068806900F0030018B12046FFF7E5FFE4
:100FA00005E0204600F0ADF8204600F095F900205D
:100FB000207720680069C0F38000D8B12068C0683D
:100FC000C0F38000B0B16FF0040021680861022016
:100FD00020772068806900F4407018B12046FFF740
:100FE000C4FF05E0204600F08CF8204600F074F9BC
:100FF0000020207720680069C0F3C000D8B12068C5
:10100000C068C0F3C000B0B16FF00800216808618B
:10101000042020772068C06900F0030018B1204642
:10102000FFF7A3FF05E0204600F06BF8204600F034
:1010300053F90020207720680069C0F30010D8B170
:101040002068C068C0F30010B0B16FF010002168D4
:101050000861082020772068C06900F4407018B14A
:101060002046FFF782FF05E0204600F04AF82046C0
:1010700000F032F9002020772068006900F00100BC
:1010800058B12068C06800F0010030B16FF0010075
:1010900021680861204600F04DF920680069C0F31E
:1010A000C01058B12068C068C0F3C01030B16FF0F4
:1010B0008000216808612046FFF704FF206800696E
:1010C000C0F3801058B12068C068C0F3801030B100
:1010D0006FF0400021680861204600F039F920686F
:1010E0000069C0F3401058B12068C068C0F34010D8
:1010F00030B16FF02000216808612046FFF7E3FE61
:1011000010BD704770B504460D46164600BF94F8F2
:101110003C00012801D1022070BD012084F83C0070
:1011200000BF022084F83D0036B1042E1BD0082EEB
:1011300031D00C2E5ED145E02946206800F0ACFA93
:101140002068806940F00800216888612068806913
:1011500020F00400216888612068806929690843BB
:101160002168886147E02946206800F0CDFA2068B0
:10117000806940F40060216888612068806920F4FB
:1011800080602168886120688069296940EA0120BF
:10119000216888612FE02946206800F0F3FA206872
:1011A000C06940F008002168C8612068C06920F06B
:1011B00004002168C8612068C06929690843216862
:1011C000C86118E02946206800F018FB2068C06953
:1011D00040F400602168C8612068C06920F4806024
:1011E0002168C8612068C069296940EA0120216836
:1011F000C86100E000BF00BF012084F83D0000BFCF
:10120000002084F83C0000BF00BF85E710B504460D
:101210000CB9012010BD94F83D0028B9002084F8D5
:101220003C00204600F00CF8022084F83D00211D0F
:10123000206800F0D1F9012084F83D000020E9E7A2
:1012400010B586B0044600BF2048C06940F00200D7
:101250001E49C8610846C06900F00200019000BF45
:1012600000BF00BF0846806940F001008861084661
:10127000806900F00100019000BF00BF00BF144969
:10128000486820F4406040F0E06040F4006048604E
:1012900000BF00BF0D48806940F008000B4988611D
:1012A0000846806900F00800019000BF00BF2020C0
:1012B000029002200390012004900320059002A9CF
:1012C0000448FFF731F806B010BD000000100240DE
:1012D00000000140000C01407047000070B504465A
:1012E0000E4601223146206800F0C4F90F492068FB
:1012F000884203D00E492068884201D1012000E0D5
:10130000002028B12068406C40F400402168486407
:101310002068806800F00705062D05D02068006869
:1013200040F0010021680860002070BD002C0140E1
:101330000034014010B504460348844203D1202103
:101340000248FFF791F910BD140000200018014079
:10135000704700BFFEE7000000B585B000BF17482A
:10136000806940F00400154988610846806900F0F2
:101370000400009000BF00BF00BF0846806940F035
:10138000400088610846806900F04000009000BF7E
:1013900000BF1C200190002002900120039001A9B1
:1013A0000748FEF7C1FF012001900220039001A928
:1013B0000448FEF7B9FF05B000BD00000010024070
:1013C000001801400008014000B585B000BF1B486F
:1013D000806940F00800194988610846806900F07A
:1013E0000800009000BF00BF00BF0846806940F0C1
:1013F000400088610846806900F04000009000BF0E
:1014000000BF20200190012002900390032004904F
:1014100001A90B48FEF788FF2020019001A9094887
:10142000FEF782FF012220210548FFF724F901225F
:1014300020210448FFF71FF905B000BD001002404D
:10144000000C01400018014000BFFEE770477047E4
:1014500008B508490968C9084FF47A72B1FBF2F17E
:101460004143009100BF00BF00994A1E009200292D
:10147000F9D108BD00000020704710B5FFF708F94A
:1014800010BD000010B504460420FFF7EDFC014834
:10149000046010BD1000002030B58FB00546002458
:1014A00001200590000406900020079002200C9077
:1014B000C1030D910E9505A8FFF7A4FA04460CB1DF
:1014C00000BFFEE70F200090022001900020029054
:1014D0004FF4806003900020049002216846FFF7DB
:1014E00081F904460CB100BFFEE70FB030BD00002B
:1014F0001148006840F001000F4908600846406844
:101500000E4908400C494860084600680C490840EC
:10151000094908600846006820F4802008600846F1
:10152000406820F4FE0048604FF41F008860C80344
:101530000449086070470000001002400000FFF8F6
:10154000FFFFF6FE08ED00E030B597B004460D460B
:101550000E4807900895002109910A940B9107A85D
:10156000FFF754FE60200090204604EBD071491034
:101570000191022002900422694607A8FFF7C2FDEC
:10158000042107A8FFF7AAFE17B030BD00040040F1
:1015900010B50248FFF7EAFC10BD0000140000205F
:1015A00070B505460C460748074908600846446080
:1015B00000218160C5600161FFF786FC0248FFF7EA
:1015C000BFFC70BD00040040140000200149086009
:1015D000704700003804004010B50268204B984264
:1015E0000ED0204B98420BD0B0F1804F08D01E4B4C
:1015F000984205D01D4B984202D01D4B984203D112
:1016000022F070024B681A43154B98420ED0154BCE
:1016100098420BD0B0F1804F08D0134B984205D0C0
:10162000124B984202D0124B984203D122F44072DE
:10163000CB681A4322F080034C6943EA040202603B
:101640008B68C3620B688362054B984202D0054BDE
:10165000984201D10B6903630123436110BD00006F
:10166000002C01400034014000040040000800400C
:10167000000C004030B501F01F05012404FA05F309
:10168000046A9C430462046A01F01F0502FA05F52E
:101690002C43046230BD000030B5056A25F0010519
:1016A0000562026A4368846924F0700424F003042C
:1016B0000D682C4322F002028D682A43104DA84287
:1016C00000D103E00F4DA84206D100BF22F008026E
:1016D000CD682A4322F00402094DA84202D0094DE8
:1016E000A84207D123F4807323F400734D692B4380
:1016F0008D692B43436084614D684563026230BD50
:10170000002C01400034014030B5056A25F0100579
:101710000562026A4368846924F4E04424F4407456
:101720000D6844EA052422F020028D6842EA051281
:10173000124DA84200D103E0114DA84207D100BFCD
:1017400022F08002CD6842EA051222F040020B4DE1
:10175000A84202D00A4DA84209D123F4806323F4A1
:1017600000634D6943EA85038D6943EA850343605D
:1017700084614D688563026230BD0000002C014029
:101780000034014030B5056A25F480750562026AAF
:101790004368C46924F0700424F003040D682C43EA
:1017A00022F400728D6842EA0522124DA84200D14F
:1017B00003E0114DA84207D100BF22F40062CD68BA
:1017C00042EA052222F480620A4DA84202D00A4D64
:1017D000A84209D123F4805323F400534D6943EA0E
:1017E00005138D6943EA05134360C4614D68C56301
:1017F000026230BD002C01400034014030B5056A62
:1018000025F480550562036A4468C26922F4E04207
:1018100022F440720D6842EA052223F400538D68D9
:1018200043EA0533084DA84202D0084DA84204D12E
:1018300024F480444D6944EA85144460C2614D68D3
:101840000564036230BD0000002C014000340140FB
:1018500000BFFEE702480068C0F3022070470000A6
:101860000CED00E010B5002804DB0A07130E054A52
:10187000135406E00A07140E034A00F00F031B1F5F
:10188000D45410BD00E400E018ED00E002E008C808
:10189000121F08C1002AFAD170477047002001E0EA
:1018A00001C1121F002AFBD1704730B50446002544
:1018B00004E04FF47A7000F005F86D1CA542F8D3EF
:1018C00030BD000070B5034600224FF0E026756978
:1018D0000D4E366803FB06F44FF0E026B16910E0C8
:1018E0004FF0E026B06988420BD0884202D20E1A2F
:1018F000324402E02E1A0E4432440146A24200D382
:1019000000E0EDE700BF70BD1000002000240025BE
:10191000FEF7CAFE4FF4E010FFF7BEFD4820FFF7C8
:10192000B1FDFFF751FDFFF717FDFEF747FC48F645
:101930009F4140F2E730FFF733FE472140F2F310BA
:10194000FFF702FE11E035B9601C84B2B4F5967F52
:1019500005D1012503E0601E84B204B900252046AC
:10196000FFF734FE0A20FEF787FCECE700000000DA
:10197000000000000102030406070809000000003F
:1019800001020304A4190008000000201400000054
:101990008C180008B8190008140000204404000046
:1019A0009C1800080024F400000000001000000053
:0819B00001000000000000002E
:0400000508000131BD
:00000001FF
