:020000040800F2
:10000000B0050020450100086D1D0008731C0008A4
:10001000691D00082F02000871260008000000007A
:10002000000000000000000000000000991D000812
:1000300033020008000000006F1D00089B1D00082F
:100040005F0100085F0100085F0100085F01000810
:100050005F0100085F010008350200085F01000829
:100060003F02000849020008530200085F0100082F
:100070005F0100085F0100085F0100085F010008E0
:100080005F0100085F0100085F0100085F010008D0
:100090005F0100085F0100085F0100085F010008C0
:1000A0005F0100085F0100085F0100085F010008B0
:1000B0005F010008B11E00085F0100085F01000831
:1000C0005F0100085F0100085F0100085F01000890
:1000D0005F010008F92500085F0100085F010008C2
:1000E0005F0100085F0100085F0100085F01000870
:1000F0005F0100085F0100085F0100085F01000860
:100100005F0100085F010008451F00085F0100084B
:100110005F0100085F0100085F0100085F0100083F
:100120005F0100085F0100085F0100085F0100082F
:10013000DFF80CD000F05AF8004800479529000875
:10014000B00500200648804706480047FEE7FEE766
:10015000FEE7FEE7FEE7FEE7FEE7FEE7FEE7FEE777
:10016000111E000831010008202A04DB203A21FA80
:1001700002F00021704721FA02F3D040C2F12002C0
:1001800091400843194670472DE9F05F054600206D
:1001900092469B4688460646814640241BE02846F8
:1001A000414647462246FFF7DFFF53465A46C01AEC
:1001B000914110D311461846224600F029F82D1A15
:1001C00067EB01084F4622460120002100F020F88D
:1001D00017EB00094E41201EA4F10104DFDC484664
:1001E00031462A464346BDE8F09F0000064C074DC5
:1001F00006E0E06840F0010394E8070098471034F7
:10020000AC42F6D3FFF798FFB02A0008D02A0008C6
:10021000202A04DB203A00FA02F1002070479140C6
:10022000C2F1200320FA03F319439040704700BF46
:10023000FEE7704710B5012000F078F910BD10B549
:10024000042000F073F910BD10B5082000F06EF91D
:1002500010BD10B5102000F069F910BD00B585B0D3
:1002600000BF2848806940F004002649886108469C
:10027000806900F00400009000BF00BF00BF084686
:10028000806940F0400088610846806900F04000C5
:10029000009000BF00BF012001901B480290022087
:1002A000039001A9194800F04FF91C20019018484B
:1002B00002900120039001A9164800F045F90022A0
:1002C0000221062000F04BFB062000F038FB012243
:1002D0000221082000F043FB082000F030FB02223E
:1002E0001146092000F03BFB092000F028FB032207
:1002F00002210A2000F033FB0A2000F020FB05B0A9
:1003000000BD000000100240000011100008014074
:10031000000021100018014070B50446002594F833
:100320002100022803D00420A0630125C1E0206839
:10033000006820F00E00216808602068006820F046
:100340000100216808605C492068884252D95A49F6
:1003500078392068884201D1012047E05649643944
:100360002068884201D1102040E05349503920686C
:10037000884201D1801539E04F493C3920688842D4
:1003800001D1801432E04C4928392068884202D1DA
:100390004FF480302AE0484914392068884202D15D
:1003A0004FF4801022E044492068884201D1400483
:1003B0001CE042492068884201D1012016E03F49F3
:1003C00014312068884201D110200FE03B492831C8
:1003D0002068884201D1801508E038493C31206806
:1003E000884201D1801401E04FF480303349091F65
:1003F000086051E0304978392068884201D10120F5
:1004000047E02D4964392068884201D1102040E03E
:10041000294950392068884201D1801539E02649A0
:100420003C392068884201D1801432E022492839C1
:100430002068884202D14FF480302AE01E491439E6
:100440002068884202D14FF4801022E01A492068C7
:10045000884201D140041CE018492068884201D13B
:10046000012016E0154914312068884201D110207E
:100470000FE0124928312068884201D1801508E038
:100480000E493C312068884201D1801401E04FF4CC
:100490008030094980394860012084F8210000BF7C
:1004A000002084F8200000BF606B10B12046616B13
:1004B0008847284670BD00008000024008040240C2
:1004C00010B504460A2002F027FA012C06D0042CAD
:1004D0000CD0082C12D0102C20D117E01048006846
:1004E000012802D100200F49086017E00D488C3820
:1004F000006810B901200C4908600FE009488838ED
:10050000006810B901200749086007E005488438F1
:10051000006810B900200449086000BF00BF10BD8A
:100520000001214294012342A081214210B50446DA
:1005300004480068204020B1024804602046FFF7CC
:10054000BFFF10BD140401402DE9F8470246002307
:100550009C467BE14FF0010808FA03F4D1F80080D3
:1005600008EA0400A0427DD1DFF8F4A2D1F80480AB
:10057000A8EB0A09D0453AD014DCB8F1030F50D0EB
:1005800009DCB8F1000F31D0B8F1010F1CD0B8F17F
:10059000020F49D120E0B8F1110F18D0B8F1120FB5
:1005A00042D11EE0B9F5881F25D006DCB9F5803FA1
:1005B00020D0B9F5801F37D11AE0B9F5001F18D047
:1005C000B9F5041F30D117E0D1F80CC02DE0D1F8F7
:1005D0000C8008F1040C28E0D1F80C8008F1080C1C
:1005E00023E0D1F80C8008F10C0C1EE000BF00BF26
:1005F00000BF00BF00BF00BFD1F80880B8F1000FF6
:1006000002D14FF0040C0BE0D1F80880B8F1010FD3
:1006100003D14FF0080C146102E04FF0080C546154
:1006200003E04FF0000C00E000BF00BFFF2801D83E
:10063000904601E002F104084646FF2802D84FEA3E
:10064000830803E0A3F108084FEA88084746D6F874
:1006500000804FF00F0909FA07F928EA09080CFA97
:1006600007F900E07AE048EA0908C6F80080D1F806
:10067000048008F08058B8F1805F6FD100BFDFF8C8
:10068000E481D8F8188048F00108DFF8D891C9F85B
:100690001880C846D8F8188008F00108CDF8008006
:1006A00000BF00BF4FEAB9384FEA930958F8295004
:1006B0004FEA83784FEA18794FF00F0808FA09F8E3
:1006C00025EA0805DFF8A081424502D14FF0000875
:1006D00024E0DFF89881424502D14FF001081DE087
:1006E000DFF88C81424502D14FF0020816E0DFF8B6
:1006F0008481424502D14FF003080FE0DFF8788192
:10070000424502D14FF0040808E0DFF8708142450D
:1007100002D14FF0050801E04FF006084FEA837957
:100720004FEA197908FA09F848EA0505DFF8508117
:100730004FEA930948F82950D1F8048008F480382A
:10074000B8F5803F0BD1DFF83C81D8F8008048EA4B
:100750000008DFF83091C9F800800AE075E0DFF8A2
:100760002481D8F8008028EA0008DFF81891C9F839
:100770000080D1F8048008F40038B8F5003F0ED1AD
:10078000DFF8008108F10408D8F8008048EA000882
:10079000DFF8F09009F10409C9F800800DE0DFF8F6
:1007A000E48008F10408D8F8008028EA0008DFF89F
:1007B000D49009F10409C9F80080D1F8048008F444
:1007C0008018B8F5801F0ED1DFF8B88008F108084E
:1007D000D8F8008048EA0008DFF8A89009F1080975
:1007E000C9F800800DE0DFF89C8008F10808D8F80F
:1007F000008028EA0008DFF88C9009F10809C9F8A0
:100800000080D1F8048008F40018B8F5001F0ED15C
:10081000DFF8708008F10C08D8F8008048EA00087A
:10082000DFF8609009F10C09C9F800800DE0DFF8ED
:10083000548008F10C08D8F8008028EA0008DFF896
:10084000449009F10C09C9F800805B1CD1F80080C4
:1008500028FA03F8B8F1000F7FF47CAEBDE8F88702
:10086000000011100010024000080140000C01407F
:10087000001001400014014000180140001C01401C
:100880000800014000040140C2680A400AB1416109
:1008900000E0016170470AB1016101E00B040361EE
:1008A0007047000001480068704700000400002005
:1008B0000348006803490978084401490860704703
:1008C000040000200C00002010B50848006840F02B
:1008D000100006490860052000F080F80F2000F0A5
:1008E00007F800F02BF8002010BD000000200240A7
:1008F00070B504460E4800784FF47A71B1FBF0F001
:100900000C490968B1FBF0F5284600F0F7FB08B187
:10091000012070BD102C07D200222146501E00F08D
:100920001EF80548046001E00120F2E70020F0E72E
:100930000C00002000000020080000207047014645
:100940000846002809DB00F01F0301229A404309F2
:100950009B0003F1E023C3F8002100BF70472DE99D
:10096000F05F80460D461646002701F093FE0746CD
:1009700039462A46334601F00700C0F1070ABAF1AA
:10098000040F02D94FF0040A01E0C0F1070AD14672
:1009900000F1040ABAF1070F02D24FF0000A01E099
:1009A000A0F1030AD4464FF0010A0AFA09FAAAF1A3
:1009B000010A0AEA020A0AFA0CFA4FF0010B0BFAD2
:1009C0000CFBABF1010B0BEA030B4AEA0B042146CB
:1009D000404601F067FEBDE8F09F000000BF00F058
:1009E0000702064B19684FF6FF031940044B0B43EF
:1009F00043EA0221014B196000BF70470CED00E093
:100A00000000FA0570B504460D460CB9012070BD12
:100A10005A48006800F00700A8420ED25748006804
:100A200020F007002843554908600846006800F098
:100A30000700A84201D00120E9E7207800F0020079
:100A400002281DD1207800F00400042805D14C486C
:100A5000406840F4E0604A494860207800F00800AF
:100A6000082805D14648406840F460504449486031
:100A70004348406820F0F000A168084340494860BE
:100A8000207800F0010078B36068012806D13C4866
:100A9000006800F4003090B90120B8E760680228CF
:100AA00006D13748006800F0007040B90120AEE779
:100AB0003348006800F0020008B90120A7E7304879
:100AC000406820F00300616808432D494860FFF743
:100AD000E9FE064609E0FFF7E5FE801B41F288319A
:100AE000884202D9032092E707E02548406800F0D9
:100AF0000C006168B0EB810FEDD12048006800F078
:100B00000700A8420ED91D48006820F007002843BE
:100B10001A4908600846006800F00700A84201D0A2
:100B2000012074E7207800F00400042807D114485D
:100B3000406820F4E060E16808431149486020788B
:100B400000F00800082808D10D48406820F46050E3
:100B5000216940EAC1000A49486000F03FF80849AD
:100B60004968C1F30311074A515CC840064908604F
:100B700006480068FFF7BCFE002048E7002002405E
:100B800000100240982A0008000000200800002001
:100B900001480068704700000000002000B5FFF722
:100BA000F7FF04494968C1F30221034A515CC84078
:100BB00000BD000000100240A82A000800B5FFF7A1
:100BC000E7FF04494968C1F3C221034A515CC840A8
:100BD00000BD000000100240A82A0008F0B585B052
:100BE0000FF26C0C9CE8E01001A8A0E8E0101CA536
:100BF0002D68009500210022002300240020194DBB
:100C0000696801F00C05F5B1042D02D0082D19D149
:100C100001E0154819E001ADC1F38346AC5D01F474
:100C2000803555B10F4D6D68C5F340451DF8052061
:100C30000D4D6543B5FBF2F302E00C4D04FB05F3EB
:100C4000184602E000BF084800BF00BF05B0F0BD75
:100C500002030405060708090A0B0C0D0E0F1010FD
:100C6000010200000010024000127A0000093D005D
:100C7000F8B504460CB90120F8BD207800F0010059
:100C8000002878D0F848406800F00C0004280CD008
:100C9000F548406800F00C00082811D1F24840687F
:100CA00000F48030B0F5803F0AD1EF48006800F4CE
:100CB000003000285FD0606800285CD10120DBE7AD
:100CC00000BF6068B0F5803F06D1E748006840F497
:100CD0008030E549086028E0606858B9E24800685B
:100CE00020F48030E04908600846006820F4802045
:100CF00008601AE06068B0F5A02F0BD1DA480068F0
:100D000040F48020D84908600846006840F48030EC
:100D100008600AE0D448006820F48030D2490860B6
:100D20000846006820F48020086000BF606888B131
:100D3000FFF7B8FD054606E0FFF7B4FD401B642849
:100D400001D9032098E7C848006800F40030002863
:100D5000F2D010E0FFF7A6FD054606E0FFF7A2FD82
:100D6000401B642801D9032086E7BF48006800F4CF
:100D700000300028F2D1207800F00200022857D17C
:100D8000B948406800F00C0050B1B748406800F026
:100D90000C00082818D1B448406800F4803098B995
:100DA000B148006800F0020020B12069012801D09C
:100DB000012061E7AC48006820F0F800616940EA72
:100DC000C100A949086033E02069E8B10120A749C2
:100DD0000860FFF767FD054606E0FFF763FD401B6F
:100DE000022801D9032047E79F48006800F002006D
:100DF0000028F2D09C48006820F0F800616940EAC1
:100E0000C1009949086013E0002098490860FFF785
:100E100049FD054606E0FFF745FD401B022801D9C4
:100E2000032029E79048006800F002000028F2D172
:100E3000207800F0080008282DD1A069B8B1012061
:100E40008B490860FFF72EFD054606E0FFF72AFDF7
:100E5000401B022801D903200EE78348406A00F0B6
:100E600002000028F2D0012000F082FF13E00020F1
:100E70007F490860FFF716FD054606E0FFF712FD03
:100E8000401B022801D90320F6E67748406A00F0AB
:100E900002000028F2D1207800F00400042873D169
:100EA00000277148C06900F0805070B900BF6E48DB
:100EB000C06940F080506C49C8610846C06900F0C4
:100EC0008050009000BF00BF01276A48006800F40E
:100ED0008070B0B96748006840F480706549086068
:100EE000FFF7E0FC054606E0FFF7DCFC401B64284A
:100EF00001D90320C0E65F48006800F48070002834
:100F0000F2D000BFE068012806D15748006A40F0DF
:100F100001005549086227E0E06858B95248006A64
:100F200020F00100504908620846006A20F00400E1
:100F3000086219E0E06805280BD14B48006A40F0D0
:100F40000400494908620846006A40F0010008624E
:100F50000AE04548006A20F001004349086208465B
:100F6000006A20F00400086200BFE068A0B1FFF74B
:100F700099FC054609E0FFF795FC401B41F28831DA
:100F8000884202D9032077E622E03748006A00F061
:100F900002000028EFD012E0FFF784FC054608E0CD
:100FA000FFF780FC401B41F28831884201D90320C1
:100FB00062E62D48006A00F002000028F0D1012FFF
:100FC00005D12948C06920F080502749C86100BF79
:100FD000E069C8B32448406800F00C00082860D0DD
:100FE000E069022848D1002020490866FFF75AFC32
:100FF000054606E0FFF756FC401B022801D90320F6
:101000003AE61948006800F000700028F2D1206A22
:10101000B0F5803F07D11448406820F40030A16843
:10102000084311494860D4E9080108430E4949685A
:1010300021F4741108430C49486001200B490866EB
:10104000FFF730FC054607E03DE0FFF72BFC401BB7
:10105000022801D903200FE60348006800F0007061
:101060000028F2D02FE000000010024000004242B1
:101070008004424200700040002014490866FFF7D7
:1010800011FC054606E0FFF70DFC401B022801D9C4
:101090000320F1E50E48006800F000700028F2D14E
:1010A00011E0E069012800D1E6E50948466806F448
:1010B0008031206A814204D106F47011606A814255
:1010C00001D00120D8E50020D6E500000000424212
:1010D00000100240042808D14FF0E021096941F0D6
:1010E00004014FF0E022116107E04FF0E0210969AF
:1010F00021F004014FF0E0221161704770B5044601
:101100002546681EB0F1807F01D301200FE0681EE4
:101110004FF0E02148610F214FF0FF3001F0C2FA9B
:1011200000204FF0E021886107200861002070BD99
:101130007047704710B504460CB9012010BD94F8F3
:101140003D0028B9002084F83C00204600F00CF84F
:10115000022084F83D00211D206800F0FBFE0120E4
:1011600084F83D000020E9E738B504460D492068C1
:10117000884215D100BF0C48C06940F002000A49FE
:10118000C8610846C06900F00200009000BF00BFBF
:10119000032201211D20FFF7E2FB1D20FFF7CFFBFB
:1011A00038BD0000000400400010024001460868FD
:1011B000C06840F001000B68D8600868806800F0E3
:1011C0000702062A05D00868006840F001000B6895
:1011D000186000207047000010B5044632480078BF
:1011E00000F0800000285DD12F48007800F040001A
:1011F000D0B12D48007840F080002B4908700021C4
:101200002A4800F06BFB2A49086028480068006AF9
:1012100020F00A0025490968086224480068006A2D
:101220002249096808623DE000201F4908702049F2
:1012300008601D48007840F040001B49087000BF5E
:101240001A480068006A41F21111084068B917484D
:101250000068006A8910084038B9144800680068BE
:1012600020F0010011490968086000BF00200F4903
:10127000096848620D480068006A20F00A000B49BE
:101280000968086209480068006A40F002000749DE
:101290000968086205480068006840F001000349D9
:1012A0000968086010BD0000140000206C010020D7
:1012B000180000202DE9F04104460D46164600BFF7
:1012C00094F83C00012802D10220BDE8F081012001
:1012D00084F83C0000BF022084F83D0096B9EB681A
:1012E000D5E90012206800F071FF2068806920F0C5
:1012F0000C002168886120688069A968084321681A
:1013000088613DE0042E13D1EB68D5E90012206816
:1013100000F09AFF2068806920F4406021688861AD
:1013200020688069A96840EA01202168886127E077
:10133000082E12D1EB68D5E90012206800F0A1FF59
:101340002068C06920F00C002168C8612068C0696D
:10135000A96808432168C86112E0EB68D5E900126A
:10136000206800F0AAFF2068C06920F4406021686E
:10137000C8612068C069A96840EA01202168C86185
:10138000012084F83D0000BF002084F83C0000BF2D
:1013900000BF9AE710B504460CB9012010BD94F8BF
:1013A0003D0028B9002084F83C00204600F00CF8ED
:1013B000022084F83D00211D206800F0CBFD0120B3
:1013C00084F83D000020E9E710B586B0044600BF70
:1013D0001748C06940F008001549C8610846C0694F
:1013E00000F00800019000BF00BF00BF0846806900
:1013F00040F0040088610846806900F00400019014
:1014000000BF00BF01200290002003900220049042
:101410000320059002A90748FFF796F80022022151
:101420003220FFF79CFA3220FFF789FA06B010BD90
:10143000001002400008014070B504460D4635B169
:10144000042D0BD0082D10D00C2D1CD114E02068D9
:10145000C06840F002002168C86015E02068C068DC
:1014600040F004002168C8600EE02068C06840F0C9
:1014700008002168C86007E02068C06840F01000DC
:101480002168C86000E000BF00BF01222946206833
:1014900000F0AEFD2068806800F00706062E05D03B
:1014A0002068006840F0010021680860002070BDDD
:1014B00010B5044620680069C0F34000D8B1206828
:1014C000C068C0F34000B0B16FF00200216808614D
:1014D000012020772068806900F0030018B12046C1
:1014E000FFF77AFE05E0204600F0ADF8204600F058
:1014F00095F90020207720680069C0F38000D8B1FA
:101500002068C068C0F38000B0B16FF004002168AB
:101510000861022020772068806900F4407018B1CB
:101520002046FFF759FE05E0204600F08CF82046E3
:1015300000F074F90020207720680069C0F3C00033
:10154000D8B12068C068C0F3C000B0B16FF0080027
:1015500021680861042020772068C06900F003003A
:1015600018B12046FFF738FE05E0204600F06BF882
:10157000204600F053F90020207720680069C0F36E
:101580000010D8B12068C068C0F30010B0B16FF08F
:10159000100021680861082020772068C06900F4E5
:1015A000407018B12046FFF717FE05E0204600F016
:1015B0004AF8204600F032F90020207720680069C0
:1015C00000F0010058B12068C06800F0010030B19F
:1015D0006FF0010021680861204600F04DF9206895
:1015E0000069C0F3C01058B12068C068C0F3C010D3
:1015F00030B16FF08000216808612046FFF798FD48
:1016000020680069C0F3801058B12068C068C0F33A
:10161000801030B16FF0400021680861204600F072
:1016200076F920680069C0F3401058B12068C0689E
:10163000C0F3401030B16FF02000216808612046EF
:10164000FFF777FD10BD704770B504460D4616468E
:1016500000BF94F83C00012801D1022070BD012098
:1016600084F83C0000BF022084F83D0036B1042E0F
:101670001BD0082E31D00C2E5ED145E029462068C3
:1016800000F0C8FC2068806940F00800216888618B
:101690002068806920F004002168886120688069E2
:1016A000296908432168886147E02946206800F0DD
:1016B000E9FC2068806940F4006021688861206846
:1016C000806920F4806021688861206880692969C8
:1016D00040EA0120216888612FE02946206800F057
:1016E0000FFD2068C06940F008002168C8612068CB
:1016F000C06920F004002168C8612068C0692969B8
:1017000008432168C86118E02946206800F034FDCC
:101710002068C06940F400602168C8612068C06921
:1017200020F480602168C8612068C069296940EAA6
:1017300001202168C86100E000BF00BF012084F8DB
:101740003D0000BF002084F83C0000BF00BF85E7DB
:1017500010B504460CB9012010BD94F83D0028B91D
:10176000002084F83C00204600F00CF8022084F8A9
:101770003D00211D206800F0EDFB012084F83D00B4
:101780000020E9E710B586B0044600BF2048C069D4
:1017900040F002001E49C8610846C06900F002001E
:1017A000019000BF00BF00BF0846806940F0010003
:1017B00088610846806900F00100019000BF00BF09
:1017C00000BF1449486820F4406040F0E06040F4F5
:1017D0000060486000BF00BF0D48806940F008000D
:1017E0000B4988610846806900F00800019000BF3D
:1017F00000BF2020029002200390012004900320CB
:10180000059002A90448FEF79FFE06B010BD000037
:101810000010024000000140000C01407047000031
:1018200070B504460E4601223146206800F0E0FB08
:101830000F492068884203D00E492068884201D1B0
:10184000012000E0002028B12068406C40F40040F6
:10185000216848642068806800F00705062D05D0DF
:101860002068006840F0010021680860002070BD19
:10187000002C01400034014010B504461348844256
:1018800003D120211248FEF7FFFF1248007800F034
:101890008000D0B90F48007800F04000A8B10D4892
:1018A000007800F03F003F280AD10A48007840F055
:1018B0008000084908704FF6FF700749086004E08F
:1018C00004480078401C0349087010BD2400002023
:1018D00000180140140000201800002002460020DB
:1018E00031B1042907D0082908D00C290CD108E00F
:1018F0001368586B09E01368986B06E01368D86B9F
:1019000003E01368186C00E000BF00BF7047704729
:10191000704701460022002391F8392091F83A30AF
:1019200042EA0300704700002DE9F04704462068B2
:1019300005682068C668206847694FF00008C146FE
:1019400005F00F08B8F1000F0AD105F0200038B1FA
:1019500006F0200020B1204600F0F7FCBDE8F0873B
:10196000B8F1000F6DD007F0010018B906F49070BF
:10197000002866D005F0010030B106F4807018B17F
:10198000E06B40F00100E06305F0040030B107F0C7
:10199000010018B1E06B40F00200E06305F00200C6
:1019A00030B107F0010018B1E06B40F00400E063D3
:1019B00005F0080030B107F0010018B1E06B40F00D
:1019C0000800E063E06B68B305F0200028B106F082
:1019D000200010B1204600F0B8FC20684069C0F338
:1019E0008019E06B00F0080010B9B9F1000F22D0A7
:1019F000204600F08AFC2068406900F04000B0B149
:101A00002068406920F0400021684861606B50B157
:101A10001748616B4863606BFEF77EFC10B1606B2A
:101A2000416B88470CE02046FFF772FF08E0204634
:101A3000FFF76EFF04E02046FFF76AFF0020E06337
:101A40008CE705F0800030B106F0800018B1204628
:101A500000F09EFD82E705F0400030B106F0400046
:101A600018B1204600F061FC78E700BF76E700007F
:101A7000F722000810B504460CB9012010BDA0697A
:101A800000B100E000BF94F8390028B9002084F8C4
:101A90003800204600F028F8242084F83900206817
:101AA000C06820F400502168C860204600F0A0FC07
:101AB0002068006920F4904021680861206840692E
:101AC00020F02A00216848612068C06840F4005076
:101AD0002168C8600020E063202084F8390084F881
:101AE0003A000020CAE7000010B586B004461F493E
:101AF0002068884237D100BF1D48806940F004004B
:101B00001B4988610846806900F00400019000BF0D
:101B100000BF00BF0846806940F4804088610846E5
:101B2000806900F48040019000BF00BF481502901A
:101B300002200390012004900320059002A90D4883
:101B4000FEF702FD4FF4806002900020039002A98E
:101B50000848FEF7F9FC2520FEF7F1FE03221146A6
:101B60002520FEF7FCFE06B010BD00000038014045
:101B7000001002400008014010B5034693F83A00F7
:101B800020282FD101B10AB9012010BD00BF93F860
:101B90003800012801D10220F7E7012083F838003E
:101BA00000BF99629A85DA850020D863222083F8E5
:101BB0003A0000BF002083F8380000BF1868C068F2
:101BC00040F480701C68E0601868406940F00100D3
:101BD0001C6860611868C06840F020001C68E06004
:101BE0000020D2E70220D0E71D4A0168914236D199
:101BF0001C49098801F4004189BB1A49098801F48C
:101C0000804171B1184909780A2903D00021154A89
:101C1000118024E01349098841F40041114A1180E0
:101C20001DE0114909780D2906D10E49098841F4B2
:101C300080410C4A118012E00B490978094A128848
:101C4000C2F30D02094B995406490988491C054AFB
:101C5000118011460988C72901DD002111807047D4
:101C6000003801401C0000201E000020A4000020BD
:101C7000704700BFFEE7000000B585B000BF174801
:101C8000806940F00400154988610846806900F0C9
:101C90000400009000BF00BF00BF0846806940F00C
:101CA000400088610846806900F04000009000BF55
:101CB00000BF1C200190002002900120039001A988
:101CC0000748FEF741FC012001900220039001A982
:101CD0000448FEF739FC05B000BD000000100240CA
:101CE000001801400008014000B585B000BF1B4846
:101CF000806940F00800194988610846806900F051
:101D00000800009000BF00BF00BF0846806940F097
:101D1000400088610846806900F04000009000BFE4
:101D200000BF202001900120029003900320049026
:101D300001A90B48FEF708FC2020019001A90948E1
:101D4000FEF702FC012220210548FEF7A4FD012236
:101D500020210448FEF79FFD05B000BD00100240A1
:101D6000000C01400018014000BFFEE770477047BB
:101D700008B508490968C9084FF47A72B1FBF2F155
:101D80004143009100BF00BF00994A1E0092002904
:101D9000F9D108BD00000020704710B5FEF788FD9E
:101DA00010BD000010B504460420FFF793F9014868
:101DB000046010BD1000002030B58FB0054600242F
:101DC00001200590000406900020079002200C904E
:101DD000C1030D910E9505A8FEF74AFF04460CB10C
:101DE00000BFFEE70F20009002200190002002902B
:101DF0004FF4806003900020049002216846FEF7B3
:101E000001FE04460CB100BFFEE70FB030BD00007C
:101E10001148006840F001000F490860084640681A
:101E20000E4908400C494860084600680C490840C3
:101E3000094908600846006820F4802008600846C8
:101E4000406820F4FE0048604FF41F008860C8031B
:101E50000449086070470000001002400000FFF8CD
:101E6000FFFFF6FE08ED00E030B597B004460D46E2
:101E70000E4807900895002109910A940B9107A834
:101E8000FFF766FC60200090204604EBD0714910FB
:101E90000191022002900422694607A8FFF7D4FBB3
:101EA000042107A8FFF7BCFC17B030BD00040040B8
:101EB00010B50248FFF7FCFA10BD00002400002016
:101EC00070B505460C460748074908600846446057
:101ED00000218160C5600161FFF72CF90248FFF71E
:101EE00065F970BD00040040240000207FB5054660
:101EF0000C4612481249086008464460002181607F
:101F0000C5600161FFF746FA0020009001200190B2
:101F1000002002900390002269460948FFF7CAF9A1
:101F200000210748FFF788FA05480068C06840F0BC
:101F3000010003490968C8607FBD0000000C004033
:101F40006C01002010B50248FFF7B2FA10BD000086
:101F50006C01002010B50268204B98420ED0204B37
:101F600098420BD0B0F1804F08D01E4B984205D05C
:101F70001D4B984202D01D4B984203D122F07002B3
:101F80004B681A43154B98420ED0154B98420BD014
:101F9000B0F1804F08D0134B984205D0124B9842B5
:101FA00002D0124B984203D122F44072CB681A43FC
:101FB00022F080034C6943EA040202608B68C3622A
:101FC0000B688362054B984202D0054B984201D1C1
:101FD0000B6903630123436110BD0000002C014025
:101FE000003401400004004000080040000C0040A4
:101FF00030B501F01F05012404FA05F3046A9C437F
:102000000462046A01F01F0502FA05F52C4304621C
:1020100030BD000030B5056A25F001050562026A91
:102020004368846924F0700424F003040D682C4391
:1020300022F002028D682A43104DA84200D103E02D
:102040000F4DA84206D100BF22F00802CD682A43F6
:1020500022F00402094DA84202D0094DA84207D13E
:1020600023F4807323F400734D692B438D692B4354
:10207000436084614D684563026230BD002C0140BD
:102080000034014030B5056A25F010050562026A8A
:102090004368846924F4E04424F440740D6844EAFD
:1020A000052422F020028D6842EA0512124DA84252
:1020B00000D103E0114DA84207D100BF22F08002F9
:1020C000CD6842EA051222F040020B4DA84202D030
:1020D0000A4DA84209D123F4806323F400634D69BB
:1020E00043EA85038D6943EA8503436084614D6853
:1020F0008563026230BD0000002C014000340140C5
:1021000030B5056A25F480750562026A4368C469C2
:1021100024F0700424F003040D682C4322F40072B0
:102120008D6842EA0522124DA84200D103E0114D0C
:10213000A84207D100BF22F40062CD6842EA05221E
:1021400022F480620A4DA84202D00A4DA84209D169
:1021500023F4805323F400534D6943EA05138D693A
:1021600043EA05134360C4614D68C563026230BD34
:10217000002C01400034014030B5056A25F480553B
:102180000562036A4468C26922F4E04222F44072A4
:102190000D6842EA052223F400538D6843EA0533B3
:1021A000084DA84202D0084DA84204D124F480442E
:1021B0004D6944EA85144460C2614D680564036258
:1021C00030BD0000002C01400034014070B50C46C9
:1021D0001546066A26F0010606628169026A154EF6
:1021E000B0420ED0144EB0420BD0B0F1804F08D0A8
:1021F000124EB04205D0124EB04202D0114EB04243
:1022000001D1012600E000261EB121F0030129437F
:1022100001E041F0010121F0F001F02606EA031689
:10222000314322F00A0204F00A063243816102625D
:1022300070BD0000002C014000340140000400404B
:1022400000080040000C004070B50C461546066AB8
:1022500026F0100606628169026A21F4407141EAA3
:10226000052121F470414FF4704606EA03363143EC
:1022700022F0A002A02606EA04163243816102621F
:1022800070BD70B50C461546066A26F48076066267
:10229000C169026A21F00301294321F0F001F0260F
:1022A00006EA0316314322F400724FF4007606EA80
:1022B00004263243C161026270BD70B50C461546FA
:1022C000066A26F480560662C169026A21F44071EA
:1022D00041EA052121F470414FF4704606EA0336C5
:1022E000314322F400524FF4005606EA04363243DA
:1022F000C161026270BD70B505466C6A0020E08560
:10230000E0842046FFF704FB70BD0168C96821F432
:1023100090710268D1600168496921F00101026889
:102320005161202180F83A10704710B504462068AA
:10233000C06820F040002168C860202084F839007F
:102340002046FFF795FC002010BD70B5044694F8B8
:102350003A0022284AD1A068B0F5805F13D1A56A5F
:10236000206940B920684068C0F308002880A06A4E
:10237000801CA06219E020684068C0B22880A06A72
:10238000401CA06211E0206938B920684068C1B2E1
:10239000A26A501CA062117007E02068406800F03B
:1023A0007F01A26A501CA0621170E08D401E80B2B5
:1023B000E085C8B92068C06820F020002168C860A6
:1023C0002068C06820F480702168C8602068406977
:1023D00020F0010021684861202084F83A0020465E
:1023E000FFF702FC002070BD0020FCE70220FAE7A6
:1023F00070B504462168096921F44051E26811432F
:10240000226811612269A1681143626941EA0205EB
:102410002168C96841F20C62914329432268D16066
:102420002168496921F44071A26911432268516110
:10243000564A2168914254D1FEF7C0FB00EBC0011F
:1024400001EB001162689200B1FBF2F100EBC002F7
:1024500002EB001263689B00B2FBF3F26423B2FB51
:10246000F3F202EBC20303EB0212A1EB8201322270
:1024700002EB01116422B1FBF2F101F0F00100EB7B
:10248000C00202EB001263689B00B2FBF3F264230C
:10249000B2FBF3F201EB021200EBC00101EB001101
:1024A00063689B00B1FBF3F100EBC00303EB001387
:1024B0006668B600B3FBF6F36426B3FBF6F303EBF2
:1024C000C30606EB0313A1EB8301322303EB0111D7
:1024D0006423B1FBF3F101F00F0111442268916014
:1024E00053E0FEF75BFB00EBC00101EB00116268FB
:1024F0009200B1FBF2F100EBC00202EB0012636844
:102500009B00B2FBF3F26423B2FBF3F202EBC203D3
:1025100003EB0212A1EB8201322202EB01116422D1
:10252000B1FBF2F101F0F00100EBC00202EB00128E
:1025300063689B00B2FBF3F26423B2FBF3F201EB9E
:10254000021200EBC00101EB001163689B00B1FBBC
:10255000F3F100EBC00303EB00136668B600B3FBB6
:10256000F6F36426B3FBF6F303EBC30606EB0313A3
:10257000A1EB8301322303EB01116423B1FBF3F1DF
:1025800001F00F0111442268916070BD00380140D4
:10259000014691F8390021282CD18868B0F5805F78
:1025A0000FD10A6A1088C0F308000B6858600869E8
:1025B00018B9086A801C086209E0086A401C0862B1
:1025C00005E00B6A581C086218780B685860C88CC4
:1025D000401E80B2C88458B90868C06820F08000E6
:1025E0000B68D8600868C06840F040000B68D8608D
:1025F000002070470220FCE710B500240C48FFF7CC
:1026000093F900BF01E0641C00BF0948FFF781F99E
:102610002028F8D100BF002401E0641C00BF012283
:1026200004490348FFF7A8FA0028F6D100BF10BDFF
:10263000640000201E00002010B5044609480A4925
:1026400008600846446000218160C16001618161C9
:102650000C214161FFF70EFA012204490248FFF7FD
:102660008BFA10BD00380140640000201E000020DD
:1026700000BFFEE70FB4054B10B503A9044A02984A
:1026800000F034F810BC5DF814FB00007929000854
:102690002000002002480068C0F3022070470000BC
:1026A0000CED00E010B5002804DB0A07130E054A04
:1026B000135406E00A07140E034A00F00F031B1F11
:1026C000D45410BD00E400E018ED00E002E008C8BA
:1026D000121F08C1002AFAD170477047002001E09C
:1026E00001C1121F002AFBD1704700002DE9FF4FE6
:1026F0008BB09A460F460446002606E025280BD0EC
:1027000052460D999047641C761C20780028F5D11C
:102710000FB03046BDE8F08F0025A94601227D4963
:1027200000E0054314F8013F203B02FA03F00842A1
:10273000F7D120782E2817D114F8010F45F00405A1
:102740002A280ED06FF02F022078A0F1300109293D
:102750000AD809EB890102EB410100EB0109641C75
:10276000F2E757F8049B641C20786C280DD004DC39
:102770004C2812D06A2811D104E074280DD07A2890
:102780000CD10AE045F4001507E0617845F48015A6
:10279000814202D1641C05F58015641C20786928EB
:1027A0003ED006DC0028B3D063280BD0642804D1C7
:1027B00036E0732810D075285CD052460D999047AA
:1027C000761CA5E017F8040B8DF8000000208DF8AA
:1027D0000100E846012003E057F8048B4FF0FF307A
:1027E00069074FF0000501D40AE06D1C4D450DDA74
:1027F0008542FADB18F805100029F6D106E06D1CB9
:102800008542FCDB18F805100029F8D12E4404E0BD
:1028100018F8010B52460D9990476D1EF8D277E0DB
:1028200000200A90C5F302504FF00A0B02280CD08A
:1028300001CFC117021E71F100020CDA0023D0EBA8
:10284000030063EB01012D2208E0FF1D27F00707BD
:10285000F7E80201EEE72A0504D52B228DF82420A3
:10286000012203E0EA070FD02022F7E70DF120084C
:10287000089218E000200A90C5F302504FF00A0BAE
:10288000022803D001CF00210022EFE7FF1D27F02F
:102890000707F7E80201F7E75A460A9BFDF774FCC1
:1028A000303208F8012D50EA0102F5D1ADEB0800F5
:1028B00000F1200B680701D44FF00109D94502DD72
:1028C000A9EB0B0000E000208146002506E009A8E6
:1028D0005246405D0D9990476D1C761C08988542C4
:1028E000F5DB04E0302052460D999047761CB9F193
:1028F0000001A9F10109F5DC05E018F8010B5246C9
:102900000D999047761CBBF10001ABF1010BF4DC93
:10291000641CFAE60928010030B50446002504E0ED
:102920004FF47A7000F004F86D1CA542F8D330BD66
:1029300070B5034600224FF0E02675690D4E3668EB
:1029400003FB06F44FF0E026B16910E04FF0E026FB
:10295000B06988420BD0884202D20E1A324402E09B
:102960002E1A0E4432440146A24200D300E0EDE7A5
:1029700000BF70BD1000002000BF054A126802F0C1
:102980004002002AF9D0C2B2014B1B1D1A607047E9
:10299000003801401FB5002600BF00BF00BF30A3B4
:1029A0000FCB8DE80F0000BFFDF78EFF4FF4E01056
:1029B000FFF702FA4820FFF7F5F9FFF795F9FFF75F
:1029C0005BF9FDF74BFC48F69F4140F2E730FFF71B
:1029D00077FA472140F2F310FFF746FA47214FF606
:1029E000FF70FFF783FA4FF4E130FFF725FE35E083
:1029F0001F48007800F08000E8B11D48007800F022
:102A00003F00C51704464FF6FF7300212046A0FB88
:102A1000037C05FB03C204FB01253C461548006806
:102A2000241845F1000522462B4613A0FFF722FE8D
:102A300000200F490870701C86B2142096FBF0F13C
:102A400000FB116038B91348006808B9012000E0A4
:102A50000020104908600A20FFF75EFFC8E7000069
:102A600048656C6C6F20576F726C64210000000029
:102A70001400002018000020B8DFB5E7C6BDB3D6AB
:102A8000D0F8CAB1BCE4A3BA256C6C642075730D90
:102A90000A000000948121420000000000000000B4
:102AA00001020304060708090000000001020304F4
:102AB000D02A00080000002024000000CC260008D6
:102AC000F42A0008240000208C050000DC26000801
:102AD0000024F400000000001000000001000000CD
:102AE00000000000000000000000000000000000E6
:042AF00000000000E2
:0400000508000131BD
:00000001FF
