:020000040800F2
:100000006805002045010008E11E0008E71D000802
:10001000DD1E0008CD060008612600080000000073
:100020000000000000000000000000000D1F00089C
:10003000D106000800000000E31E00080F1F0008A2
:100040005F0100085F0100085F0100085F01000810
:100050005F0100085F010008D30600085F01000887
:10006000DD060008E7060008F10600085F01000849
:100070005F0100085F0100085F0100085F010008E0
:100080005F0100085F0100085F0100085F010008D0
:100090005F0100085F0100085F0100085F010008C0
:1000A0005F0100085F0100085F0100085F010008B0
:1000B0005F010008252000085F0100085F010008BB
:1000C0005F0100085F0100085F0100085F01000890
:1000D0005F010008E92500085F0100085F010008D2
:1000E0005F0100085F0100085F0100085F01000870
:1000F0005F0100085F0100085F0100085F01000860
:100100005F0100085F0100085F0100085F0100084F
:100110005F0100085F0100085F0100085F0100083F
:100120005F0100085F0100085F0100085F0100082F
:10013000DFF80CD000F03AFA004800470D30000814
:10014000680500200648804706480047FEE7FEE7AE
:10015000FEE7FEE7FEE7FEE7FEE7FEE7FEE7FEE777
:10016000851F000831010008202A04DB203A21FA0B
:1001700002F00021704721FA02F3D040C2F12002C0
:10018000914008431946704700F0004230F00040AB
:100190000AD0C10D01F56071C0F3160042EA0151A9
:1001A000C20840071143704700200146704730B530
:1001B0000B46014600202022012409E021FA02F525
:1001C0009D4205D303FA02F5491B04FA02F52844BF
:1001D000151EA2F10102F1DC30BD2DE9F05F0546EC
:1001E000002092469B4688460646814640241BE0F6
:1001F0002846414647462246FFF7B6FF53465A4631
:10020000C01A914110D311461846224600F0E0F979
:100210002D1A67EB01084F4622460120002100F00D
:10022000D7F917EB00094E41201EA4F10104DFDCD1
:10023000484631462A464346BDE8F09F2DE9FE4F29
:10024000804681EA0300C00F0C46009021F0004177
:1002500023F00045B8EB0200A94105D240462146F3
:1002600090461C460B46024623F00040104347D000
:10027000270DC7F30A00C3F30A510290401A0190F8
:1002800040286BDAC3F3130040F4801B00989246B9
:1002900020B10023D2EB030A63EB0B0B0198594604
:1002A000C0F14002504600F093F906460D46504614
:1002B0005946019A00F09BF910EB080061410024B7
:1002C00087EA115284EAE7731A4340D0009A62B376
:1002D000019A012A4FEA075215DC001B61EB02016B
:1002E0004FF0004202EA0752CDE90042001C41F5FE
:1002F000801132462B4600F09BF903B0BDE8F08F29
:1003000040462146F9E7001B61EB0201001C41F564
:10031000801300185B412018A2F5001747EB03017A
:1003200040EAD570B6196D4111E06D084FEA360606
:1003300045EAC0754FEA0752001B61EB0201001C41
:1003400041F5801149084FEA300000195141324609
:100350002B4603B0BDE8F04F00F05BB900980122D6
:1003600040000023D0EB020263EBE07300982146CB
:100370004FEAE074B8EB000061EB0401E9E783F0B9
:1003800000435BE781F0004158E72DE9FE4F81EA29
:10039000030404F0004421F0004100944FF0000BEE
:1003A00023F0004350EA01045ED052EA03045BD01C
:1003B000C3F30A54C1F30A552C44A4F2F334019454
:1003C000A0FB0254C1F3130141F48011C3F31303E2
:1003D00043F4801301FB024400FB034E840A970A96
:1003E00044EA815447EA8357A4FB076802958D0AC3
:1003F00005FB07854FEA932C04FB0C542705029D4F
:100400004FEA065847EA1637B5EB08056EEB070CBE
:10041000870E920E47EA811742EA8312A7FB020178
:10042000B6EB0B0164EB00042B0D43EA0C335E18B2
:1004300044EB1C50DA465146E7FB0201C5F31304B6
:100440004FEA0B3343EA14534FEA0432019C43EA68
:100450000603A4F10C040294009CCDE900B400F062
:10046000E7F803B0BDE8F08F00200146F9E72DE979
:10047000F04D81EA030404F0004B21F000451446DE
:100480004FF0000A23F0004150EA050220D054EA60
:1004900001021DD0C5F30A570246C5F31303C1F389
:1004A0001300C1F30A5640F4801543F48013A7EB00
:1004B0000608101BD64608F2FD3873EB050002D380
:1004C00008F1010801E092185B41B8F1000F03DA6E
:1004D00000200146BDE8F08D00204FF48011064653
:1004E00084460EE0171B73EB050705D3121B63EB65
:1004F000050306434CEA010C49084FEA3000921804
:100500005B4150EA0107EDD152EA030012D082EAC2
:10051000040083EA0501084305D0101BAB4106D255
:100520000122002306E000224FF0004302E06FF0BA
:10053000010253101AEB06004CEB085110EB0A00B5
:1005400041EB0B01BDE8F04D00F063B8C1F30A5276
:10055000C1F3130140F2FF3341F480119A4202DAF1
:1005600000200146704740F233439A42A2F23342E0
:1005700002DC5242FFF7F8BD00F02AB830B5041E85
:1005800071F1000404DB4FF00044404264EB0101D0
:10059000141E73F1000405DB1C464FF00043524269
:1005A00063EB0403994208BF904230BD064C074DEF
:1005B00006E0E06840F0010394E807009847103433
:1005C000AC42F6D3FFF7B8FD5C3100087C3100087F
:1005D000202A04DB203A00FA02F100207047914003
:1005E000C2F1200320FA03F3194390407047202AF8
:1005F00006DBCB17203A41FA02F043EAE07306E04B
:1006000041FA02F3D040C2F120029140084319465A
:10061000704710B5141E73F1000408DA401C41F154
:10062000000192185B411A4301D120F0010010BD76
:100630002DE9F04D92469B4611B1B1FA81F202E0EC
:10064000B0FA80F220329046FFF7C2FF04460F4610
:1006500040EA0A0041EA0B0153465A46084313D0C8
:10066000114653EA010019D0C8F140025046FFF785
:100670007BFD05460E46504659464246FFF7A8FF09
:10068000084305D0012004E020463946BDE8F08D3E
:100690000020054346EAE0762C4337430A98630579
:1006A000E40AA0EB08000022FD0A44EA47540A309D
:1006B00002D500200146E9E7010510196941DDE98D
:1006C000084500196941BDE8F04DA2E700BFFEE70B
:1006D000704710B5012000F08DF910BD10B5042051
:1006E00000F088F910BD10B5082000F083F910BDA6
:1006F00010B5102000F07EF910BD000000B585B0E7
:1007000000BF2848806940F00400264988610846F7
:10071000806900F00400009000BF00BF00BF0846E1
:10072000806940F0400088610846806900F0400020
:10073000009000BF00BF012001901B4802900220E2
:10074000039001A9194800F063F91C200190184892
:1007500002900120039001A9164800F059F90022E7
:100760000221062000F05FFB062000F04CFB012276
:100770000221082000F057FB082000F044FB022271
:100780001146092000F04FFB092000F03CFB03223A
:1007900002210A2000F047FB0A2000F034FB05B0DC
:1007A00000BD0000001002400000111000080140D0
:1007B000000021100018014070B50446002594F88F
:1007C0002100022803D00420A0630125C1E0206895
:1007D000006820F00E00216808602068006820F0A2
:1007E0000100216808605C492068884252D95A4952
:1007F00078392068884201D1012047E056496439A0
:100800002068884201D1102040E0534950392068C7
:10081000884201D1801539E04F493C39206888422F
:1008200001D1801432E04C4928392068884202D135
:100830004FF480302AE0484914392068884202D1B8
:100840004FF4801022E044492068884201D14004DE
:100850001CE042492068884201D1012016E03F494E
:1008600014312068884201D110200FE03B49283123
:100870002068884201D1801508E038493C31206861
:10088000884201D1801401E04FF480303349091FC0
:10089000086051E0304978392068884201D1012050
:1008A00047E02D4964392068884201D1102040E09A
:1008B000294950392068884201D1801539E02649FC
:1008C0003C392068884201D1801432E0224928391D
:1008D0002068884202D14FF480302AE01E49143942
:1008E0002068884202D14FF4801022E01A49206823
:1008F000884201D140041CE018492068884201D197
:10090000012016E0154914312068884201D11020D9
:100910000FE0124928312068884201D1801508E093
:100920000E493C312068884201D1801401E04FF427
:100930008030094980394860012084F8210000BFD7
:10094000002084F8200000BF606B10B12046616B6E
:100950008847284670BD000080000240080402401D
:1009600070B5044600F002FA06462546681C10B130
:1009700004480078054400BF00F0F8F9801BA84245
:10098000FAD370BD0C00002010B504460A2002F016
:10099000FEFA012C06D0042C0CD0082C12D0102CFE
:1009A00020D117E010480068012802D100200F492B
:1009B000086017E00D488C38006810B901200C4918
:1009C00008600FE009488838006810B9012007491D
:1009D000086007E005488438006810B90020044921
:1009E000086000BF00BF10BD0001214294012342F6
:1009F000A081214210B5044604480068204020B17F
:100A0000024804602046FFF7BFFF10BD14040140F8
:100A10002DE9F847024600239C467BE14FF0010890
:100A200008FA03F4D1F8008008EA0400A0427DD15E
:100A3000DFF8F4A2D1F80480A8EB0A09D0453AD037
:100A400014DCB8F1030F50D009DCB8F1000F31D03D
:100A5000B8F1010F1CD0B8F1020F49D120E0B8F174
:100A6000110F18D0B8F1120F42D11EE0B9F5881F4E
:100A700025D006DCB9F5803F20D0B9F5801F37D1ED
:100A80001AE0B9F5001F18D0B9F5041F30D117E0EE
:100A9000D1F80CC02DE0D1F80C8008F1040C28E04E
:100AA000D1F80C8008F1080C23E0D1F80C8008F193
:100AB0000C0C1EE000BF00BF00BF00BF00BF00BFA6
:100AC000D1F80880B8F1000F02D14FF0040C0BE010
:100AD000D1F80880B8F1010F03D14FF0080C146170
:100AE00002E04FF0080C546103E04FF0000C00E00E
:100AF00000BF00BFFF2801D8904601E002F10408C2
:100B00004646FF2802D84FEA830803E0A3F108080D
:100B10004FEA88084746D6F800804FF00F0909FAD7
:100B200007F928EA09080CFA07F900E07AE048EA30
:100B30000908C6F80080D1F8048008F08058B8F1A0
:100B4000805F6FD100BFDFF8E481D8F8188048F0EB
:100B50000108DFF8D891C9F81880C846D8F818807D
:100B600008F00108CDF8008000BF00BF4FEAB93897
:100B70004FEA930958F829504FEA83784FEA1879D9
:100B80004FF00F0808FA09F825EA0805DFF8A081F8
:100B9000424502D14FF0000824E0DFF89881424539
:100BA00002D14FF001081DE0DFF88C81424502D1EF
:100BB0004FF0020816E0DFF88481424502D14FF081
:100BC00003080FE0DFF87881424502D14FF00408B6
:100BD00008E0DFF87081424502D14FF0050801E0DE
:100BE0004FF006084FEA83794FEA197908FA09F8B5
:100BF00048EA0505DFF850814FEA930948F8295083
:100C0000D1F8048008F48038B8F5803F0BD1DFF8C4
:100C10003C81D8F8008048EA0008DFF83091C9F834
:100C200000800AE075E0DFF82481D8F8008028EA27
:100C30000008DFF81891C9F80080D1F8048008F4A2
:100C40000038B8F5003F0ED1DFF8008108F1040844
:100C5000D8F8008048EA0008DFF8F09009F10409AC
:100C6000C9F800800DE0DFF8E48008F10408D8F846
:100C7000008028EA0008DFF8D49009F10409C9F8D7
:100C80000080D1F8048008F48018B8F5801F0ED1D8
:100C9000DFF8B88008F10808D8F8008048EA0008B2
:100CA000DFF8A89009F10809C9F800800DE0DFF825
:100CB0009C8008F10808D8F8008028EA0008DFF8CE
:100CC0008C9009F10809C9F80080D1F8048008F473
:100CD0000018B8F5001F0ED1DFF8708008F10C087D
:100CE000D8F8008048EA0008DFF8609009F10C09A4
:100CF000C9F800800DE0DFF8548008F10C08D8F83E
:100D0000008028EA0008DFF8449009F10C09C9F8CE
:100D100000805B1CD1F8008028FA03F8B8F1000FBE
:100D20007FF47CAEBDE8F88700001110001002408F
:100D300000080140000C0140001001400014014077
:100D400000180140001C014008000140000401405F
:100D5000C2680A400AB1416100E0016170470AB10E
:100D6000016101E00B040361704700000148006865
:100D70007047000004000020034800680349097818
:100D80000844014908607047040000200C0000205E
:100D900010B50848006840F01000064908600520BA
:100DA00000F080F80F2000F007F800F02BF800208A
:100DB00010BD00000020024070B504460E480078C7
:100DC0004FF47A71B1FBF0F00C490968B1FBF0F512
:100DD000284600F0F7FB08B1012070BD102C07D2A7
:100DE00000222146501E00F01EF80548046001E074
:100DF0000120F2E70020F0E70C00002000000020B6
:100E000008000020704701460846002809DB00F072
:100E10001F0301229A4043099B0003F1E023C3F81A
:100E2000002100BF70472DE9F05F80460D46164651
:100E3000002701F027FC074639462A46334601F0D1
:100E40000700C0F1070ABAF1040F02D94FF0040AF3
:100E500001E0C0F1070AD14600F1040ABAF1070F18
:100E600002D24FF0000A01E0A0F1030AD4464FF08D
:100E7000010A0AFA09FAAAF1010A0AEA020A0AFAB6
:100E80000CFA4FF0010B0BFA0CFBABF1010B0BEA68
:100E9000030B4AEA0B042146404601F0FBFBBDE888
:100EA000F09F000000BF00F00702064B19684FF6E4
:100EB000FF031940044B0B4343EA0221014B196025
:100EC00000BF70470CED00E00000FA0570B5044665
:100ED0000D460CB9012070BD5A48006800F00700AB
:100EE000A8420ED25748006820F007002843554911
:100EF00008600846006800F00700A84201D0012001
:100F0000E9E7207800F0020002281DD1207800F0E7
:100F10000400042805D14C48406840F4E0604A4988
:100F20004860207800F00800082805D1464840684D
:100F300040F46050444948604348406820F0F00065
:100F4000A168084340494860207800F0010078B368
:100F50006068012806D13C48006800F4003090B970
:100F60000120B8E76068022806D13748006800F021
:100F7000007040B90120AEE73348006800F002007D
:100F800008B90120A7E73048406820F003006168F5
:100F900008432D494860FFF7E9FE064609E0FFF7E0
:100FA000E5FE801B41F28831884202D9032092E796
:100FB00007E02548406800F00C006168B0EB810F45
:100FC000EDD12048006800F00700A8420ED91D4866
:100FD000006820F0070028431A49086008460068A6
:100FE00000F00700A84201D0012074E7207800F04B
:100FF0000400042807D11448406820F4E060E16848
:10100000084311494860207800F00800082808D1FA
:101010000D48406820F46050216940EAC1000A4947
:10102000486000F03FF808494968C1F30311074AD6
:10103000515CC8400649086006480068FFF7BCFEDE
:10104000002048E700200240001002404431000820
:1010500000000020080000200148006870470000E0
:101060000000002000B5FFF7F7FF04494968C1F30D
:101070000221034A515CC84000BD0000001002403C
:101080005431000800B5FFF7E7FF04494968C1F390
:10109000C221034A515CC84000BD0000001002405C
:1010A00054310008F0B585B00FF26C0C9CE8E010EC
:1010B00001A8A0E8E0101CA52D68009500210022E1
:1010C000002300240020194D696801F00C05F5B1DA
:1010D000042D02D0082D19D101E0154819E001AD09
:1010E000C1F38346AC5D01F4803555B10F4D6D6899
:1010F000C5F340451DF805200D4D6543B5FBF2F3E2
:1011000002E00C4D04FB05F3184602E000BF08485E
:1011100000BF00BF05B0F0BD0203040506070809C3
:101120000A0B0C0D0E0F10100102000000100240FF
:1011300000127A0000093D00F8B504460CB9012000
:10114000F8BD207800F00100002878D0F848406809
:1011500000F00C0004280CD0F548406800F00C00AA
:10116000082811D1F248406800F48030B0F5803F83
:101170000AD1EF48006800F4003000285FD06068B2
:1011800000285CD10120DBE700BF6068B0F5803F3C
:1011900006D1E748006840F48030E549086028E05F
:1011A000606858B9E248006820F48030E04908607F
:1011B0000846006820F4802008601AE06068B0F5F6
:1011C000A02F0BD1DA48006840F48020D84908608D
:1011D0000846006840F4803008600AE0D44800689F
:1011E00020F48030D24908600846006820F480204E
:1011F000086000BF606888B1FFF7B8FD054606E0EB
:10120000FFF7B4FD401B642801D9032098E7C848C4
:10121000006800F400300028F2D010E0FFF7A6FDCF
:10122000054606E0FFF7A2FD401B642801D9032014
:1012300086E7BF48006800F400300028F2D120782B
:1012400000F00200022857D1B948406800F00C00B5
:1012500050B1B748406800F00C00082818D1B448D5
:10126000406800F4803098B9B148006800F002008E
:1012700020B12069012801D0012061E7AC48006855
:1012800020F0F800616940EAC100A949086033E034
:101290002069E8B10120A7490860FFF767FD05460E
:1012A00006E0FFF763FD401B022801D9032047E752
:1012B0009F48006800F002000028F2D09C480068B7
:1012C00020F0F800616940EAC1009949086013E024
:1012D000002098490860FFF749FD054606E0FFF742
:1012E00045FD401B022801D9032029E790480068EA
:1012F00000F002000028F2D1207800F00800082851
:101300002DD1A069B8B101208B490860FFF72EFDEF
:10131000054606E0FFF72AFD401B022801D90320FD
:101320000EE78348406A00F002000028F2D0012056
:1013300000F0D8FD13E000207F490860FFF716FD9C
:10134000054606E0FFF712FD401B022801D90320E5
:10135000F6E67748406A00F002000028F2D12078D3
:1013600000F00400042873D100277148C06900F020
:10137000805070B900BF6E48C06940F080506C4921
:10138000C8610846C06900F08050009000BF00BFEF
:1013900001276A48006800F48070B0B967480068A7
:1013A00040F4807065490860FFF7E0FC054606E000
:1013B000FFF7DCFC401B642801D90320C0E65F482E
:1013C000006800F480700028F2D000BFE0680128B7
:1013D00006D15748006A40F001005549086227E0ED
:1013E000E06858B95248006A20F00100504908628C
:1013F0000846006A20F00400086219E0E068052849
:101400000BD14B48006A40F0040049490862084685
:10141000006A40F0010008620AE04548006A20F0D6
:101420000100434908620846006A20F0040008628F
:1014300000BFE068A0B1FFF799FC054609E0FFF79F
:1014400095FC401B41F28831884202D9032077E69F
:1014500022E03748006A00F002000028EFD012E0D6
:10146000FFF784FC054608E0FFF780FC401B41F2D3
:101470008831884201D9032062E62D48006A00F0D5
:1014800002000028F0D1012F05D12948C06920F0C1
:1014900080502749C86100BFE069C8B3244840684C
:1014A00000F00C00082860D0E069022848D1002034
:1014B00020490866FFF75AFC054606E0FFF756FC90
:1014C000401B022801D903203AE61948006800F0C1
:1014D00000700028F2D1206AB0F5803F07D114488F
:1014E000406820F40030A168084311494860D4E9FD
:1014F000080108430E49496821F4741108430C4956
:10150000486001200B490866FFF730FC054607E0FC
:101510003DE0FFF72BFC401B022801D903200FE61A
:101520000348006800F000700028F2D02FE00000AF
:10153000001002400000424280044242007000401D
:10154000002014490866FFF711FC054606E0FFF786
:101550000DFC401B022801D90320F1E50E4800686C
:1015600000F000700028F2D111E0E069012800D1FC
:10157000E6E50948466806F48031206A814204D1D4
:1015800006F47011606A814201D00120D8E5002084
:10159000D6E500000000424200100240042808D1B5
:1015A0004FF0E021096941F004014FF0E0221161A0
:1015B00007E04FF0E021096921F004014FF0E0223B
:1015C0001161704770B504462546681EB0F1807FF2
:1015D00001D301200FE0681E4FF0E02148610F2188
:1015E0004FF0FF3001F056F800204FF0E021886105
:1015F00007200861002070BD7047704710B5044691
:101600000CB9012010BD94F83D0028B9002084F8E1
:101610003C00204600F00CF8022084F83D00211D1B
:10162000206800F023FD012084F83D000020E9E758
:1016300038B504460D492068884215D100BF0C48D2
:10164000C06940F002000A49C8610846C06900F05C
:101650000200009000BF00BF032201211D20FFF700
:10166000E2FB1D20FFF7CFFB38BD00000004004067
:101670000010024001460868C06840F001000B6895
:10168000D8600868806800F00702062A05D008685C
:10169000006840F001000B68186000207047704738
:1016A00010B5044620680069C0F34000D8B1206836
:1016B000C068C0F34000B0B16FF00200216808615B
:1016C000012020772068806900F0030018B12046CF
:1016D000FFF7E5FF05E0204600F0ADF8204600F0FA
:1016E00095F90020207720680069C0F38000D8B108
:1016F0002068C068C0F38000B0B16FF004002168BA
:101700000861022020772068806900F4407018B1D9
:101710002046FFF7C4FF05E0204600F08CF8204685
:1017200000F074F90020207720680069C0F3C00041
:10173000D8B12068C068C0F3C000B0B16FF0080035
:1017400021680861042020772068C06900F0030048
:1017500018B12046FFF7A3FF05E0204600F06BF824
:10176000204600F053F90020207720680069C0F37C
:101770000010D8B12068C068C0F30010B0B16FF09D
:10178000100021680861082020772068C06900F4F3
:10179000407018B12046FFF782FF05E0204600F0B8
:1017A0004AF8204600F032F90020207720680069CE
:1017B00000F0010058B12068C06800F0010030B1AD
:1017C0006FF0010021680861204600F04DF92068A3
:1017D0000069C0F3C01058B12068C068C0F3C010E1
:1017E00030B16FF08000216808612046FFF704FFE8
:1017F00020680069C0F3801058B12068C068C0F349
:10180000801030B16FF0400021680861204600F080
:1018100039F920680069C0F3401058B12068C068E9
:10182000C0F3401030B16FF02000216808612046FD
:10183000FFF7E3FE10BD704770B504460D4616462F
:1018400000BF94F83C00012801D1022070BD0120A6
:1018500084F83C0000BF022084F83D0036B1042E1D
:101860001BD0082E31D00C2E5ED145E029462068D1
:1018700000F05CFC2068806940F008002168886105
:101880002068806920F004002168886120688069F0
:10189000296908432168886147E02946206800F0EB
:1018A0007DFC2068806940F40060216888612068C0
:1018B000806920F4806021688861206880692969D6
:1018C00040EA0120216888612FE02946206800F065
:1018D000A3FC2068C06940F008002168C861206846
:1018E000C06920F004002168C8612068C0692969C6
:1018F00008432168C86118E02946206800F0C8FC48
:101900002068C06940F400602168C8612068C0692F
:1019100020F480602168C8612068C069296940EAB4
:1019200001202168C86100E000BF00BF012084F8E9
:101930003D0000BF002084F83C0000BF00BF85E7E9
:1019400010B504460CB9012010BD94F83D0028B92B
:10195000002084F83C00204600F00CF8022084F8B7
:101960003D00211D206800F081FB012084F83D002E
:101970000020E9E710B586B0044600BF2048C069E2
:1019800040F002001E49C8610846C06900F002002C
:10199000019000BF00BF00BF0846806940F0010011
:1019A00088610846806900F00100019000BF00BF17
:1019B00000BF1449486820F4406040F0E06040F403
:1019C0000060486000BF00BF0D48806940F008001B
:1019D0000B4988610846806900F00800019000BF4B
:1019E00000BF2020029002200390012004900320D9
:1019F000059002A90448FFF70BF806B010BD0000DF
:101A00000010024000000140000C0140704700003F
:101A100070B504460E4601223146206800F074FB82
:101A20000F492068884203D00E492068884201D1BE
:101A3000012000E0002028B12068406C40F4004004
:101A4000216848642068806800F00705062D05D0ED
:101A50002068006840F0010021680860002070BD27
:101A6000002C01400034014010B504460348844274
:101A700003D120210248FFF76BF910BD1C000020A4
:101A8000001801407047704701460022002391F87A
:101A9000392091F83A3042EA030070472DE9F047C7
:101AA0000446206805682068C668206847694FF0CA
:101AB0000008C14605F00F08B8F1000F0AD105F083
:101AC000200038B106F0200020B1204600F034FCA0
:101AD000BDE8F087B8F1000F6DD007F0010018B92C
:101AE00006F49070002866D005F0010030B106F4CD
:101AF000807018B1E06B40F00100E06305F0040075
:101B000030B107F0010018B1E06B40F00200E06373
:101B100005F0020030B107F0010018B1E06B40F0B1
:101B20000400E06305F0080030B107F0010018B1CF
:101B3000E06B40F00800E063E06B68B305F0200064
:101B400028B106F0200010B1204600F0F5FB206817
:101B50004069C0F38019E06B00F0080010B9B9F1DA
:101B6000000F22D0204600F0C7FB2068406900F03B
:101B70004000B0B12068406920F040002168486111
:101B8000606B50B11748616B4863606BFEF714FEE1
:101B900010B1606B416B88470CE02046FFF773FF84
:101BA00008E02046FFF76FFF04E02046FFF76BFFD9
:101BB0000020E0638CE705F0800030B106F0800083
:101BC00018B1204600F0DCFC82E705F0400030B19F
:101BD00006F0400018B1204600F09EFB78E700BFF9
:101BE00076E70000E522000810B504460CB9012094
:101BF00010BDA06900B100E000BF94F8390028B919
:101C0000002084F83800204600F028F8242084F8CA
:101C100039002068C06820F400502168C860204660
:101C200000F0DEFB2068006920F490402168086124
:101C30002068406920F02A00216848612068C06857
:101C400040F400502168C8600020E063202084F840
:101C5000390084F83A000020CAE7000010B586B0C9
:101C600004461F492068884237D100BF1D4880695B
:101C700040F004001B4988610846806900F00400B8
:101C8000019000BF00BF00BF0846806940F480405B
:101C900088610846806900F48040019000BF00BF61
:101CA0004815029002200390012004900320059023
:101CB00002A90D48FEF7ACFE4FF4806002900020B0
:101CC000039002A90848FEF7A3FE2520FFF79BF822
:101CD000032211462520FFF7A6F806B010BD00002C
:101CE00000380140001002400008014010B50346D2
:101CF00093F83A0020282FD101B10AB9012010BD74
:101D000000BF93F83800012801D10220F7E7012035
:101D100083F8380000BF99629A85DA850020D8637D
:101D2000222083F83A0000BF002083F8380000BF6B
:101D30001868C06840F480701C68E06018684069EA
:101D400040F001001C6860611868C06840F0200025
:101D50001C68E0600020D2E70220D0E71D4A01683D
:101D6000914236D11C49098801F4004189BB1A49C6
:101D7000098801F4804171B1184909780A2903D012
:101D80000021154A118024E01349098841F40041DB
:101D9000114A11801DE0114909780D2906D10E491B
:101DA000098841F480410C4A118012E00B490978FE
:101DB000094A1288C2F30D02094B99540649098851
:101DC000491C054A118011460988C72901DD0021F7
:101DD00011807047003801401400002016000020D8
:101DE0009C000020704700BFFEE7000000B585B0F2
:101DF00000BF1748806940F0040015498861084613
:101E0000806900F00400009000BF00BF00BF0846DA
:101E1000806940F0400088610846806900F0400019
:101E2000009000BF00BF1C20019000200290012004
:101E3000039001A90748FEF7EBFD01200190022065
:101E4000039001A90448FEF7E3FD05B000BD0000C2
:101E500000100240001801400008014000B585B0A4
:101E600000BF1B48806940F0080019498861084696
:101E7000806900F00800009000BF00BF00BF084666
:101E8000806940F0400088610846806900F04000A9
:101E9000009000BF00BF202001900120029003901D
:101EA0000320049001A90B48FEF7B2FD2020019009
:101EB00001A90948FEF7ACFD012220210548FEF7E3
:101EC0004EFF012220210448FEF749FF05B000BD66
:101ED00000100240000C01400018014000BFFEE766
:101EE0007047704708B508490968C9084FF47A7205
:101EF000B1FBF2F14143009100BF00BF00994A1EBF
:101F000000920029F9D108BD00000020704710B5EB
:101F1000FEF732FF10BD000010B504460420FFF7A5
:101F20003DFB0148046010BD1000002030B58FB0AB
:101F3000054600240120059000040690002007902B
:101F400002200C90C1030D910E9505A8FFF7F4F83F
:101F500004460CB100BFFEE70F2000900220019064
:101F6000002002904FF48060039000200490022132
:101F70006846FEF7ABFF04460CB100BFFEE70FB0AA
:101F800030BD00001148006840F001000F490860B2
:101F9000084640680E4908400C49486008460068F9
:101FA0000C490840094908600846006820F4802070
:101FB00008600846406820F4FE0048604FF41F00A7
:101FC0008860C803044908607047000000100240A0
:101FD0000000FFF8FFFFF6FE08ED00E030B597B017
:101FE00004460D460E4807900895002109910A9471
:101FF0000B9107A8FFF7A4FC60200090204604EB9B
:10200000D07149100191022002900422694607A86C
:10201000FFF712FC042107A8FFF7FAFC17B030BD48
:102020000004004010B50248FFF73AFB10BD000065
:102030001C00002070B505460C460748074908609B
:102040000846446000218160C5600161FFF7D6FA4F
:102050000248FFF70FFB70BD000400401C00002089
:1020600001490860704700003804004010B502685C
:10207000204B98420ED0204B98420BD0B0F1804FAD
:1020800008D01E4B984205D01D4B984202D01D4BE4
:10209000984203D122F070024B681A43154B9842C4
:1020A0000ED0154B98420BD0B0F1804F08D0134B97
:1020B000984205D0124B984202D0124B984203D15D
:1020C00022F44072CB681A4322F080034C6943EA41
:1020D000040202608B68C3620B688362054B9842FE
:1020E00002D0054B984201D10B6903630123436180
:1020F00010BD0000002C01400034014000040040ED
:1021000000080040000C004030B501F01F0501241C
:1021100004FA05F3046A9C430462046A01F01F0593
:1021200002FA05F52C43046230BD000030B5056AA3
:1021300025F001050562026A4368846924F0700491
:1021400024F003040D682C4322F002028D682A4318
:10215000104DA84200D103E00F4DA84206D100BFA8
:1021600022F00802CD682A4322F00402094DA84259
:1021700002D0094DA84207D123F4807323F40073E1
:102180004D692B438D692B43436084614D684563E2
:10219000026230BD002C01400034014030B5056AB8
:1021A00025F010050562026A4368846924F4E0445E
:1021B00024F440740D6844EA052422F020028D685E
:1021C00042EA0512124DA84200D103E0114DA84287
:1021D00007D100BF22F08002CD6842EA051222F04A
:1021E00040020B4DA84202D00A4DA84209D123F467
:1021F000806323F400634D6943EA85038D6943EAF4
:102200008503436084614D688563026230BD0000D0
:10221000002C01400034014030B5056A25F480757A
:102220000562026A4368C46924F0700424F0030460
:102230000D682C4322F400728D6842EA0522124D8B
:10224000A84200D103E0114DA84207D100BF22F4FB
:102250000062CD6842EA052222F480620A4DA8425B
:1022600002D00A4DA84209D123F4805323F400532D
:102270004D6943EA05138D6943EA05134360C46160
:102280004D68C563026230BD002C0140003401403E
:1022900030B5056A25F480550562036A4468C26951
:1022A00022F4E04222F440720D6842EA052223F44F
:1022B00000538D6843EA0533084DA84202D0084D0B
:1022C000A84204D124F480444D6944EA8514446052
:1022D000C2614D680564036230BD0000002C0140FE
:1022E0000034014070B505466C6A0020E085E0844A
:1022F0002046FFF7C8FB70BD0168C96821F49071E2
:102300000268D1600168496921F0010102685161E8
:10231000202180F83A10704710B504462068C06844
:1023200020F040002168C860202084F83900204651
:10233000FFF758FD002010BD70B5044694F83A0030
:1023400022284AD1A068B0F5805F13D1A56A206920
:1023500040B920684068C0F308002880A06A801C4B
:10236000A06219E020684068C0B22880A06A401CC2
:10237000A06211E0206938B920684068C1B2A26A41
:10238000501CA062117007E02068406800F07F01D7
:10239000A26A501CA0621170E08D401E80B2E085E0
:1023A000C8B92068C06820F020002168C860206893
:1023B000C06820F480702168C8602068406920F0FF
:1023C000010021684861202084F83A002046FFF788
:1023D000C5FC002070BD0020FCE70220FAE70000E9
:1023E00070B504462168096921F44051E26811433F
:1023F000226811612269A1681143626941EA0205FC
:102400002168C96841F20C62914329432268D16076
:102410002168496921F44071A26911432268516120
:10242000564A2168914254D1FEF72CFE00EBC001C0
:1024300001EB001162689200B1FBF2F100EBC00207
:1024400002EB001263689B00B2FBF3F26423B2FB61
:10245000F3F202EBC20303EB0212A1EB8201322280
:1024600002EB01116422B1FBF2F101F0F00100EB8B
:10247000C00202EB001263689B00B2FBF3F264231C
:10248000B2FBF3F201EB021200EBC00101EB001111
:1024900063689B00B1FBF3F100EBC00303EB001397
:1024A0006668B600B3FBF6F36426B3FBF6F303EB02
:1024B000C30606EB0313A1EB8301322303EB0111E7
:1024C0006423B1FBF3F101F00F0111442268916024
:1024D00053E0FEF7C7FD00EBC00101EB001162689D
:1024E0009200B1FBF2F100EBC00202EB0012636854
:1024F0009B00B2FBF3F26423B2FBF3F202EBC203E4
:1025000003EB0212A1EB8201322202EB01116422E1
:10251000B1FBF2F101F0F00100EBC00202EB00129E
:1025200063689B00B2FBF3F26423B2FBF3F201EBAE
:10253000021200EBC00101EB001163689B00B1FBCC
:10254000F3F100EBC00303EB00136668B600B3FBC6
:10255000F6F36426B3FBF6F303EBC30606EB0313B3
:10256000A1EB8301322303EB01116423B1FBF3F1EF
:1025700001F00F0111442268916070BD00380140E4
:10258000014691F8390021282CD18868B0F5805F88
:102590000FD10A6A1088C0F308000B6858600869F8
:1025A00018B9086A801C086209E0086A401C0862C1
:1025B00005E00B6A581C086218780B685860C88CD4
:1025C000401E80B2C88458B90868C06820F08000F6
:1025D0000B68D8600868C06840F040000B68D8609D
:1025E000002070470220FCE710B500240C48FFF7DC
:1025F00055FA00BF01E0641C00BF0948FFF744FA28
:102600002028F8D100BF002401E0641C00BF012293
:1026100004490348FFF76AFB0028F6D100BF10BD4C
:102620005C0000201600002010B5044609480A4945
:1026300008600846446000218160C16001618161D9
:102640000C214161FFF7D0FA012204490248FFF74B
:102650004DFB10BD003801405C000020160000203A
:1026600000BFFEE70FB4054B10B503A9044A02985A
:1026700000F0F6F810BC5DF814FB0000F12F000824
:102680001800002002480068C0F3022070470000D4
:102690000CED00E010B5002804DB0A07130E054A14
:1026A000135406E00A07140E034A00F00F031B1F21
:1026B000D45410BD00E400E018ED00E002E008C8CA
:1026C000121F08C1002AFAD170477047002001E0AC
:1026D00001C1121F002AFBD1704700002DE9FF5FE6
:1026E00082B00021DDE90430020DDDF840B0034383
:1026F00018D044F61050A2F2FF324243151411983C
:1027000001281FD0A5EB0B00401C5FEA000A4FF028
:1027100000064E4FDFF83891B046504615D5CAF145
:10272000000413E0119801244AA3012801D16FEAA3
:102730000B010298119AC0E90031C0E9024206B0CB
:10274000BDE8F09FCBF10000DFE704460021404ADE
:10275000491842EB0450CDE9001012E0E00707D021
:1027600032463B4640464946FDF70FFE80468946C5
:1027700032463B4610461946FDF707FE06460F4611
:102780006410002CEAD1DDE90401DDE90023BAF18F
:10279000000F06DAFDF7F9FD42464B46FDF7F5FD61
:1027A00005E0FDF764FE42464B46FDF760FE044639
:1027B0000E460022284BFDF7E1FE03D84FF0FF3014
:1027C000014607E00022254B20463146FDF736FD45
:1027D000FDF7BCFE102409E0002C0ADB0A220023CE
:1027E000FDF7FBFC039B30321A55641E50EA0102D0
:1027F000F2D1641C039AC4F111031444119A012A02
:1028000003D0012208430DD10AE0084304D0002080
:102810004FF0110B119072E7A3EB0B056D1E0DE04D
:102820005B4504DD4FF0000205F1010504E003DA29
:102830004FF00002A5F10105002AECD00298119991
:10284000C0E90231C0E9004579E70000000014400A
:102850000000F03F300000000000F0430000E03FC7
:102860002DE9FF4F95B09B468946064600250FE2AD
:10287000252877D100242746F84A0121059400E055
:10288000044316F8013F203B01FA03F01042F7D150
:1028900030782A2811D06FF02F033078A0F1300261
:1028A000092A16D8059A44F0020402EB820203EBCF
:1028B00042021044761C0590EFE759F8042B05926C
:1028C000002A03DA504244F40054059044F0020414
:1028D000761C30782E2816D116F8010F44F0040427
:1028E0002A280DD06FF02F023078A0F13003092B89
:1028F00009D807EB870302EB4303C718761CF3E7FD
:1029000059F8047B761C30786C280FD006DC4C28F4
:1029100017D068280DD06A2814D104E0742810D08C
:102920007A280FD10DE044F400140AE044F4801436
:1029300001E044F440147278824202D104F580141C
:10294000761C761C307866280BD013DC582877D09C
:1029500009DC002875D04528F6D04628F4D0472851
:102960001AD19DE118E0632835D0642879D0652814
:1029700012D195E1702873D008DC6728F1D069285E
:102980006FD06E280DD06F2806D1B5E073282CD0FB
:10299000752875D0782874D05A46179990476D1CC1
:1029A00075E1C4F30250022809D003280DD0D9F8EC
:1029B000001004280DD00D6009F1040967E1D9F871
:1029C0000010EA17C1E90052F6E7D9F800100D80AF
:1029D000F2E70D70F0E719F8041B8DF800100020E5
:1029E0008DF80100EA46012003E059F804AB4FF0EE
:1029F000FF3061074FF0000102D40DE008F1010142
:102A00008846B9420FDA8045F8DB1AF80810002929
:102A1000F4D108E008F1010188468142FADB1AF896
:102A200008100029F6D105985B46A0EB080721465F
:102A30003846179A00F094FA284400EB080507E09E
:102A40004DE029E10DE01AF8010B5A46179990471D
:102A5000B8F10108F7D25B4621463846179A13E1D0
:102A600042E00A220092C4F302524FF0000A022A06
:102A700008D059F804CB032A4FEAEC710AD00DE0D4
:102A800029E02AE009F1070121F00702F2E802C17A
:102A9000914609E00FFA8CFC4FEAEC71042A03D14D
:102AA0004FFA8CFC4FEAEC71002907DA0A46002144
:102AB000DCF1000C61EB02012D2202E0220504D5BD
:102AC0002B228DF80420012203E0E20701D020220E
:102AD000F7E7904659E00A2102E010220DE01021AC
:102AE0004FF0000A00910BE010224FF0000A44F072
:102AF00004040827009203E008224FF0000A009225
:102B0000C4F30252022A05D059F804CB0021032A4B
:102B100008D009E009F1070121F00702F2E802C13B
:102B2000914605E01FFA8CFC042A01D10CF0FF0C41
:102B30004FF00008220728D5702806D0009B83F0AC
:102B4000100353EA0A0305D00EE040228DF804205A
:102B5000012208E05CEA010206D030228DF8042050
:102B60008DF8050002229046009B83F0080353EA8B
:102B70000A030AD15CEA010201D1620705D53022BD
:102B80008DF804204FF001087F1E582804D034A08F
:102B900003900EA802900DE036A0F9E75346604678
:102BA000009AFDF71AFB84460398825C0298401E47
:102BB000029002705CEA0100F0D1029806A9081A9E
:102BC00000F1200A600702D524F4803400E00127D8
:102BD000574502DDA7EB0A0000E0002000EB0A01E8
:102BE000009005984144401A0590E00306D45B46E6
:102BF0002146179A059800F0B3F90544002706E02E
:102C000001A85A46C05D179990476D1C7F1C474527
:102C1000F6DBE0030CD55B462146179A059800F0D9
:102C20009FF9054404E030205A46179990476D1CDF
:102C30000099481E00900029F5DC08E002980299EE
:102C40005A460078491C0291179990476D1CBAF1B9
:102C50000001AAF1010AF1DC65E100000928010088
:102C60003031323334353637383961626364656602
:102C700000000000303132333435363738394142C4
:102C8000434445460000000000F058F90544761C16
:102C9000307800287FF4ECAD19B02846BDE8F08FFD
:102CA000620700D4062709F1070222F0070CFCE8AE
:102CB0000223E14603F000485FEA080C02D00FF25D
:102CC000702C0DE05FEA045C02D50FF2682C07E07F
:102CD0005FEAC47C02D00FF2602C01E0AFF2700C0E
:102CE0004FF0FF3823F00043CDF850C065280CD0DA
:102CF00006DC452809D046281DD047283DD13DE0B7
:102D0000662818D067287ED138E00021112F01DB1A
:102D1000112000E0781CCDE9000106A90EA8FFF7FC
:102D2000DDFCDDE90F010E9A03910021009207F10D
:102D3000010A04914DE04FF000400097CDE90110E9
:102D400006A90EA8FFF7CAFCDDE90F0203920E9B4D
:102D500011990022DDF80CA00093049211B9791C9E
:102D600000EB010AB7EB0A0004D4C0F1FF3007F111
:102D7000010A0490AAEB0700019044E0012F00DA59
:102D800001270021112F01DD112000E03846CDE997
:102D9000000106A90EA8FFF7A1FCDDE90F010E9ABC
:102DA0000391002104910092BA4621070CD40399A3
:102DB000514500DA8A46BAF1010F05DD009AAAF101
:102DC0000101515C302908D0B84202DA10F1040F39
:102DD00006DA0121CDE9011015E0AAF10101E9E7C8
:102DE000002805DC049901440491AAEB000102E0EB
:102DF000411C514500DD8A460499401A401C01904F
:102E00004FF000400290200704D40198504501DBA8
:102E1000CDF8048000208DF84F0002980DF14F0787
:102E2000B0F1004F25D02B200E9002984FF00208F1
:102E300000280CDA404202902D200E9007E00A2173
:102E40000298FDF7B4F93031029007F8011DB8F18E
:102E50000001A8F10108F2DC02980028EFD1791EE8
:102E60000E980870307800F0200040F0450007F818
:102E7000020D12A8C01B00F107081498007800B1D9
:102E8000012000EB0A01019801EBE0710598414433
:102E9000401A401E0590E00306D45B462146179A6F
:102EA000059800F05DF805441498007818B15A466A
:102EB000179990476D1CE00324D55B462146179A6D
:102EC000059800F04DF805441CE00498002807DB45
:102ED000DDE90301884203DD0098405C179901E0B9
:102EE000179930205A469047049805F10105401C77
:102EF00004900198401E019004D12E205A46179943
:102F000090476D1CBAF10001AAF1010ADDDC05E071
:102F100017F8010B5A46179990476D1CB8F100013C
:102F2000A8F10108F4DC5B462146179A0598ABE648
:102F30002D0000002B000000200000002DE9F041D2
:102F4000044600251E461746880404D405E0394689
:102F50002020B0476D1C641EF9D52846BDE8F081DD
:102F60002DE9F041044600251E469046C80301D5D0
:102F7000302700E02027880404D505E04146384684
:102F8000B0476D1C641EF9D52846BDE8F08130B508
:102F90000446002504E04FF47A7000F005F86D1C3B
:102FA000A542F8D330BD000070B5034600224FF0B3
:102FB000E02675690D4E366803FB06F44FF0E026F7
:102FC000B16910E04FF0E026B06988420BD088422A
:102FD00002D20E1A324402E02E1A0E443244014646
:102FE000A24200D300E0EDE700BF70BD100000205A
:102FF00000BF054A126802F04002002AF9D0C2B2AE
:10300000014B1B1D1A607047003801401FB500249A
:10301000002540F2D246DFF8A49029A30FCB8DE81B
:103020000F00FDF7B5FE4FF4E010FEF77FFF4820DC
:10303000FEF772FFFEF712FFFEF7D8FEFDF75EFB0C
:1030400048F69F4140F2E730FEF7F4FF472140F297
:10305000F310FEF7C3FF4FF4E130FFF7E5FA2BE082
:1030600035B9601C84B2B4F5967F1FD101251DE0EF
:10307000601E84B2002C19D10025314614A0FFF740
:10308000F1FA4846FDF780F807463A460B4615A088
:10309000FFF7E8FA31461AA0FFF7E4FA31461EA01E
:1030A000FFF7E0FA694622A0FFF7DCFA2046FEF7B8
:1030B000D7FF0A20FDF754FCD2E70000A470454179
:1030C00048656C6C6F20576F726C642100000000C3
:1030D000CAE4B3F6D5FBD0CDCAFD646174613D2569
:1030E000640D0A00CAE4B3F6B8A1B5E3D0CDCAFDB9
:1030F00066646174613D25302E32660D0A00000061
:10310000CAE4B3F6CAAEC1F9BDF8D6C6CAFD646159
:1031100074613D25580D0A00CAE4B3F6B0CBBDF882
:10312000D6C6CAFD646174613D256F0D0A000000BA
:10313000CAE4B3F6D7D6B7FBB4AE7374723D257349
:103140000D0A00000000000000000000010203045E
:103150000607080900000000010203047C31000892
:10316000000000201C000000BC2600089831000868
:103170001C0000204C050000CC2600080024F400B0
:10318000000000001000000001000000000000002E
:08319000000000000000000037
:0400000508000131BD
:00000001FF
