:020000040800F2
:1000000080070020450100085D080008D5070008AA
:100010005908000839030008EF0F0008000000002D
:10002000000000000000000000000000210A00089D
:100030003D0300080000000009090008610B0008EA
:100040001D1000085F0100085F0100085F01000843
:100050005F0100085F010008410300085F0100081C
:10006000710300089D030008CD0300085F0100082C
:100070005F0100085F0100085F0100085F010008E0
:100080005F0100085F0100085F0100085F010008D0
:100090005F0100085F0100085F0100085F010008C0
:1000A0005F0100085F0100085F0100085F010008B0
:1000B0005F0100085F0100085F0100085F010008A0
:1000C0005F0100085F0100085F0100085F01000890
:1000D0005F010008810D00085F0100085F01000852
:1000E0005F0100085F0100085F0100085F01000870
:1000F0005F0100085F0100085F0100085F01000860
:100100005F0100085F0100085F0100085F0100084F
:100110005F0100085F0100081D0C0008450C000885
:100120005F0100085F0100085F0100085F0100082F
:10013000DFF80CD000F02EF800480047111300083B
:10014000800700200648804706480047FEE7FEE794
:10015000FEE7FEE7FEE7FEE7FEE7FEE7FEE7FEE777
:10016000BD0B00083101000830B50B4601460020E8
:100170002022012409E021FA02F59D4205D303FA69
:1001800002F5491B04FA02F52844151EA2F10102EA
:10019000F1DC30BD064C074D06E0E06840F001039D
:1001A00094E8070098471034AC42F6D3FFF7C4FF39
:1001B000A0140008C014000870B58C1810F8015B7A
:1001C00015F0070301D110F8013B2A1106D110F8F0
:1001D000012B03E010F8016B01F8016B5B1EF9D1F4
:1001E0002B0705D40023521E0DD401F8013BFAE77A
:1001F00010F8013BCB1A921C03E013F8015B01F8E5
:10020000015B521EF9D5A142D8D3002070BD10B5B4
:1002100000F03EF800F002F810BD00000EB501211C
:10022000302000F073FB40F2E730ADF804004720C7
:10023000ADF800006946144800F044FD0121124861
:1002400000F014FD012211460F4800F032FD01219B
:100250000D4800F011FD40F2E730ADF804004720F2
:10026000ADF800006946094800F02CFD012107485F
:1002700000F0FCFC01221146044800F01AFD0121A7
:10028000024800F0F9FC0EBD0010004000140040D0
:1002900008B536208DF8000000208DF801000320FD
:1002A0008DF8020001208DF80300684600F0EAFA9C
:1002B00037208DF8000000208DF8010004208DF813
:1002C000020001208DF80300684600F0DBFA08BD4B
:1002D00008B51148D0F8301210A000F00BFF14221E
:1002E000104911A000F006FF0121082000F01EFBBC
:1002F0004FF48070ADF8000010208DF8030003204B
:100300008DF8020069460B4800F0CCF94FF480717B
:10031000084800F05BFA08BD340000205B25735DDF
:100320003A000000D813000825732025640D0A0A3E
:1003300000000000000C014000BFFEE77047000015
:1003400010B5012000F05EF8012809D1012106480E
:1003500000F033FA012803D10102044800F036FA14
:10036000012000F049F810BD00080140000C0140D8
:1003700010B5042000F046F8012808D104210648F1
:1003800000F01BFA18B92021034800F021FA0420DC
:1003900000F032F810BD00000018014010B5082030
:1003A00000F030F8012809D10821064800F005FACC
:1003B00020B94FF48071044800F00AFA082000F0D8
:1003C0001BF810BD00180140000C014010B51020B2
:1003D00000F018F8012808D11021064800F0EDF9C6
:1003E00018B92021034800F0F1F9102000F004F8BA
:1003F00010BD00000018014001490860704700006E
:1004000014040140014600200022074B1B6803EA48
:100410000102054B14331B680B4013B10AB10120D4
:1004200000E0002070470000000401400021234943
:100430008279002A3AD00A46126803689A430B462A
:100440001A600A1D126803689A430B1D1A6002792C
:1004500011440A6803681A430A60184A083212688D
:1004600003689A43154B08331A601A1D1268036813
:100470009A43124B0C331A604279102A0ED11A1F7C
:10048000126803681A430D4B08331A601A1D12686C
:1004900003681A43094B0C331A600DE0074942798F
:1004A00011440A6803681A430A6005E0027911449E
:1004B0000A6803689A430A6070470000000401401C
:1004C0001FB55F48D0F818115EA000F013FE172288
:1004D0005E495FA000F00EFE0121442000F026FAE4
:1004E0000121084600F022FA0120ADF80C00282076
:1004F0008DF80F0003A9594800F0D4F800210846F0
:1005000000F0B0F806208DF8080002208DF80900F0
:1005100003208DF80A0001208DF80B0002A800F0DE
:10052000B1F90120009000208DF8040008208DF81A
:10053000050001208DF806006846FFF777FF1020C0
:10054000ADF80C0048208DF80F0003A9444800F0D6
:10055000A9F80421084600F085F80A208DF8080063
:1005600002208DF8090000208DF80A0001208DF886
:100570000B0002A800F086F91020009000208DF8F2
:1005800004000C208DF8050001208DF80600684657
:10059000FFF74CFF0820ADF80C0048208DF80F0045
:1005A00003A92F4800F07EF80321042000F05AF838
:1005B00009208DF8080002208DF8090001208DF82F
:1005C0000A008DF80B0002A800F05CF908200090EA
:1005D00000208DF804000C208DF8050001208DF816
:1005E00006006846FFF722FF0420ADF80C00482003
:1005F0008DF80F0003A91A4800F054F802210420D6
:1006000000F030F808208DF8080002208DF809006D
:100610008DF80A0001208DF80B0002A800F032F9D5
:100620000420009000208DF804000C208DF80500B7
:1006300001208DF806006846FFF7F8FE1FBD000098
:10064000340000205B25735D3A000000F6130008BB
:1006500025732025640D0A0A0000000000080140EF
:100660000018014030B500228B071C0F0F2303FA3E
:1006700004F20B4B8C1053F824309343084C8D102C
:1006800044F8253023468C1053F824308C07240F6F
:1006900000FA04F42343024C8D1044F8253030BD99
:1006A000080001402DE9F041024600250026002007
:1006B00000230024002791F803C00CF00F0591F8E7
:1006C00003C00CF0100CBCF1000F03D091F802C075
:1006D0004CEA050591F800C0BCF1000F31D0146858
:1006E00000202BE04FF0010C0CFA00F3B1F800C031
:1006F0000CEA03069E4220D183004FF00F0C0CFA47
:1007000003F7BC4305FA03FC4CEA040491F803C068
:10071000BCF1280F06D14FF0010C0CFA00FCC2F816
:1007200014C00AE091F803C0BCF1480F05D14FF0A6
:10073000010C0CFA00FCC2F810C0401C0828D1D3F0
:100740001460B1F800C0BCF1FF0F34DD5468002024
:100750002EE000F1080C4FF0010808FA0CF3B1F894
:1007600000C00CEA03069E4221D183004FF00F0C1B
:100770000CFA03F7BC4305FA03FC4CEA040491F8B5
:1007800003C0BCF1280F05D100F1080C08FA0CF8E1
:10079000C2F8148091F803C0BCF1480F07D100F1F2
:1007A000080C4FF0010808FA0CF8C2F81080401C41
:1007B0000828CED35460BDE8F0810246002093683B
:1007C0000B400BB1012000E00020704741617047F1
:1007D0000161704700BFFEE708B51648D0F8A411C4
:1007E00015A000F087FC1422154916A000F082FC29
:1007F0000121482000F09AF82020ADF800001020D8
:100800008DF8030003208DF8020069461048FFF7B9
:1008100049FF2020ADF8000069460E48FFF742FF6F
:1008200020210B48FFF7D4FF20210A48FFF7D0FF13
:1008300008BD0000340000205B25735D3A00000015
:10084000C813000825732025640D0A0A0000000063
:1008500000180140000C014000BFFEE7704708B5DA
:100860004FF4A06000F046F825208DF8000001202C
:100870008DF801008DF802008DF80300684600F045
:1008800001F808BD70B5002100230F22C47804B31D
:10089000154C246804F4E064C4F5E064210AC1F155
:1008A0000403CA40447804FA03F1847814402143D5
:1008B00009010E4C0678A155047804F01F050124A7
:1008C000AC4005786D11AD0005F1E025C5F800419B
:1008D00009E0047804F01F050124AC40044D0678BB
:1008E000761145F8264070BD0CED00E000E400E014
:1008F00080E100E002490143024A116070470000B4
:100900000000FA050CED00E07047000029B1064A2E
:10091000D2690243044BDA6104E0034AD26982439C
:10092000014BDA61704700000010024029B1064A0D
:1009300092690243044B9A6104E0034A926982433C
:10094000014B9A61704700000010024030B5002151
:100950000022002400232D4D6D6805F00C0121B10B
:10096000042905D0082923D105E0294D056022E09E
:10097000274D05601FE0254D6D6805F47012234D6D
:100980006D6805F48034022505EB92421CB9214DB7
:10099000554305600BE01D4D6D6805F400351DB134
:1009A0001C4D5543056002E0194D5543056002E0BA
:1009B000174D056000BF00BF144D6D6805F0F001D4
:1009C0000909154D6B5C0568DD4045600F4D6D688C
:1009D00005F4E061090A104D6B5C4568DD408560F7
:1009E0000A4D6D6805F46051C90A0B4D6B5C456892
:1009F000DD40C560054D6D6805F44041890B074D2C
:100A00006B5CC568B5FBF3F5056130BD00100240B5
:100A100000127A0000093D0014000020240000208C
:100A2000704710B500F002F810BD00000CB50020B2
:100A3000019000903348006840F4803031490860EC
:100A400000BF3048006800F4003000900198401C5E
:100A50000190009818B90198B0F5A06FF1D129481C
:100A6000006800F4003010B10120009001E0002087
:100A700000900098012843D12348006840F01000FE
:100A8000214908600846006820F003000860084615
:100A9000006840F0020008601A4840681949486040
:100AA0000846406848600846406840F480604860F6
:100AB0000846406820F47C1048600846406840F4CE
:100AC000E81048600846006840F08070086000BF89
:100AD0000C48006800F000700028F9D00948406810
:100AE00020F00300074948600846406840F00200D3
:100AF000486000BF0348406800F00C000828F9D1A6
:100B00000CBD0000001002400020024030B501463C
:100B1000B1F1807F01D3012030BD21F07F40401E24
:100B20004FF0E022506150170F22002807DA130718
:100B30001D0E094B00F00F04241F1D5503E0130781
:100B40001C0E064B1C5400BF00204FF0E0229061A9
:100B5000072010610020DFE718ED00E000E400E06E
:100B600010B500F001F910BD10B50B48D0F88C108D
:100B70000AA000F0BFFA19220A490BA000F0BAFA45
:100B80000C4800680C49B0FBF1F42046FFF7BEFFAB
:100B900008B100BFFEE710BD340000205B25735D87
:100BA0003A000000E913000825732025640D0A0AA5
:100BB0000000000000000020A086010010B51348CE
:100BC000006840F00100114908600846406810497B
:100BD00008400E494860084600680E4908400B4925
:100BE00008600846006820F48020086008464068D5
:100BF00020F4FE0048604FF41F008860FFF711FFEB
:100C00004FF000600449086010BD00000010024071
:100C10000000FFF8FFFFF6FE08ED00E010B501212F
:100C2000064800F035F840B105480068401C04490A
:100C300008600121014800F01CF810BD00100040C0
:100C40002C00002010B50121064800F021F840B129
:100C500005480068401C044908600121014800F073
:100C600008F810BD0014004030000020CA43028282
:100C70007047CA430282704721B1028842F00102E4
:100C8000028004E002884FF6FE731A40028070472B
:100C900030B50246002000230024158A05EA01032E
:100CA000958905EA010413B10CB1012000E0002090
:100CB00030BD1AB183890B43838102E083898B4362
:100CC00083817047002202881D4B98420ED01D4B35
:100CD00098420BD0B0F1804F08D01B4B984205D002
:100CE0001A4B984202D01A4B984204D14FF68F7398
:100CF0001A404B881A43174B984207D0164B98421C
:100D000004D04FF6FF431A40CB881A4302808B88E9
:100D100083850B8803850A4B98420BD0094B984278
:100D200008D00E4B984205D00D4B984202D00D4B87
:100D3000984201D10B7A0386012383827047000019
:100D4000002C014000340140000400400008004035
:100D5000000C004000100040001400400040014022
:100D600000440140004801400448006820B10348A5
:100D70000068401E014908607047000028000020FC
:100D800010B540F22551064800F06DF838B104481E
:100D900000F024F9C4B22146014800F024F910BD46
:100DA0000038014021B1828942F40052828104E07E
:100DB00082894DF6FF731A408281704700B585B075
:100DC00001210420FFF7B2FD01218803FFF7AEFDEA
:100DD0004FF40070ADF8100018208DF813000320B8
:100DE0008DF8120004A91748FFF75CFC4FF48060EF
:100DF000ADF8100004208DF8130004A91148FFF786
:100E000051FC4FF4E13000900020ADF80400ADF843
:100E10000600ADF80800ADF80C000C20ADF80A0093
:100E20006946094800F06EF8FFF719FD012240F20B
:100E30002551054800F041F801210348FFF7B2FFB2
:100E400005B000BD00080140003801400246002006
:100E5000B1F5007F00D100BF13880B400BB101201A
:100E600000E00020704770B50246002400230025F2
:100E7000002040F66A16B14200D100BFC1F342150E
:100E800001F01F03012606FA03F3012D02D1968912
:100E9000334006E0022D02D1168A334001E0968AE3
:100EA00033400C12012606FA04F41688344013B1BC
:100EB0000CB1012000E0002070BDF0B50346002415
:100EC00000260025002040F66A17B94200D100BF75
:100ED0001846C1F3421401F01F06012707FA06F570
:100EE000012C01D10C3004E0022C01D1103000E0C3
:100EF00014301AB107682F43076002E00768AF4358
:100F00000760F0BD2DE9F04786B005460E46002487
:100F1000A24600BFA1460027B08900B100BF2F46FE
:100F20002C8A4CF6FF700440F08804432C82AC8974
:100F30004EF6F3100440B0883189084371890843A4
:100F40000443AC81AC8A4FF6FF400440B0890443AF
:100F5000AC8201A8FFF7FAFC1F48874202D1DDF8F6
:100F600010A001E0DDF80CA0A88900F4004040B119
:100F70000AEBCA0000EB0A1031684900B0FBF1F837
:100F800007E00AEBCA0000EB0A1031688900B0FBE9
:100F9000F1F86420B8FBF0F004012009642101FBA2
:100FA0001089A88900F4004040B1322000EBC9004C
:100FB000B0FBF1F000F00700044308E0322000EB42
:100FC00009106421B0FBF1F000F00F0004432C8104
:100FD00006B0BDE8F087000000380140014688886F
:100FE000C0F308007047C1F308028280704700BF59
:100FF000FEE700000020014908607047082C00400F
:1010000040F08001014A116070470000002C004050
:101010000120014908607047A480054210B57F2077
:1010200000F040F8FFF7E6FF10BD000008B51648D5
:10103000D0F8BC1215A000F05DF81922154916A0D1
:1010400000F058F80121C802FFF760FC5F2000F0B3
:101050003DF84FF4C07000F02DF800208DF800002E
:1010600002208DF8010003208DF8020001208DF888
:1010700003006846FFF706FC7F20FFF7C1FFFFF77C
:10108000B9FFFFF7C5FF08BD340000205B25735D85
:101090003A0000000614000825732025640D0A0A92
:1010A0000000000000F07F01014A1160704700005D
:1010B000002C00400021044A126822F4C071014350
:1010C000014A116070470000042C004008B500215F
:1010D00000910749096821F07F01009100F07F012C
:1010E000009A11430091024A0099116008BD000066
:1010F000042C00400FB4054B10B503A9044A029814
:1011000000F018F810BC5DF814FB0000ED120008A8
:101110007C03002002E008C8121F08C1002AFAD18F
:1011200070477047002001E001C1121F002AFBD167
:10113000704700002DE9FF4F8BB09A460F460546D9
:10114000002606E025280BD052460D9990476D1CCD
:10115000761C28780028F5D10FB03046BDE8F08F16
:101160000024A0460122604900E0044315F8013F35
:10117000203B02FA03F00842F7D128782E2817D135
:1011800015F8010F44F004042A280ED06FF02F0246
:101190002878A0F1300109290AD808EB880102EB70
:1011A000410100EB01086D1CF2E757F8048B6D1C40
:1011B000287869283ED006DC0028CDD063280BD0E3
:1011C000642804D136E0732810D075284BD05246DD
:1011D0000D999047761C85E017F8040B8DF80000F8
:1011E00000208DF80100E946012003E057F8049B38
:1011F0004FF0FF3061074FF0000401D40AE0641C97
:1012000044450DDA8442FADB19F804100029F6D1BE
:1012100006E0641C8442FCDB19F804100029F8D1B4
:10122000264404E019F8010B52460D999047641EBC
:10123000F8D257E001CF4FF00A0B002802DA404203
:101240002D2102E0210504D52B218DF82410012148
:1012500003E0E10705D02021F7E70DF1200908910F
:101260000CE00021F9E701CF4FF00A0BF9E75946EE
:10127000FEF77AFF01F1300209F8012D0028F6D1BE
:10128000ADEB090000F1200B600701D44FF001081D
:10129000D84502DDA8EB0B0000E0002080460024CA
:1012A00006E009A85246005D0D999047641C761C23
:1012B00008988442F5DB04E0302052460D999047AF
:1012C000761CB8F10001A8F10108F5DC05E019F879
:1012D000010B52460D999047761CBBF10001ABF112
:1012E000010BF4DC6D1C34E70928010070B50446DD
:1012F0000D46E1B20548FFF776FE00BF80210348A6
:10130000FFF7A4FD0028F9D0204670BD0038014049
:101310004FF4A060FFF7EEFAFFF750FDFFF75CFA1D
:10132000FEF7D6FFFFF7CCF8FFF71EFCFFF77EFEB7
:10133000FEF76DFF1A48D0F88C101AA0FFF7DAFEFE
:101340001AA0FFF7D7FE29E01B480068B0F57A7FA6
:1013500006D100201849086020211848FFF736FA06
:1013600015480068B0F5FA7F03D120211348FFF734
:101370002FFA13480068B0F57A7F06D10020104993
:10138000086020210F48FFF721FA0D480068B0F5EA
:10139000FA7F03D120210B48FFF71AFAD4E70000A7
:1013A000340000205B25735D3A0000005354415225
:1013B000542121210D0A0A002C000020000C0140BC
:1013C00030000020001801404C45445F4750494F11
:1013D0005F436F6E66696700424545505F475049FD
:1013E0004F5F436F6E666967005379735469636B2F
:1013F0005F496E697400455854495F4B65795F4396
:101400006F6E66696700575744475F496E6974009D
:10141000200000004858515F44454255475F4D4FFA
:1014200044554C455F4C45445F4C564C0000000011
:101430004858515F44454255475F4D4F44554C45D0
:101440005F575744475F4C564C0000004858515F67
:1014500044454255475F4D4F44554C455F535953A2
:1014600054454D5F4C564C004858515F44454255D9
:10147000475F4D4F44554C455F424545505F4C5684
:101480004C0000004858515F44454255475F4D4F5E
:1014900044554C455F4B45595F4C564C000000008D
:1014A000C01400080000002080030000B8010008FC
:1014B000F414000880030020000400002411000838
:1014C0001184A24A04680901020304060708090CF2
:1014D0006910C502040608131014B910017C0A89AA
:1014E0004C8C0A89848C0A89148C0A89688C0A8934
:0414F000308C4100FB
:0400000508000131BD
:00000001FF
