:020000040800F2
:1000000060B3002045010008C112000891110008EA
:10001000BD120008CD0A0008CB2700080000000030
:10002000000000000000000000000000F51A0008B9
:10003000410D000800000000CD1300087D1C0008E1
:10004000DD2700085F0100085F010008651800084F
:100050005F0100085F0100086D0D00085F010008E6
:100060009D0D0008C90D0008F90D00085F0100088A
:100070005F0100085F0100085F0100085F010008E0
:100080005F0100085F0100085F0100085F010008D0
:100090005F0100085F0100085F0100085F010008C0
:1000A0005F0100085F0100085F0100085F010008B0
:1000B0005F0100085F0100085F0100085F010008A0
:1000C0005F0100085F0100085F0100085F01000890
:1000D0005F0100085D2500085F0100085F0100085E
:1000E0005F0100085F0100085F0100085F01000870
:1000F0005F0100085F0100085F0100085F01000860
:100100005F0100085F010008491F00085F01000847
:100110005F0100085F01000821210008B5210008E7
:100120005F0100085F0100085F0100085F0100082F
:10013000DFF80CD000F018FB00480047153100082C
:1001400060B300200648804706480047FEE7FEE708
:10015000FEE7FEE7FEE7FEE7FEE7FEE7FEE7FEE777
:10016000A91C0008310100082DE9FE4F804681EAF4
:100170000300C00F0C46009021F0004123F0004521
:10018000B8EB0200A94105D24046214690461C46E4
:100190000B46024623F00040104347D0270DC7F31B
:1001A0000A00C3F30A510290401A019040286BDA0A
:1001B000C3F3130040F4801B0098924620B1002343
:1001C000D2EB030A63EB0B0B01985946C0F14002D6
:1001D000504600F0D4F906460D4650465946019A5D
:1001E00000F0ECF910EB08006141002487EA11529D
:1001F00084EAE7731A4340D0009A62B3019A012A55
:100200004FEA075215DC001B61EB02014FF0004280
:1002100002EA0752CDE90042001C41F58011324646
:100220002B4600F023FA03B0BDE8F08F404621468C
:10023000F9E7001B61EB0201001C41F58013001877
:100240005B412018A2F5001747EB030140EAD57087
:10025000B6196D4111E06D084FEA360645EAC075E2
:100260004FEA0752001B61EB0201001C41F58011AF
:1002700049084FEA30000019514132462B4603B07D
:10028000BDE8F04F00F0E3B90098012240000023E0
:10029000D0EB020263EBE073009821464FEAE07472
:1002A000B8EB000061EB0401E9E783F000435BE792
:1002B00081F0004158E72DE9FE4F81EA030404F084
:1002C000004421F0004100944FF0000B23F0004364
:1002D00050EA01045ED052EA03045BD0C3F30A542F
:1002E000C1F30A552C44A4F2F3340194A0FB025448
:1002F000C1F3130141F48011C3F3130343F48013DA
:1003000001FB024400FB034E840A970A44EA81542D
:1003100047EA8357A4FB076802958D0A05FB07850A
:100320004FEA932C04FB0C542705029D4FEA065814
:1003300047EA1637B5EB08056EEB070C870E920EF1
:1003400047EA811742EA8312A7FB0201B6EB0B01D1
:1003500064EB00042B0D43EA0C335E1844EB1C5095
:10036000DA465146E7FB0201C5F313044FEA0B33AB
:1003700043EA14534FEA0432019C43EA0603A4F112
:100380000C040294009CCDE900B400F06FF903B0B6
:10039000BDE8F08F00200146F9E72DE9F04D81EA34
:1003A000030404F0004B21F0004514464FF0000A0E
:1003B00023F0004150EA050220D054EA01021DD08A
:1003C000C5F30A570246C5F31303C1F31300C1F383
:1003D0000A5640F4801543F48013A7EB0608101B5F
:1003E000D64608F2FD3873EB050002D308F1010888
:1003F00001E092185B41B8F1000F03DA00200146DA
:10040000BDE8F08D00204FF48011064684460EE0D2
:10041000171B73EB050705D3121B63EB050306439C
:100420004CEA010C49084FEA300092185B4150EA4F
:100430000107EDD152EA030012D082EA040083EAF8
:100440000501084305D0101BAB4106D20122002351
:1004500006E000224FF0004302E06FF0010253106B
:100460001AEB06004CEB085110EB0A0041EB0B01B4
:10047000BDE8F04D00F0EBB80EB540F2334102910B
:100480000021CDE900110A460B4600F0EFF803B059
:1004900000BD00F0004230F000400AD0C10D01F56F
:1004A0006071C0F3160042EA0151C20840071143CF
:1004B000704700200146704701F0004330B421F03E
:1004C000004150EA010206D00A0DA2F56072C1F3A4
:1004D0001301002A02DC30BC00207047440F44EABC
:1004E000C104C100E01830BC00EBC25000F078B885
:1004F00030B50B46014600202022012409E021FAF4
:1005000002F59D4205D303FA02F5491B04FA02F5F0
:100510002844151EA2F10102F1DC30BD2DE9F05F87
:100520000546002092469B46884606468146402462
:100530001BE0284641464746224600F02FF8534626
:100540005A46C01A914110D311461846224600F06F
:1005500016F82D1A67EB01084F46224601200021AC
:1005600000F00DF817EB00094E41201EA4F1010424
:10057000DFDC484631462A464346BDE8F09F202A44
:1005800004DB203A00FA02F1002070479140C2F1EA
:10059000200320FA03F3194390407047202A04DB1C
:1005A000203A21FA02F00021704721FA02F3D040EC
:1005B000C2F120029140084319467047202A06DB09
:1005C000CB17203A41FA02F043EAE07306E041FA21
:1005D00002F3D040C2F1200291400843194670470F
:1005E0000029A8BF7047401C490008BF20F0010047
:1005F000704710B4B0FA80FC00FA0CF050EA010425
:1006000004BF10BC704749B1CCF1200421FA04F4B6
:1006100011FA0CF118BF012121430843A3EB0C018F
:10062000CB1D4FEA00614FEA102042BF002010BCF2
:10063000704700EBC35010440029A4BF10BC7047A2
:10064000401C490008BF20F0010010BC704710B5E5
:10065000141E73F1000408DA401C41F100019218E5
:100660005B411A4301D120F0010010BD2DE9F04D8E
:1006700092469B4611B1B1FA81F202E0B0FA80F2E3
:1006800020329046FFF77BFF04460F4640EA0A00FF
:1006900041EA0B0153465A46084313D0114653EA28
:1006A000010019D0C8F140025046FFF777FF054618
:1006B0000E46504659464246FFF761FF084305D0B3
:1006C000012004E020463946BDE8F08D00200543B6
:1006D00046EAE0762C4337430A986305E40AA0EB28
:1006E00008000022FD0A44EA47540A3002D50020DF
:1006F0000146E9E7010510196941DDE908450019DE
:100700006941BDE8F04DA2E7C1F30A52C1F31301FC
:1007100040F2FF3341F480119A4202DA0020014690
:10072000704740F233439A42A2F2334202DC524213
:10073000FFF734BFFFF723BF30B5041E71F100048B
:1007400004DB4FF00044404264EB0101141E73F1DE
:10075000000405DB1C464FF00043524263EB0403E8
:10076000994208BF904230BD064C074D06E0E06854
:1007700040F0010394E8070098471034AC42F6D3E8
:10078000FFF7DAFCF03400081035000870B58C185B
:1007900010F8015B15F0070301D110F8013B2A1195
:1007A00006D110F8012B03E010F8016B01F8016B82
:1007B0005B1EF9D12B0705D40023521E0DD401F87E
:1007C000013BFAE710F8013BCB1A921C03E013F847
:1007D000015B01F8015B521EF9D5A142D8D300207C
:1007E00070BD000000B587B0012140F2044000F068
:1007F0000BFE4FF4004000F0EBFD0220ADF81800B6
:1008000000208DF81B0003208DF81A0006A9184857
:1008100000F026FC002001908DF808008DF80900FA
:100820004FF4602003900020049001208DF8140004
:1008300001A9104800F06EF801210E4800F01CF8E4
:100840000C4800F08FF800BF0A4800F059F8002863
:10085000FAD1084800F096F800BF064800F046F8C4
:100860000028FAD10121034800F081F807B000BD4B
:10087000000801400028014021B1826842F00102D5
:10088000826003E0826822F001028260704700000B
:1008900010B504461248844208D10121401500F0E9
:1008A000C3FD0021601500F0BFFD17E00D48844234
:1008B00008D10121001500F0B7FD0021201500F03E
:1008C000B3FD0BE00848844208D10121C80300F0C1
:1008D000ABFD00214FF4004000F0A6FD10BD00006C
:1008E0000024014000280140003C01400146002056
:1008F0008A6802F004020AB1012000E0002070477B
:10090000014600208A6802F008020AB1012000E0D6
:100910000020704730B502460020002350680F4C7D
:1009200020400D790C6844EA05242043506090680B
:100930000B4C2040D1E902542C434D7944EA450444
:1009400020439060D06A20F470000C7C641EE4B2F6
:10095000234340EA0350D06230BD0000FFFEF0FFA9
:10096000FDF7F1FF816841F008018160704721B116
:10097000826842F4A002826003E0826822F4A0024E
:1009800082607047816841F0040181607047000017
:1009900030B10749096841F40001054A116005E0DA
:1009A0000349096821F40001014A11607047000001
:1009B0000824014000B585B00121480200F024FD63
:1009C0004FF4004000F004FD0120FFF7E1FF00209C
:1009D00000908DF804008DF805004FF4602002901F
:1009E0000020039001208DF8100069460F48FFF7A2
:1009F00091FF01210D48FFF73FFF0C48FFF7B2FFC1
:100A000000BF0A48FFF77CFF0028FAD10748FFF72C
:100A1000B9FF00BF0548FFF769FF0028FAD101219F
:100A20000248FFF7A4FF05B000BD0000002401400C
:100A300010B50121102000F0D7FC01F08FFB01213F
:100A4000202000F0D1FC01F043FC10BD08B50121CD
:100A5000082000F0D9FC4FF48070ADF800001020A1
:100A60008DF8030003208DF802006946044800F069
:100A7000F7FA4FF48071024800F086FB08BD0000D1
:100A8000000C014010B5012000F0DEFC002000F059
:100A9000DBFC10BD08B50146002000900348009023
:100AA0000098084400900098008808BD006C004041
:100AB00008B500220092044A0092009A0244009273
:100AC000009A116008BD0000006C004000BFFEE706
:100AD00010B5002400F06AF804E0601CC4B20120E4
:100AE00001F0A8F84FF400610F4800F044FB08B192
:100AF000C82CF2DBC82C01DB012010BD002404E06F
:100B0000601CC4B2012001F095F84FF40061064862
:100B100000F031FB08B9F02CF2DBF02C01DB0120F6
:100B2000EBE70020E9E70000002001402DE9F05F3D
:100B300000F0C8F800F0AEF8FFF7CAFFCC2000F0D4
:100B4000CDF8BE2000F0CAF800F092F8834600F01D
:100B50008FF8824654460BEB042084B204F47840AC
:100B6000B0F5784F0FD1E043401C84B22046FFF728
:100B700083FC074600220B4BFFF79DFB0546FFF762
:100B80009BFC81460BE02046FFF776FC05460022E1
:100B9000054BFFF790FB0746FFF78EFC8146484662
:100BA000BDE8F09F0000B0BF0000B03F08B54FF4B3
:100BB0000060ADF8000048208DF803006946024847
:100BC00000F04EFA08BD00000020014008B54FF4C7
:100BD0000060ADF8000003208DF8020010208DF8B1
:100BE00003006946014800F03BFA08BD00200140BF
:100BF00008B50121080200F007FC4FF40060ADF8D1
:100C0000000003208DF8020010208DF803006946D3
:100C1000034800F025FA00F03DF8FFF759FF08BD42
:100C20000020014010B5FFF7D1FF4FF400610F48DD
:100C300000F0AAFA022000F0FDFF4FF400610B481B
:100C400000F0A4FAFFF7B2FF0C2000F0F3FF4FF41E
:100C50000061064800F08FFA08B1012400E000248A
:100C6000322000F0E7FF204610BD000000200140C8
:100C700070B50026012508E0FFF7D4FF0446E00127
:100C800040EA6600C6B2681CC5B2082DF4DD3046E5
:100C900070BD000010B5FFF799FF4FF400610848E0
:100CA00000F072FA40F2EE2000F0C4FF4FF4006151
:100CB000034800F06BFA0F2000F0BCFF10BD0000ED
:100CC0000020014010B5FFF7E5FFFFF701FFCC2042
:100CD00000F004F8442000F001F810BD70B504469F
:100CE000FFF774FF012526E004F00106641086B1C9
:100CF0004FF40061114800F047FA022000F09AFF1B
:100D00004FF400610D4800F041FA3C2000F092FFE2
:100D10000FE04FF40061094800F036FA3C2000F083
:100D200089FF4FF40061054800F030FA022000F01E
:100D300081FF681CC5B2082DD6DD70BD00200140C2
:100D40007047000001B50849009808604FF0E020A6
:100D5000006940F001004FF0E021086100BF024847
:100D600000680028FBD108BD2800002010B5012034
:100D700000F05EF8012809D10121064800F0FBF9D6
:100D8000012803D10102044800F0FEF9012000F01F
:100D900049F810BD00080140000C014010B50420C6
:100DA00000F046F8012808D10421064800F0E3F9D4
:100DB00018B92021034800F0E9F9042000F032F8C6
:100DC00010BD00000018014010B5082000F030F8F8
:100DD000012809D10821064800F0CDF920B94FF4C7
:100DE0008071044800F0D2F9082000F01BF810BD13
:100DF00000180140000C014010B5102000F018F858
:100E0000012808D11021064800F0B5F918B92021B1
:100E1000034800F0B9F9102000F004F810BD0000FC
:100E200000180140014908607047000014040140A7
:100E3000014600200022074B1B6803EA0102054B14
:100E400014331B680B4013B10AB1012000E00020ED
:100E50007047000000040140002123498279002AE4
:100E60003AD00A46126803689A430B461A600A1D74
:100E7000126803689A430B1D1A60027911440A68CC
:100E800003681A430A60184A0832126803689A43D2
:100E9000154B08331A601A1D126803689A43124BE7
:100EA0000C331A604279102A0ED11A1F1268036897
:100EB0001A430D4B08331A601A1D126803681A434F
:100EC000094B0C331A600DE00749427911440A6856
:100ED00003681A430A6005E0027911440A6803684E
:100EE0009A430A6070470000000401401FB50121C9
:100EF000442000F089FA0121084600F085FA10200C
:100F0000ADF80C0048208DF80F0003A93C4800F014
:100F1000A7F80421084600F083F80A208DF808009D
:100F200002208DF8090000208DF80A0001208DF8BC
:100F30000B0002A800F0D8F91020009000208DF8D6
:100F400004000C208DF8050001208DF8060068468D
:100F5000FFF782FF0820ADF80C0048208DF80F0045
:100F600003A9274800F07CF80321042000F058F87A
:100F700009208DF8080002208DF8090001208DF865
:100F80000A008DF80B0002A800F0AEF908200090CE
:100F900000208DF804000C208DF8050001208DF84C
:100FA00006006846FFF758FF0420ADF80C00482003
:100FB0008DF80F0003A9124800F052F80221042016
:100FC00000F02EF808208DF8080002208DF80900A6
:100FD0008DF80A0001208DF80B0002A800F084F9BA
:100FE0000420009000208DF804000C208DF80500EE
:100FF00001208DF806006846FFF72EFF1FBD000098
:101000000018014010B50121080700F0EDF901209A
:1010100000F0B2F9012000F0D3F900F0B7F910BDEB
:1010200030B500228B071C0F0F2303FA04F20B4B81
:101030008C1053F824309343084C8D1044F825301D
:1010400023468C1053F824308C07240F00FA04F444
:101050002343024C8D1044F8253030BD0800014078
:101060002DE9F0410246002500260020002300243F
:10107000002791F803C00CF00F0591F803C00CF0A5
:10108000100CBCF1000F03D091F802C04CEA05052A
:1010900091F800C0BCF1000F31D0146800202BE0A3
:1010A0004FF0010C0CFA00F3B1F800C00CEA030693
:1010B0009E4220D183004FF00F0C0CFA03F7BC4383
:1010C00005FA03FC4CEA040491F803C0BCF1280FB4
:1010D00006D14FF0010C0CFA00FCC2F814C00AE073
:1010E00091F803C0BCF1480F05D14FF0010C0CFA88
:1010F00000FCC2F810C0401C0828D1D31460B1F81D
:1011000000C0BCF1FF0F34DD546800202EE000F178
:10111000080C4FF0010808FA0CF3B1F800C00CEA13
:1011200003069E4221D183004FF00F0C0CFA03F707
:10113000BC4305FA03FC4CEA040491F803C0BCF17B
:10114000280F05D100F1080C08FA0CF8C2F8148039
:1011500091F803C0BCF1480F07D100F1080C4FF023
:10116000010808FA0CF8C2F81080401C0828CED3F9
:101170005460BDE8F0810246002093680B400BB13B
:10118000012000E000207047416170470161704715
:1011900000BFFEE70146CA1701EB92729210A1EB65
:1011A000820292B9642091FBF0F200FB121050B958
:1011B0004FF4C87091FBF0F200FB121008B9012047
:1011C00070470020FCE70120FAE70020F8E7000064
:1011D00008B50121482000F017F92020ADF80000E3
:1011E00010208DF8030003208DF80200694609489D
:1011F000FFF736FF2020ADF8000069460648FFF7EC
:101200002FFF20210348FFF7C1FF20210248FFF7ED
:10121000BDFF08BD00180140000C014000B587B0BB
:101220000121802000F0F0F80121C80300F0ECF863
:101230000121C80300F0F8F800214FF4004000F04D
:10124000F3F84FF48070ADF8180000208DF81B0003
:1012500006A91848FFF704FF1748FFF719FB0020FD
:1012600001908DF808008DF809004FF4602003907C
:101270000020049001208DF8140001A90E48FFF70A
:1012800049FB01210C48FFF7F7FA0B48FFF76AFB0F
:1012900000BF0948FFF734FB0028FAD10648FFF7E2
:1012A00071FB00BF0448FFF721FB0028FAD107B00B
:1012B00000BD0000001C0140003C014000BFFEE7F3
:1012C000704708B54FF4A06000F046F825208DF86F
:1012D000000001208DF801008DF802008DF8030058
:1012E000684600F001F808BD70B5002100230F2208
:1012F000C47804B3154C246804F4E064C4F5E064D5
:10130000210AC1F10403CA40447804FA03F1847845
:101310001440214309010E4C0678A155047804F0CD
:101320001F050124AC4005786D11AD0005F1E025E5
:10133000C5F8004109E0047804F01F050124AC4021
:10134000044D0678761145F8264070BD0CED00E09E
:1013500000E400E080E100E002490143024A11603C
:10136000704700000000FA050CED00E0014908623A
:101370007047000000000E420349096841EA8001FD
:10138000014A116070470000007000400A48006880
:1013900040F00400084908600846006840F0020078
:1013A00008600648006840F004000449086000BF77
:1013B00000BF30BF704700000070004010ED00E03B
:1013C0000149086070470000A0000E42704700000D
:1013D00001460020034A506820F440400843506012
:1013E000704700000010024029B1064AD26902434A
:1013F000044BDA6104E0034AD2698243014BDA61AB
:10140000704700000010024029B1064A9269024369
:10141000044B9A6104E0034A92698243014B9A614A
:10142000704700000010024029B1064AD26802430A
:10143000044BDA6004E0034AD2688243014BDA606D
:10144000704700000010024001490860704700002A
:101450004004424230B500210022002400232D4DDB
:101460006D6805F00C0121B1042905D0082923D1AC
:1014700005E0294D056022E0274D05601FE0254D60
:101480006D6805F47012234D6D6805F480340225F3
:1014900005EB92421CB9214D554305600BE01D4DF3
:1014A0006D6805F400351DB11C4D5543056002E023
:1014B000194D5543056002E0174D056000BF00BFA0
:1014C000144D6D6805F0F0010909154D6B5C056858
:1014D000DD4045600F4D6D6805F4E061090A104D6F
:1014E0006B5C4568DD4085600A4D6D6805F46051B0
:1014F000C90A0B4D6B5C4568DD40C560054D6D68E4
:1015000005F44041890B074D6B5CC568B5FBF3F5ED
:10151000056130BD0010024000127A0000093D0054
:10152000140000202400002010B5014600220023F2
:1015300000204A11012A02D1094C236806E0022A40
:1015400002D1074C236A01E0054C636A01F01F02D7
:10155000012494401C400CB1012000E0002010BD8B
:101560000010024000210B4A11700A4A203A82F80A
:101570002010012802D0042808D103E00121054AE7
:10158000117004E00521034A117000E000BF00BFA4
:1015900070470000201002400149086070470000B9
:1015A0003C0442420249096A0143014A1162704700
:1015B000001002402DE9F05F06460F46904699461E
:1015C000DDE90AAB002440F2B270864203DB40F64C
:1015D0003300864202DD0120BDE8F09F40F2B27583
:1015E0000AE02846FFF7D6FD10B12048044401E088
:1015F0001F480444681C85B2B542F2DB781EC7B2AE
:10160000002510E01B48405D40F2A321484304EB55
:10161000C0143046FFF7BEFD18B1012D01D11648A8
:101620000444681C85B2BD42ECDBA8F1010040F225
:10163000A321484304EBC014C9EB4910C0EB0920B7
:1016400004EB0014CAEB0A1004EB80045C44012193
:101650004FF0C050FFF7C8FE0120FFF787FE20467D
:1016600000F000FA00F02AFA0020B5E70085E20158
:101670008033E101E8330008805101000249098804
:101680008143014A118070470428004003480088C4
:1016900040F0100001490880704700000428004015
:1016A000034800884FF6EF710840014908807047F1
:1016B0000428004070B500260024002500F07AF8C8
:1016C00006463848B6FBF0F437480088A0423CD0C4
:1016D00035490C8040F2B27510E02846FFF75AFDFC
:1016E00040B1B4F5B77F02D3A4F5B77404E0681C29
:1016F00085B206E0A4F26D14681C85B2B4F5B67F1D
:10170000EBD800BF29488580002516E02749888846
:10171000FFF740FD30B1012D04D11D2C01D31D3C3C
:1017200009E00CE02248405DA04203D82048405D1B
:10173000241A00E003E0681C85B21C2CE6D200BF2E
:10174000681C1A498871601CC8711648B6FBF0F114
:1017500000FB11644FF46160B4FBF0F013490870B2
:101760004FF46160B4FBF0F100FB11403C21B0FB91
:10177000F1F00E4948704FF46160B4FBF0F100FBEA
:1017800011403C21B0FBF1F201FB120007498870C7
:101790000B46DA799979988800F028F8034908729D
:1017A000002070BD80510100420000205005002043
:1017B000E8330008002103480188001F008841EA3F
:1017C000004070471C28004001460020064A12884D
:1017D0000A40D0B2044A121F12880A4012B108B15E
:1017E000012000E00020704704280040F0B50346C7
:1017F0000C461546642093FBF0F0C6B2642093FBC0
:10180000F0F700FB1730C1B2132E02DD01F16400C6
:10181000C1B20846CF1701EB977701EBA707BAB221
:10182000072092FBF0F700FB172082B25719601EC9
:10183000DFF82CC01CF80000384482B2CF1701EB4F
:101840009777BF10A1EB87071FB9032C01DA501E51
:1018500082B2072092FBF0F700FB1720C0B2F0BD68
:10186000DC33000810B50120FFF7AEFF08B1FFF729
:1018700021FF0220FFF7A8FF20B10220FFF7FEFEA4
:10188000FFF718FF0520FFF7F9FE00F017F910BD6C
:1018900029B1064A12880243044B1A8004E0034A25
:1018A00012888243014B1A807047000000280040D4
:1018B0001CB5002401214FF0C050FFF795FD012019
:1018C000FFF754FD0420FFF7E5F84AF2A001884233
:1018D00041D0FFF7D7F80120FFF744FE05E0601C78
:1018E000C4B242F21070FFF72DFA4120FFF71CFE40
:1018F00008B9FA2CF3DBFA2C01DB01201CBD4FF4F4
:101900008070FFF74FFE0120FFF746FE00F0D6F88B
:1019100000F0DEF801210846FFF7BAFF00F0CEF82C
:10192000FFF7B4FE47F6FF7000F0B8F800F0C6F815
:101930003720222111230122CDE900100B2140F292
:10194000E37000F02BF8FFF7ABFE4AF2A001042091
:10195000FFF7AEF80BE000F0BBF801210846FFF7F7
:1019600097FF01210220FFF793FF00F0A7F800F096
:1019700004F8FFF79FFE0020C0E708B503208DF8AC
:10198000000000208DF801008DF8020001208DF884
:1019900003006846FFF7A8FC08BD00002DE9F05FD2
:1019A00006460F4690469946DDE90AAB002440F210
:1019B000B270864203DB40F63300864202DD01202E
:1019C000BDE8F09F40F2B2750AE02846FFF7E2FB5F
:1019D00010B12048044401E01F480444681C85B24B
:1019E000B542F2DB781EC7B2002510E01B48405D0F
:1019F00040F2A321484304EBC0143046FFF7CAFB72
:101A000018B1012D01D116480444681C85B2BD42AD
:101A1000ECDBA8F1010040F2A321484304EBC01421
:101A2000C9EB4910C0EB092004EB0014CAEB0A1003
:101A300004EB80045C4401214FF0C050FFF7D4FC5C
:101A40000120FFF793FC204600F01AF800F036F86A
:101A50000020B5E70085E2018033E101E8330008AA
:101A60008051010000B50246FFF710FE100C03493B
:101A70000880091D0A80FFF713FE00BD20280040E2
:101A800000B50246FFF702FE100C03490880091D4D
:101A90000A80FFF705FE00BD1828004000B5024689
:101AA000FFF7F4FDC2F3034003490880091D0A80D3
:101AB000FFF7F6FD00BD00000828004000BF034806
:101AC000008800F020000028F9D07047042800406A
:101AD000074800884FF6F77108400549088000BFA5
:101AE0000348008800F008000028F9D07047000083
:101AF00004280040704710B500F002F810BD000047
:101B00000CB50020019000903348006840F480300C
:101B10003149086000BF3048006800F40030009090
:101B20000198401C0190009818B90198B0F5A06F79
:101B3000F1D12948006800F4003010B10120009074
:101B400001E0002000900098012843D1234800685C
:101B500040F01000214908600846006820F00300AA
:101B600008600846006840F0020008601A484068B3
:101B7000194948600846406848600846406840F493
:101B8000806048600846406820F47C104860084641
:101B9000406840F4E81048600846006840F08070F3
:101BA000086000BF0C48006800F000700028F9D001
:101BB0000948406820F0030007494860084640682B
:101BC00040F00200486000BF0348406800F00C008D
:101BD0000828F9D10CBD000000100240002002408E
:101BE00030B50146B1F1807F01D3012030BD21F035
:101BF0007F40401E4FF0E022506150170F22002816
:101C000007DA13071D0E094B00F00F04241F1D55A2
:101C100003E013071C0E064B1C5400BF00204FF0BE
:101C2000E0229061072010610020DFE718ED00E05E
:101C300000E400E031B50F4800680F49B0FBF1F552
:101C40002846FFF7CDFF002408E000BF4FF0E0205A
:101C5000006900F480300028F8D0641C00988442A9
:101C6000F3D34FF0E020006920F001004FF0E021B5
:101C7000086138BD0000002040420F0010B500F0A0
:101C800061FC10BD10B5064800680649B0FBF1F4D0
:101C90002046FFF7A5FF08B100BFFEE710BD00001A
:101CA0000000002040420F0010B51348006840F0CB
:101CB00001001149086008464068104908400E4973
:101CC0004860084600680E4908400B49086008460D
:101CD000006820F4802008600846406820F4FE0078
:101CE00048604FF41F008860FFF705FF4FF0006069
:101CF0000449086010BD0000001002400000FFF819
:101D0000FFFFF6FE08ED00E0F0B50C461546002298
:101D10000021068C4FF6FE773E400684028B018C34
:101D20004FF60C7632407E1C06EA03162E433243F1
:101D3000104EB0420ED0104EB0420BD0B0F1804FDA
:101D400008D00E4EB04205D00D4EB04202D00D4E1E
:101D5000B04206D14FF6FD76314044F001063143E2
:101D600005E04FF6F576314044F001063143028339
:101D70000184F0BD002C014000340140000400400B
:101D800000080040000C0040F0B50C46154600224B
:101D900000210026078C4FF6EF7C07EA0C0707842A
:101DA000028B018C4FF6FF7707EA041640F6FF47D7
:101DB0003A404FF6FF7707EA03373A434FF6FF778B
:101DC00007EA05273A43114FB8420ED0104FB842E8
:101DD0000BD0B0F1804F08D00E4FB84205D00E4F57
:101DE000B84202D00D4FB84206D14FF6DF773940E6
:101DF00046F01007394305E04FF65F77394044F06D
:101E00001007394302830184F0BD0000002C01401B
:101E1000003401400004004000080040000C004075
:101E2000F0B50C461546002200210026078C4FF61F
:101E3000FF6C07EA0C070784828B018C4FF6FF7753
:101E400007EA04264FF60C773A404FF6FF7707EA89
:101E500003172F433A43114FB8420ED0104FB842E8
:101E60000BD0B0F1804F08D00E4FB84205D00E4FC6
:101E7000B84202D00D4FB84206D14FF6FF57394055
:101E800046F48077394305E04FF2FF57394044F478
:101E90008077394382830184F0BD0000002C01402B
:101EA000003401400004004000080040000C0040E5
:101EB000F0B50C461546002200210026078C4EF690
:101EC000FF7C07EA0C070784828B018C4FF6FF77B3
:101ED00007EA043640F6FF473A404FF6FF7707EA35
:101EE00005273A434FF6FF7707EA03373A43114F86
:101EF000B8420ED0104FB8420BD0B0F1804F08D08E
:101F00000E4FB84205D00E4FB84202D00D4FB84226
:101F100006D14DF6FF77394046F48057394305E046
:101F200047F6FF57394044F4805739438283018490
:101F3000F0BD0000002C01400034014000040040CE
:101F400000080040000C00402DE9F041304D012117
:101F5000304800F0FEF940B12F488088401C2E49DF
:101F6000888001212B4800F0E2F90221294800F085
:101F7000F0F9002849D02848407878B90021254850
:101F800000F060FA0020244988804880022121481E
:101F900000F04FFA0120204948700DE01D4800F084
:101FA000D5F91D49488000211A4800F042FA002066
:101FB00019494870012008700221164800F0B7F94D
:101FC00015480078012820D113484088401C124948
:101FD000898800EB01441048428881880FA000F0F6
:101FE0000DFCB4FBF5F005FB1046B4FBF5F73246EB
:101FF000394614A000F002FCB4FBF5F0032801D22E
:10200000FFF700F8002004490870BDE8F0810000E7
:1020100040420F00000C0040340000204361707407
:102020007572655F506572696F643A25642043611B
:1020300070747572655F43637256616C75653A259D
:10204000640D0A000D0AB2E2B5C3B8DFB5E7C6BD3C
:10205000C2F6BFEDCAB1BCE4A3BA25642E25642044
:10206000730D0A0000B589B001210420FFF7CCF9F7
:102070000120ADF8200028208DF8230008A926486B
:10208000FEF7EEFF4FF4E060FFF766F932208DF8BF
:102090001C0000208DF81D0003208DF81E0001207B
:1020A0008DF81F0007A8FFF71FF901210820FFF78F
:1020B0009BF94FF6FF70ADF814004720ADF8100003
:1020C0000020ADF81600ADF812008DF8180004A934
:1020D000124800F0E5F90020ADF80400ADF8060064
:1020E0000120ADF808000020ADF80A00ADF80C00A2
:1020F00001A90A4800F03EF90321084800F014F94C
:1021000001220321054800F08BF90121034800F06A
:1021100011F909B000BD000000080140000C0040AA
:1021200010B501210B4800F014F940B10A480068CD
:10213000401C094908600121064800F0F8F80648EB
:102140000068B0F57A7F02D1002003490860024898
:10215000006810BD001000402C0000201FB5362084
:102160008DF80C0000208DF80D0003208DF80E0076
:1021700001208DF80F0003A8FFF7B6F840F2E73012
:10218000ADF804004720ADF800006946084800F0AB
:1021900087F90121064800F0C7F8012211460448DA
:1021A00000F03EF90121024800F0C4F81FBD000014
:1021B0000010004070B501212E4800F0CAF840B16F
:1021C0002D480068401C2C4908600121294800F076
:1021D000AEF829480068B0F57A7F37D1002026494B
:1021E00008602648D0F8601425A000F007FBFEF731
:1021F0009DFC0646FEF74DF9044622460B4622A0FA
:1022000000F0FCFA002001F099F80446214623A0D2
:1022100000F0F4FA012001F091F80446214622A0D2
:1022200000F0ECFA234801682348007801F0B0F888
:1022300000202049086020480078401C1E49087092
:1022400008460078012801DD002008700A4800686F
:10225000B0F5FA7F0DD14FF400611748007801F016
:10226000A9F8144908600846006810B113A000F0EE
:10227000C5FA70BD0014004030000020440000206A
:102280005B25735D3A00000074656D7065723A25D8
:102290002E3266A1E3430D0A0A0000005352414D5D
:1022A000494E3A25640D0A005352414D45583A258E
:1022B000640D0A003C00002040000020324BC4DACC
:1022C000B4E6C9EAC7EBB3C9B9A6A3A10D0A0000D9
:1022D0001FB537208DF80C0000208DF80D0004206C
:1022E0008DF80E0001208DF80F0003A8FEF7FCFF0B
:1022F00040F2E730ADF804004720ADF80000694631
:10230000084800F0CDF80121064800F00DF8012240
:102310001146044800F084F80121024800F00AF850
:102320001FBD000000140040CA4302827047CA4328
:102330000282704721B1028842F00102028004E06B
:1023400002884FF6FE731A40028070470146888E5D
:10235000704730B50246002000230024158A05EAA4
:102360000103958905EA010413B10CB1012000E0D5
:10237000002030BD70B505460C46244885420ED07D
:10238000234885420BD0B5F1804F08D021488542C3
:1023900005D02148854202D02048854200D100E086
:1023A00000BF208850B92389A28861882846FFF79A
:1023B000ABFCE188284600F047F825E02088042897
:1023C0000AD12389A28861882846FFF7DDFCE188CD
:1023D000284600F042F817E0208808280AD123890F
:1023E000A28861882846FFF71BFDE188284600F097
:1023F00041F809E02389A28861882846FFF758FD43
:10240000E188284600F03FF870BD0000002C014034
:10241000003401400004004000080040000C00406F
:102420001AB183890B43838102E083898B438381C3
:1024300070470A460021018C4FF6FD731940114385
:102440000184704781847047028B4FF6F3731A4002
:102450000283028B0A4302837047028B4FF2FF33E1
:102460001A400283028B4FF6FF7303EA01231A43DB
:1024700002837047828B4FF6F3731A408283828BFC
:102480000A4382837047828B4FF2FF331A40828364
:10249000828B4FF6FF7303EA01231A43828370474E
:1024A000002202881D4B98420ED01D4B98420BD043
:1024B000B0F1804F08D01B4B984205D01A4B984280
:1024C00002D01A4B984204D14FF68F731A404B88B2
:1024D0001A43174B984207D0164B984204D04FF638
:1024E000FF431A40CB881A4302808B8883850B8870
:1024F00003850A4B98420BD0094B984208D00E4BEB
:10250000984205D00D4B984202D00D4B984201D114
:102510000B7A03860123838270470000002C014060
:10252000003401400004004000080040000C00405E
:1025300000100040001400400040014000440140F1
:10254000004801400448006820B103480068401E6C
:1025500001490860704700002800002010B540F2D3
:102560002551064800F06DF838B1044800F024F910
:10257000C4B22146014800F024F910BD00380140E2
:1025800021B1828942F40052828104E082894DF6B1
:10259000FF731A408281704700B585B00121042085
:1025A000FEF732FF01218803FEF72EFF4FF4007083
:1025B000ADF8100018208DF8130003208DF81200DC
:1025C00004A91748FEF74CFD4FF48060ADF81000E9
:1025D00004208DF8130004A91148FEF741FD4FF4C3
:1025E000E13000900020ADF80400ADF80600ADF831
:1025F0000800ADF80C000C20ADF80A006946094847
:1026000000F06EF8FEF75DFE012240F2255105480C
:1026100000F041F801210348FFF7B2FF05B000BD0B
:10262000000801400038014002460020B1F5007F5B
:1026300000D100BF13880B400BB1012000E0002047
:10264000704770B50246002400230025002040F6A4
:102650006A16B14200D100BFC1F3421501F01F0359
:10266000012606FA03F3012D02D19689334006E0D4
:10267000022D02D1168A334001E0968A33400C12B3
:10268000012606FA04F41688344013B10CB1012077
:1026900000E0002070BDF0B50346002400260025B0
:1026A000002040F66A17B94200D100BF1846C1F3B6
:1026B000421401F01F06012707FA06F5012C01D18B
:1026C0000C3004E0022C01D1103000E014301AB1BB
:1026D00007682F43076002E00768AF430760F0BD5B
:1026E0002DE9F04786B005460E460024A24600BFFD
:1026F000A1460027B08900B100BF2F462C8A4CF6B6
:10270000FF700440F08804432C82AC894EF6F3102D
:102710000440B08831890843718908430443AC817F
:10272000AC8A4FF6FF400440B0890443AC8201A854
:10273000FEF790FE1F48874202D1DDF810A001E0AD
:10274000DDF80CA0A88900F4004040B10AEBCA00F3
:1027500000EB0A1031684900B0FBF1F807E00AEB22
:10276000CA0000EB0A1031688900B0FBF1F8642060
:10277000B8FBF0F004012009642101FB1089A8894D
:1027800000F4004040B1322000EBC900B0FBF1F092
:1027900000F00700044308E0322000EB0910642138
:1027A000B0FBF1F000F00F0004432C8106B0BDE84F
:1027B000F08700000038014001468888C0F3080017
:1027C0007047C1F308028280704700BFFEE7000037
:1027D0000020014908607047082C004010B57F2098
:1027E00000F004F8FFF7F4FF10BD000000F07F01D7
:1027F000014A116070470000002C00400FB4054BE7
:1028000010B503A9044A029800F0DAF810BC5DF88C
:1028100014FB0000F13000084C05002002E008C85D
:10282000121F08C1002AFAD170477047002001E04A
:1028300001C1121F002AFBD1704700002DE9FF5F84
:1028400082B00021DDE90430020DDDF840B0034321
:1028500018D044F61050A2F2FF32424315141198DA
:1028600001281FD0A5EB0B00401C5FEA000A4FF0C7
:1028700000064E4FDFF83891B046504615D5CAF1E4
:10288000000413E0119801244AA3012801D16FEA42
:102890000B010298119AC0E90031C0E9024206B06A
:1028A000BDE8F09FCBF10000DFE704460021404A7D
:1028B000491842EB0450CDE9001012E0E00707D0C0
:1028C00032463B4640464946FDF7F5FC8046894680
:1028D00032463B4610461946FDF7EDFC06460F46CC
:1028E0006410002CEAD1DDE90401DDE90023BAF12E
:1028F000000F06DAFDF7DFFC42464B46FDF7DBFC36
:1029000005E0FDF74AFD42464B46FDF746FD04460D
:102910000E460022284BFDF70FFF03D84FF0FF3083
:10292000014607E00022254B20463146FDF71CFCFE
:10293000FDF7EAFE102409E0002C0ADB0A2200233E
:10294000FDF7ECFD039B30321A55641E50EA01027C
:10295000F2D1641C039AC4F111031444119A012AA0
:1029600003D0012208430DD10AE0084304D000201F
:102970004FF0110B119072E7A3EB0B056D1E0DE0EC
:102980005B4504DD4FF0000205F1010504E003DAC8
:102990004FF00002A5F10105002AECD00298119930
:1029A000C0E90231C0E9004579E7000000001440A9
:1029B0000000F03F300000000000F0430000E03F66
:1029C0002DE9FF4F95B09B468946064600250FE24C
:1029D000252877D100242746F84A0121059400E0F4
:1029E000044316F8013F203B01FA03F01042F7D1EF
:1029F00030782A2811D06FF02F033078A0F1300200
:102A0000092A16D8059A44F0020402EB820203EB6D
:102A100042021044761C0590EFE759F8042B05920A
:102A2000002A03DA504244F40054059044F00204B2
:102A3000761C30782E2816D116F8010F44F00404C5
:102A40002A280DD06FF02F023078A0F13003092B27
:102A500009D807EB870302EB4303C718761CF3E79B
:102A600059F8047B761C30786C280FD006DC4C2893
:102A700017D068280DD06A2814D104E0742810D02B
:102A80007A280FD10DE044F400140AE044F48014D5
:102A900001E044F440147278824202D104F58014BB
:102AA000761C761C307866280BD013DC582877D03B
:102AB00009DC002875D04528F6D04628F4D04728F0
:102AC0001AD19DE118E0632835D0642879D06528B3
:102AD00012D195E1702873D008DC6728F1D06928FD
:102AE0006FD06E280DD06F2806D1B5E073282CD09A
:102AF000752875D0782874D05A46179990476D1C60
:102B000075E1C4F30250022809D003280DD0D9F88A
:102B1000001004280DD00D6009F1040967E1D9F80F
:102B20000010EA17C1E90052F6E7D9F800100D804D
:102B3000F2E70D70F0E719F8041B8DF80010002083
:102B40008DF80100EA46012003E059F804AB4FF08C
:102B5000FF3061074FF0000102D40DE008F10101E0
:102B60008846B9420FDA8045F8DB1AF808100029C8
:102B7000F4D108E008F1010188468142FADB1AF835
:102B800008100029F6D105985B46A0EB08072146FE
:102B90003846179A00F094FA284400EB080507E03D
:102BA0004DE029E10DE01AF8010B5A4617999047BC
:102BB000B8F10108F7D25B4621463846179A13E16F
:102BC00042E00A220092C4F302524FF0000A022AA5
:102BD00008D059F804CB032A4FEAEC710AD00DE073
:102BE00029E02AE009F1070121F00702F2E802C119
:102BF000914609E00FFA8CFC4FEAEC71042A03D1EC
:102C00004FFA8CFC4FEAEC71002907DA0A460021E2
:102C1000DCF1000C61EB02012D2202E0220504D55B
:102C20002B228DF80420012203E0E20701D02022AC
:102C3000F7E7904659E00A2102E010220DE010214A
:102C40004FF0000A00910BE010224FF0000A44F010
:102C500004040827009203E008224FF0000A0092C3
:102C6000C4F30252022A05D059F804CB0021032AEA
:102C700008D009E009F1070121F00702F2E802C1DA
:102C8000914605E01FFA8CFC042A01D10CF0FF0CE0
:102C90004FF00008220728D5702806D0009B83F04B
:102CA000100353EA0A0305D00EE040228DF80420F9
:102CB000012208E05CEA010206D030228DF80420EF
:102CC0008DF8050002229046009B83F0080353EA2A
:102CD0000A030AD15CEA010201D1620705D530225C
:102CE0008DF804204FF001087F1E582804D034A02E
:102CF00003900EA802900DE036A0F9E75346604617
:102D0000009AFDF70BFC84460398825C0298401EF3
:102D1000029002705CEA0100F0D1029806A9081A3C
:102D200000F1200A600702D524F4803400E0012776
:102D3000574502DDA7EB0A0000E0002000EB0A0186
:102D4000009005984144401A0590E00306D45B4684
:102D50002146179A059800F0B3F90544002706E0CC
:102D600001A85A46C05D179990476D1C7F1C4745C6
:102D7000F6DBE0030CD55B462146179A059800F078
:102D80009FF9054404E030205A46179990476D1C7E
:102D90000099481E00900029F5DC08E0029802998D
:102DA0005A460078491C0291179990476D1CBAF158
:102DB0000001AAF1010AF1DC65E100000928010027
:102DC00030313233343536373839616263646566A1
:102DD0000000000030313233343536373839414263
:102DE000434445460000000000F058F90544761CB5
:102DF000307800287FF4ECAD19B02846BDE8F08F9C
:102E0000620700D4062709F1070222F0070CFCE84C
:102E10000223E14603F000485FEA080C02D00FF2FB
:102E2000702C0DE05FEA045C02D50FF2682C07E01D
:102E30005FEAC47C02D00FF2602C01E0AFF2700CAC
:102E40004FF0FF3823F00043CDF850C065280CD078
:102E500006DC452809D046281DD047283DD13DE055
:102E6000662818D067287ED138E00021112F01DBB9
:102E7000112000E0781CCDE9000106A90EA8FFF79B
:102E8000DDFCDDE90F010E9A03910021009207F1AC
:102E9000010A04914DE04FF000400097CDE9011088
:102EA00006A90EA8FFF7CAFCDDE90F0203920E9BEC
:102EB00011990022DDF80CA00093049211B9791C3D
:102EC00000EB010AB7EB0A0004D4C0F1FF3007F1B0
:102ED000010A0490AAEB0700019044E0012F00DAF8
:102EE00001270021112F01DD112000E03846CDE936
:102EF000000106A90EA8FFF7A1FCDDE90F010E9A5B
:102F00000391002104910092BA4621070CD4039941
:102F1000514500DA8A46BAF1010F05DD009AAAF19F
:102F20000101515C302908D0B84202DA10F1040FD7
:102F300006DA0121CDE9011015E0AAF10101E9E766
:102F4000002805DC049901440491AAEB000102E089
:102F5000411C514500DD8A460499401A401C0190ED
:102F60004FF000400290200704D40198504501DB47
:102F7000CDF8048000208DF84F0002980DF14F0726
:102F8000B0F1004F25D02B200E9002984FF0020890
:102F900000280CDA404202902D200E9007E00A2112
:102FA0000298FDF7A5FA3031029007F8011DB8F13B
:102FB0000001A8F10108F2DC02980028EFD1791E87
:102FC0000E980870307800F0200040F0450007F8B7
:102FD000020D12A8C01B00F107081498007800B178
:102FE000012000EB0A01019801EBE07105984144D2
:102FF000401A401E0590E00306D45B462146179A0E
:10300000059800F05DF805441498007818B15A4608
:10301000179990476D1CE00324D55B462146179A0B
:10302000059800F04DF805441CE00498002807DBE3
:10303000DDE90301884203DD0098405C179901E057
:10304000179930205A469047049805F10105401C15
:1030500004900198401E019004D12E205A461799E1
:1030600090476D1CBAF10001AAF1010ADDDC05E010
:1030700017F8010B5A46179990476D1CB8F10001DB
:10308000A8F10108F4DC5B462146179A0598ABE6E7
:103090002D0000002B000000200000002DE9F04171
:1030A000044600251E461746880404D405E0394628
:1030B0002020B0476D1C641EF9D52846BDE8F0817C
:1030C0002DE9F041044600251E469046C80301D56F
:1030D000302700E02027880404D505E04146384623
:1030E000B0476D1C641EF9D52846BDE8F08100008C
:1030F00070B504460D46E1B20548FFF762FB00BF1C
:1031000080210348FFF790FA0028F9D0204670BDCF
:10311000003801401CB54FF4A060FEF71DF9FFF721
:103120003BFAFEF755F8FDF791FCFDF7DFFEFEF7E1
:10313000A9FDFDF77DFCFEF795FFFDF753FBFDF7BD
:1031400039FCFEF76BF8FEF7B3FB002000F080F8C7
:10315000012000F07DF8002005210F231722CDE982
:103160000010072140F2E470FEF724FA0BE00D484E
:10317000D0F860140CA0FFF741FB0DA0FFF73EFB59
:103180001248FDF7DFFDFDF733FD0028EFD10548BC
:10319000D0F8601404A0FFF731FB0DA0FFF72EFB61
:1031A00000BFFEE7440000205B25735D3A0000008D
:1031B00044533138423230BCECB2E2CAA7B0DCA38F
:1031C000ACC7EBB2E5BAC3210D0A0A0020A1070083
:1031D00044533138423230BCECB2E2B3C9B9A62113
:1031E0000D0A0A002DE9F04104460E461548005D1F
:1031F00038B9144818380168204688470120BDE8CE
:10320000F081114850F82400B04219D90F4850F805
:103210002400B6FBF0F10B48083850F8240030F8D1
:103220001120002508E000230648083850F8240043
:103230004F1920F817306D1C9542F4DB0020DEE7B3
:103240000220DCE74805002004340008FC330008B5
:1032500010B504460C4951F824104A000B4951F8A6
:103260002400002100F08AF8094951F82420074978
:10327000083951F82400002100F080F801210348AA
:103280000830015510BD0000F4330008400500204F
:10329000043400082DE9F04704460F460025A946EE
:1032A0002348005D20B92248183801682046884725
:1032B0001FB94FF0FF30BDE8F0871E4850F82400DA
:1032C000B7FBF0F61B4850F82400B7FBF0F100FB09
:1032D000117000B1761C184850F82400451E22E0F9
:1032E0001348083850F8240030F8150010B909F1D7
:1032F000010901E04FF00009B14513D14FF000087A
:1033000009E00B48083850F8240005EB080220F8C3
:10331000126008F10108B045F3D3064850F82400C4
:103320006843C8E76D1E002DDADA4FF0FF30C2E7C0
:1033300048050020FC330008F433000810B50146AE
:103340000023002207E00B4850F8210030F812005B
:1033500000B15B1C521C084850F821009042F2D882
:1033600064205843044C54F82140B0FBF4F0C0B240
:1033700010BD000040050020F433000830B50346BE
:1033800001E003F8011B141EA2F10102F9D130BDC6
:1033900070B505460C4604B970BD054850F82500C7
:1033A000261A31462846FFF71DFF00BFF4E700004C
:1033B0003805002070B504460E4631462046FFF71A
:1033C00069FF0546681C08B9002070BD024850F826
:1033D00024002844F9E70000380500200003030614
:1033E00001040602050003051F1C1F1E1F1E1F1FD0
:1033F0001E1F1E1F000500000078000020000000B6
:103400002000000000A0000000000F0020000000CD
:103410004858515F44454255475F4D4F44554C45D0
:103420005F4144435F4C564C000000004858515FD8
:1034300044454255475F4D4F44554C455F4C4544CC
:103440005F4C564C000000004858515F44454255BF
:10345000475F4D4F44554C455F575744475F4C5667
:103460004C0000004858515F44454255475F4D4F5E
:1034700044554C455F53595354454D5F4C564C0091
:103480004858515F44454255475F4D4F44554C4560
:103490005F54494D5F4C564C000000004858515F46
:1034A00044454255475F4D4F44554C455F42454565
:1034B000505F4C564C0000004858515F44454255FF
:1034C000475F4D4F44554C455F5445505F4C564CFB
:1034D000000000004858515F44454255475F4D4F3A
:1034E00044554C455F4B45595F4C564C000000001D
:1034F0001035000800000020500500008C0700086F
:10350000683500085005002010AE00002C28000887
:103510001184A24A04680901020304060708090C81
:1035200069100518020406083201130C340917202B
:1035300001700A89648C0A89D48C0A892C8C0A89C6
:103540009C8C0A89488C0A89808C0A89108C0A898B
:10355000B88C13513214083D331408600532202C06
:083560006860A508830F6800F4
:0400000508000131BD
:00000001FF
