:020000040800F2
:10000000E8C2002045010008DD1A0008D1160008EA
:10001000D91A00087D0600080F4A000800000000F9
:10002000000000000000000000000000AD3D0008DE
:100030001D0B000800000000951B00087D3F000814
:10004000214A00085F0100085F0100084D200008F8
:100050005F0100085F010008A10E00085F010008B1
:10006000D10E0008FD0E00082D0F00085F010008EA
:100070005F0100085F0100085F0100085F010008E0
:100080005F0100085F0100085F0100085F010008D0
:100090005F0100085F0100085F0100085F010008C0
:1000A0005F0100085F0100085F0100085F010008B0
:1000B0005F0100085F0100085F0100085F010008A0
:1000C0005F0100085F0100085F0100085F01000890
:1000D0005F010008A14700085F0100085F010008F8
:1000E0005F0100085F0100085F0100085F01000870
:1000F0005F0100085F0100085F0100085F01000860
:100100005F0100087D240008494200085F010008E3
:100110005F0100085F01000845440008D944000859
:100120005F0100085F0100085F0100085F0100082F
:10013000DFF80CD000F0ACF8004800476D6800080C
:10014000E8C200200648804706480047FEE7FEE771
:10015000FEE7FEE7FEE7FEE7FEE7FEE7FEE7FEE777
:10016000A93F0008310100082DE9F05F0546002095
:1001700092469B4688460646814640241BE0284618
:1001800041464746224600F072F853465A46C01A86
:10019000914110D311461846224600F059F82D1A05
:1001A00067EB01084F4622460120002100F050F87D
:1001B00017EB00094E41201EA4F10104DFDC484684
:1001C00031462A464346BDE8F09F2DE9F041002420
:1001D000061B254671F1000605DA01240027D0EB45
:1001E000070067EB0101161E73F1000605DA002710
:1001F000D2EB0702012567EB0303FFF7B5FF864645
:100200000E4617469C46AC4204D00025D0EB050EA6
:1002100065EB010624B10020D2EB000760EB030C74
:10022000704631463A466346BDE8F08140EA010334
:100230009B0703D009E008C9121F08C0042AFAD29C
:1002400003E011F8013B00F8013B521EF9D2704760
:10025000202A04DB203A00FA02F100207047914086
:10026000C2F1200320FA03F3194390407047202A7B
:1002700004DB203A21FA02F00021704721FA02F350
:10028000D040C2F120029140084319467047000057
:10029000064C074D06E0E06840F0010394E80700D3
:1002A00098471034AC42F6D3FFF746FF101B030803
:1002B000301B030800B587B0012140F2044001F073
:1002C00097FC4FF4004001F067FC0220ADF81800E5
:1002D00000208DF81B0003208DF81A0006A918488D
:1002E00001F05EF9002001908DF808008DF80900FA
:1002F0004FF4602003900020049001208DF814003A
:1003000001A9104800F06EF801210E4800F01CF819
:100310000C4800F08FF800BF0A4800F059F8002898
:10032000FAD1084800F096F800BF064800F046F8F9
:100330000028FAD10121034800F081F807B000BD80
:10034000000801400028014021B1826842F001020A
:10035000826003E0826822F0010282607047000040
:1003600010B504461248844208D10121401501F01D
:100370004FFC0021601501F04BFC17E00D48844252
:1003800008D10121001501F043FC0021201501F0E6
:100390003FFC0BE00848844208D10121C80301F06A
:1003A00037FC00214FF4004001F032FC10BD00008A
:1003B0000024014000280140003C0140014600208B
:1003C0008A6802F004020AB1012000E000207047B0
:1003D000014600208A6802F008020AB1012000E00C
:1003E0000020704730B502460020002350680F4CB3
:1003F00020400D790C6844EA052420435060906841
:100400000B4C2040D1E902542C434D7944EA450479
:1004100020439060D06A20F470000C7C641EE4B22B
:10042000234340EA0350D06230BD0000FFFEF0FFDE
:10043000FDF7F1FF816841F008018160704721B14B
:10044000826842F4A002826003E0826822F4A00283
:1004500082607047816841F004018160704700004C
:1004600030B10749096841F40001054A116005E00F
:100470000349096821F40001014A11607047000036
:100480000824014000B585B00121480201F0B0FB0D
:100490004FF4004001F080FB0120FFF7E1FF002056
:1004A00000908DF804008DF805004FF46020029054
:1004B0000020039001208DF8100069460F48FFF7D7
:1004C00091FF01210D48FFF73FFF0C48FFF7B2FFF6
:1004D00000BF0A48FFF77CFF0028FAD10748FFF762
:1004E000B9FF00BF0548FFF769FF0028FAD10121D5
:1004F0000248FFF7A4FF05B000BD00000024014042
:1005000010B5FF2000F017F80446362C01D100206A
:1005100010BD3621FF2000F03AF8FF2000F00BF864
:100520000446362C01D10020F2E70120F0E710B597
:1005300001F0ECF810BD70B50446002601F084F916
:100540002546E11704EB11610912A02202EB4101DB
:10055000C8B201F047F901F0AFF9E11704EB1161FE
:100560000912A4EB0121C8B201F03CF901F0A4F991
:1005700001F06AF9A12001F035F901F09DF90020A0
:1005800001F004F9064601F07BF9304670BD70B504
:1005900004460E4601F058F92546E11704EB1161B7
:1005A0000912A02202EB4101C8B201F01BF901F0CF
:1005B00083F9E11704EB11610912A4EB0121C8B220
:1005C00001F010F901F078F9304601F00BF901F073
:1005D00073F901F055F90A2003F088FC70BD10B5DD
:1005E0000121102001F0F4FA03F04AFF012120203C
:1005F00001F0EEFA03F08EFF10BD000008B50121F6
:10060000082001F0F5FA4FF48070ADF800001020DA
:100610008DF8030003208DF802006946044800F0BD
:10062000BFFF4FF48071024801F04EF808BD000092
:10063000000C014010B5012001F0FAFA002001F091
:10064000F7FA10BD08B5014600200090034800905D
:100650000098084400900098008808BD006C004095
:1006600008B500220092044A0092009A02440092C7
:10067000009A116008BD0000006C004000BFFEE75A
:1006800070B500254FF4803404E0802001F0E2FED4
:1006900000B103E0201EA4F10104F6D100BF0CB9A3
:1006A000032070BD40F2FF5001F08EFE2846F8E7AF
:1006B00070B5044605E01548456B05F0450000B1EE
:1006C00000E0F8E700BF042001F0C4FE20B10420E0
:1006D00001F07AFE032070BD012001F0BBFE20B1C5
:1006E000012001F071FE0120F5E708480069A042F1
:1006F00001D01020EFE740F2FF500449886308461C
:10070000406908210840C0B2E5E7000000800140D0
:1007100070B500264FF4803505E01148446B04F0B5
:10072000450000B103E0281EA5F10105F5D100BF89
:1007300015B104F0040028B10326042001F044FEA2
:10074000304670BD012001F085FE18B10126012060
:1007500001F03AFE40F2FF5001F036FE3046F0E77D
:100760000080014010B505E00B48446B04F04500E3
:1007700000B100E0F8E700BF042001F06BFE20B1FB
:10078000042001F021FE032010BD40F2FF5001F0D3
:100790001BFE0020F8E70000008001402DE9F04139
:1007A00005460E464FF0000805E01F48476B07F06E
:1007B000450000B100E0F8E700BF042001F04AFE68
:1007C00028B1042001F000FE0320BDE8F0810120E3
:1007D00001F040FE20B1012001F0F6FD0120F4E718
:1007E00011480069A84201D01020EEE740F2FF5006
:1007F00001F0EAFD0C48446904F4604018B9200C8B
:1008000030804046E1E704F4005008B11320DCE7F3
:1008100004F4804008B11020D7E704F4004008B188
:100820000F20D2E74046D0E70080014070B5002697
:100830004FF4803505E00F48446B04F0450000B1EB
:1008400003E0281EA5F10105F5D100BF15B104F0A4
:10085000040028B10326042001F0B6FD304670BD27
:1008600004F0400018B10026402001F0ADFD3046F4
:10087000F5E700000080014021B1026842F001026A
:10088000026004E002684FF6FE731A40026070478F
:1008900001684FF6FE721140016000210160416065
:1008A0008160C1604B49884208D14A49083949688A
:1008B00041F00F01474A083A51608AE04549143136
:1008C000884208D143490839496841F0F001414A5A
:1008D000083A51607DE03F492831884208D13D49BE
:1008E0000839496841F470613A4A083A516070E049
:1008F00038493C31884208D136490839496841F4C1
:100900007041344A083A516063E0324950318842BC
:1009100008D130490839496841F470212D4A083A14
:10092000516056E02B496431884208D12949083981
:10093000496841F47001274A083A516049E0254965
:100940007831884208D123490839496841F07061FB
:10095000204A083A51603CE01F49884206D1011FF5
:10096000096841F00F01021F116032E01A49143189
:10097000884208D11849091F096841F0F001164A58
:10098000121F116025E014492831884208D112490C
:10099000091F096841F470610F4A121F116018E0C5
:1009A0000D493C31884208D10B49091F096841F4BF
:1009B0007041094A121F11600BE00749503188420B
:1009C00007D10549091F096841F47021024A121F25
:1009D00011607047080002400804024010B5002270
:1009E000026847F6F0739A430C6A8B6823430C69DC
:1009F00023434C6923438C692343CC6923434C6ACA
:100A000023438C6A23431A430260CB6843600B681C
:100A100083604B68C36010BD10B5002400F02AF855
:100A200004E0601CC4B2012003F084FA4FF40061BA
:100A30000F4800F040FE08B1C82CF2DBC82C01DBE7
:100A4000012010BD002404E0601CC4B2012003F0AA
:100A500071FA4FF40061064800F02DFE08B9F02C41
:100A6000F2DBF02C01DB0120EBE70020E9E70000DE
:100A70000020014008B54FF40060ADF800004820A8
:100A80008DF803006946024800F08AFD08BD0000A9
:100A90000020014008B54FF40060ADF800000320CD
:100AA0008DF8020010208DF803006946014800F01F
:100AB00077FD08BD0020014008B50121080201F0C2
:100AC00097F84FF40060ADF8000003208DF80200A5
:100AD00010208DF803006946034800F061FD00F026
:100AE00005F8FFF799FF08BD0020014010B5FFF79A
:100AF000D1FF4FF40061084800F0E6FD40F2EE201F
:100B000003F018FA4FF40061034800F0DFFD0F20F6
:100B100003F010FA10BD00000020014070470000F3
:100B200001B50849009808604FF0E020006940F0E6
:100B300001004FF0E021086100BF02480068002872
:100B4000FBD108BD2800002010B50446214611A0A5
:100B500003F076FF240300F03FF900F0D7F84FF4DC
:100B600080510E4800F0B0FD202003F0B7F8C4F328
:100B7000074003F0B3F8C4F3072003F0AFF8E0B286
:100B800003F0ACF84FF48051044800F09FFD00F0F2
:100B9000BDF810BD66653A25780D0A00000C0140CD
:100BA00008B501214FF4847001F022F84FF4805011
:100BB000ADF8000010208DF8030003208DF802002E
:100BC0006946134800F0ECFC4FF48051104800F0E7
:100BD0007DFD8020ADF8000069460E4800F0E0FC85
:100BE00080210C4800F072FD4FF48051084800F05D
:100BF0006DFD03F02DF8002003F08CF800F048F8AC
:100C0000054908800846018804A003F019FF08BDC3
:100C1000000C0140002001403C000020CAB9D3C3B1
:100C2000B5C4464C415348D0BEC6AC4944CAC7A31C
:100C3000BA25580D0A0000002DE9F04106460C4681
:100C400017464FF48051114800F03EFD032003F099
:100C500045F8C4F3074003F041F8C4F3072003F05C
:100C60003DF8E0B203F03AF8002505E0FF2003F07C
:100C700035F87055681C85B2BD42F7DB4FF48051E2
:100C8000024800F023FDBDE8F0810000000C0140A7
:100C900010B500244FF480510F4800F015FD90204E
:100CA00003F01CF8002003F019F8002003F016F8F8
:100CB000002003F013F8FF2003F010F844EA0024AA
:100CC000FF2003F00BF804434FF48051024800F07A
:100CD000FDFC204610BD0000000C014010B50024B2
:100CE0004FF48051084800F0EFFC052002F0F6FFB9
:100CF000FF2002F0F3FF04464FF48051024800F059
:100D0000E5FC204610BD0000000C014010B500BFFE
:100D1000FFF7E4FF00F001000028F9D110BD00004A
:100D20002DE9F05F81460F461646DFF8A8B04FEA7E
:100D30001738C7F30B0ACAF58054A64200DC3446C4
:100D400044E04FEA08314FF480525846FFF774FFF1
:100D5000002508E00AEB05001BF80000FF2800D082
:100D600003E0681C85B2A542F4DB00BFA54216DA99
:100D70004046FFF7E9FE002507E019F8050005EBFE
:100D80000A010BF80100681C85B2A542F5DB4FEAA9
:100D900008314FF48052584600F030F804E0224603
:100DA0003946484600F02AF8A64200D10FE008F183
:100DB00001084FF0000AA1442744301B86B2B6F563
:100DC000805F02DD4FF4805400E03446B9E700BF95
:100DD000BDE8F09F9200002010B54FF48051064806
:100DE00000F072FC062002F079FF4FF480510248B7
:100DF00000F06CFC10BD0000000C01402DE9F0413A
:100E000007460E461446F0B2C0F58075AC4200DCD1
:100E1000254612E02A463146384600F013F8AC4227
:100E200000D10BE02F442E44601B84B2B4F5807FC8
:100E300002DD4FF4807500E02546EBE700BFBDE81A
:100E4000F08100002DE9F04106460C461746FFF7F9
:100E5000C3FF4FF48051114800F036FC022002F02D
:100E60003DFFC4F3074002F039FFC4F3072002F04E
:100E700035FFE0B202F032FF002504E0705D02F0C1
:100E80002DFF681C85B2BD42F8DB4FF4805103484A
:100E900000F01CFCFFF73AFFBDE8F081000C0140B8
:100EA00010B5012000F05EF8012809D101210648A3
:100EB00000F001FC012803D10102044800F004FC09
:100EC000012000F049F810BD00080140000C01406D
:100ED00010B5042000F046F8012808D10421064886
:100EE00000F0E9FB18B92021034800F0EFFB0420D3
:100EF00000F032F810BD00000018014010B50820C5
:100F000000F030F8012809D10821064800F0D3FB91
:100F100020B94FF48071044800F0D8FB082000F09D
:100F20001BF810BD00180140000C014010B5102046
:100F300000F018F8012808D11021064800F0BBFB8A
:100F400018B92021034800F0BFFB102000F004F87E
:100F500010BD000000180140014908607047000002
:100F600014040140014600200022074B1B6803EADD
:100F70000102054B14331B680B4013B10AB1012069
:100F800000E00020704700000004014000212349D8
:100F90008279002A3AD00A46126803689A430B46BF
:100FA0001A600A1D126803689A430B1D1A600279C1
:100FB00011440A6803681A430A60184A0832126822
:100FC00003689A43154B08331A601A1D12680368A8
:100FD0009A43124B0C331A604279102A0ED11A1F11
:100FE000126803681A430D4B08331A601A1D126801
:100FF00003681A43094B0C331A600DE00749427924
:1010000011440A6803681A430A6005E00279114432
:101010000A6803689A430A607047000000040140B0
:101020001FB50121442000F0E3FD0121084600F036
:10103000DFFD1020ADF80C0048208DF80F0003A94B
:101040003C4800F0ADFA0421084600F089FA0A2075
:101050008DF8080002208DF8090000208DF80A00A4
:1010600001208DF80B0002A800F04CFD102000902C
:1010700000208DF804000C208DF8050001208DF86B
:1010800006006846FFF782FF0820ADF80C004820F4
:101090008DF80F0003A9274800F082FA03210420ED
:1010A00000F05EFA09208DF8080002208DF8090092
:1010B00001208DF80A008DF80B0002A800F022FD37
:1010C0000820009000208DF804000C208DF8050009
:1010D00001208DF806006846FFF758FF0420ADF8A0
:1010E0000C0048208DF80F0003A9124800F058FAB0
:1010F0000221042000F034FA08208DF808000220B4
:101100008DF809008DF80A0001208DF80B0002A867
:1011100000F0F8FC0420009000208DF804000C2062
:101120008DF8050001208DF806006846FFF72EFFB8
:101130001FBD00000018014010B500240EE04FF460
:101140000D71002005F022FD184941F824000846E1
:1011500050F8240000B903E0601CC4B2042CEEDB9C
:1011600000BF4FF41471002005F010FD1049086015
:101170004FF41471002005F009FD0E4908604FF48A
:101180000071002005F002FD0B490860042C0AD113
:101190000748006838B10748006820B10846006871
:1011A00008B1002010BD0120FCE7000070BD002048
:1011B00070000020740000208000002051B18200E7
:1011C000A2F1C042126842F001038200A2F1C042C3
:1011D000136009E08200A2F1C0421268034B1A407A
:1011E0008300A3F1C0431A6070470000FEFF0F00A8
:1011F000D0E901121143C2681143026911434269E7
:10120000114382691143C2691143026A1143426A60
:101210001143826A1143C26A1143026B114302688F
:101220009200A2F1C0421160816808290BD10168C7
:101230008900A1F1C041096841F0400201688900BC
:10124000A1F1C0410A60416B0968426B526841EAF2
:101250000211426B926841EA0221426B928941EA93
:101260000241426B128A41EA0251426B127D41EA0D
:101270000261426B926911430268521C9200A2F112
:10128000C0421160C16AB1F5804F1BD1816B096802
:10129000826B526841EA0211826B926841EA022134
:1012A000826B128A41EA0251826B127D41EA02612D
:1012B000826B9269114302689200A2F1C042C2F8A7
:1012C000041107E06FF0704201688900A1F1C0418C
:1012D000C1F804217047000000B597B001214FF418
:1012E000F07000F085FC0121080200F061FC032091
:1012F0008DF85A004FF48060ADF8580018208DF832
:101300005B0016A92D4800F04BF90320ADF85800FA
:1013100016A92B4800F044F93020ADF8580016A962
:10132000284800F03DF94FF60370ADF8580016A9B3
:10133000244800F035F94FF68070ADF8580016A932
:101340001F4800F02DF94FF23F00ADF8580016A9E4
:101350001D4800F025F93F20ADF8580016A91748A0
:1013600000F01EF90020009001900820029000205B
:1013700003900490059006900420079000200890A8
:10138000099010200A9000200B900D900C900E9068
:101390000F904FF4805010900020119012901390F5
:1013A000CDF850D0CDF854D007A8FFF721FF012188
:1013B0000420FFF703FF17B000BD0000002001402C
:1013C0000018014000140140001C01402DE9FC41BF
:1013D00007460D46002600240020009001900820BA
:1013E0005B49086010204860402088600020C86089
:1013F0004FF480600861084601F062F81020FFF7A2
:1014000057F9044614B12046BDE8FC8151480088D4
:1014100000044F4908603720486040208860002061
:10142000C8604FF480600861084601F049F8372031
:10143000FFF73EF904460CB12046E5E74FF0FF30D8
:101440004549086008204860302088600220C86054
:101450000020086101204861084600F0D1FF00200B
:101460003B49086033204860402088600020C86005
:101470004FF480600861084601F022F83320FFF73E
:1014800017F904460CB12046BEE70CE04FF40010FB
:1014900000F0E0FF38B101F00DF84DF82600761CA1
:1014A000022E00D306E02D48406B40F22A6108402E
:1014B0000028EBD000BF082000F0CCFF20B10820AE
:1014C00000F082FF04209FE7022000F0C3FF20B15C
:1014D000022000F079FF022096E7202000F0BAFFFA
:1014E00020B1202000F070FF06208DE74FF400703F
:1014F00000F0B0FF28B14FF4007000F065FF072046
:1015000082E740F2FF5000F05FFF0098000600996C
:1015100001F47F4140EA0120009901F47F0140EA93
:101520001120009940EA1160686001980006019955
:1015300001F47F4140EA0120019901F47F0140EA72
:101540001120019940EA1160286020465CE7000004
:10155000B010002044000020C41000200080014092
:1015600030B500228B071C0F0F2303FA04F20B4B3C
:101570008C1053F824309343084C8D1044F82530D8
:1015800023468C1053F824308C07240F00FA04F4FF
:101590002343024C8D1044F8253030BD0800014033
:1015A0002DE9F041024600250026002000230024FA
:1015B000002791F803C00CF00F0591F803C00CF060
:1015C000100CBCF1000F03D091F802C04CEA0505E5
:1015D00091F800C0BCF1000F31D0146800202BE05E
:1015E0004FF0010C0CFA00F3B1F800C00CEA03064E
:1015F0009E4220D183004FF00F0C0CFA03F7BC433E
:1016000005FA03FC4CEA040491F803C0BCF1280F6E
:1016100006D14FF0010C0CFA00FCC2F814C00AE02D
:1016200091F803C0BCF1480F05D14FF0010C0CFA42
:1016300000FCC2F810C0401C0828D1D31460B1F8D7
:1016400000C0BCF1FF0F34DD546800202EE000F133
:10165000080C4FF0010808FA0CF3B1F800C00CEACE
:1016600003069E4221D183004FF00F0C0CFA03F7C2
:10167000BC4305FA03FC4CEA040491F803C0BCF136
:10168000280F05D100F1080C08FA0CF8C2F81480F4
:1016900091F803C0BCF1480F07D100F1080C4FF0DE
:1016A000010808FA0CF8C2F81080401C0828CED3B4
:1016B0005460BDE8F0810246002093680B400BB1F6
:1016C000012000E0002070474161704701617047D0
:1016D00000BFFEE710B540210B48FFF7F5FF00F013
:1016E0000BFE80210848FFF7EFFF022002F022FCEA
:1016F00040210548FFF7EAFF052002F01BFC4021CE
:101700000148FFF7E1FF10BD000C014008B50121C1
:10171000082000F06DFA4020ADF8000003208DF89D
:10172000020010208DF8030069460948FFF738FFD2
:101730008020ADF8000069460548FFF731FF4021E1
:101740000348FFF7C3FF80210148FFF7BFFF08BD33
:10175000000C014010B540210B48FFF7B5FF00F029
:10176000CBFD80210848FFF7B1FF022002F0E2FB29
:1017700040210548FFF7AAFF052002F0DBFB4021CE
:101780000148FFF7A1FF10BD000C014070B50546F0
:10179000002400F0A3FD002618E040211048FFF7C8
:1017A00093FF022002F0C6FB40210D48FFF78EFF99
:1017B0006006040E80210A48FFF77DFF08B1601C17
:1017C000C4B2012002F0B6FB701CC6B2082EE4DBE6
:1017D00015B9FFF7BFFF01E0FFF77CFF204670BDA2
:1017E000000C014070B5044600F086FD402115480C
:1017F000FFF76AFF002521E004F08000002804DDE7
:1018000080211048FFF762FF03E080210D48FFF7B9
:101810005BFF6006040E022002F08CFB40210948A9
:10182000FFF754FF022002F085FB40210548FFF737
:101830004BFF022002F07EFB681CC5B2082DDBDBEB
:1018400070BD0000000C014010B500F055FD802176
:101850000A48FFF73BFF40210848FFF737FF052004
:1018600002F068FB80210548FFF72EFF062002F0FA
:1018700061FB40210148FFF727FF10BD000C01402C
:1018800010B500F039FD40210A48FFF71DFF802107
:101890000848FFF719FF40210648FFF717FF062009
:1018A00002F048FB80210348FFF710FF062002F0FA
:1018B00041FB10BD000C014010B5002480211248EE
:1018C000FFF704FF012002F035FB00F007FD402187
:1018D0000D48FFF7FBFE012002F02CFB07E0601C27
:1018E000C4B2FA2C03DDFFF7CBFF012010BD80212D
:1018F0000548FFF7E0FE0028F1D140210248FFF73C
:10190000E3FE0020F2E70000000C014072B67047D1
:1019100062B670471CB50446002001900090214833
:1019200000880004204908600D204860402088603D
:101930000020C8604FF480600861084600F0C0FDD8
:101940001A48406B009002E01848406B00900098E5
:1019500000F045000028F7D0012000F07BFD20B109
:10196000012000F031FD01201CBD042000F072FDBB
:1019700020B1042000F028FD0320F5E70B480069A2
:101980000D2801D01020EFE740F2FF5000F01CFDC1
:101990000648406901900198C0F343202070002060
:1019A000E2E7000044000020B01000200080014069
:1019B0000146CA1701EB92729210A1EB820292B912
:1019C000642091FBF0F200FB121050B94FF4C87084
:1019D00091FBF0F200FB121008B9012070470020C3
:1019E000FCE70120FAE70020F8E7000008B5012134
:1019F000482000F0FDF82020ADF8000010208DF800
:101A0000030003208DF8020069460948FFF7C8FD6E
:101A10002020ADF8000069460648FFF7C1FD2021EF
:101A20000348FFF753FE20210248FFF74FFE08BD91
:101A300000180140000C014000B587B00121802052
:101A400000F0D6F80121C80300F0D2F80121C80344
:101A500000F0DEF800214FF4004000F0D9F84FF418
:101A60008070ADF8180000208DF81B0006A91848FA
:101A7000FFF796FD1748FEF773FC002001908DF8E4
:101A800008008DF809004FF46020039000200490B6
:101A900001208DF8140001A90E48FEF7A3FC0121D6
:101AA0000C48FEF751FC0B48FEF7C4FC00BF094888
:101AB000FEF78EFC0028FAD10648FEF7CBFC00BFEB
:101AC0000448FEF77BFC0028FAD107B000BD0000F7
:101AD000001C0140003C014000BFFEE7704708B514
:101AE0004FF4A06000F046F825208DF8000001209A
:101AF0008DF801008DF802008DF80300684600F0B3
:101B000001F808BD70B5002100230F22C47804B38A
:101B1000154C246804F4E064C4F5E064210AC1F1C2
:101B20000403CA40447804FA03F184781440214342
:101B300009010E4C0678A155047804F01F05012414
:101B4000AC4005786D11AD0005F1E025C5F8004108
:101B500009E0047804F01F050124AC40044D067828
:101B6000761145F8264070BD0CED00E000E400E081
:101B700080E100E002490143024A11607047000021
:101B80000000FA050CED00E0014908627047000012
:101B900000000E427047000001460020034A5068D2
:101BA00020F440400843506070470000001002409D
:101BB00029B1064A52690243044B5A6104E0034AC0
:101BC00052698243014B5A61704700000010024085
:101BD00029B1064AD2690243044BDA6104E0034AA0
:101BE000D2698243014BDA61704700000010024065
:101BF00029B1064A92690243044B9A6104E0034A00
:101C000092698243014B9A617047000000100240C4
:101C100029B1064AD2680243044BDA6004E0034A61
:101C2000D2688243014BDA60704700000010024026
:101C300001490860704700004004424230B500216D
:101C40000022002400232D4D6D6805F00C0121B108
:101C5000042905D0082923D105E0294D056022E09B
:101C6000274D05601FE0254D6D6805F47012234D6A
:101C70006D6805F48034022505EB92421CB9214DB4
:101C8000554305600BE01D4D6D6805F400351DB131
:101C90001C4D5543056002E0194D5543056002E0B7
:101CA000174D056000BF00BF144D6D6805F0F001D1
:101CB0000909154D6B5C0568DD4045600F4D6D6889
:101CC00005F4E061090A104D6B5C4568DD408560F4
:101CD0000A4D6D6805F46051C90A0B4D6B5C45688F
:101CE000DD40C560054D6D6805F44041890B074D29
:101CF0006B5CC568B5FBF3F5056130BD00100240B3
:101D000000127A0000093D00140000202400002089
:101D100010B501460022002300204A11012A02D1F9
:101D2000094C236806E0022A02D1074C236A01E02D
:101D3000054C636A01F01F02012494401C400CB161
:101D4000012000E0002010BD0010024000210B4ADD
:101D500011700A4A203A82F82010012802D0042883
:101D600008D103E00121054A117004E00521034A6E
:101D7000117000E000BF00BF70470000201002405B
:101D800001490860704700003C0442420249096A68
:101D90000143014A11627047001002402DE9F05FD3
:101DA00006460F4690469946DDE90AAB002440F20C
:101DB000B270864203DB40F63300864202DD01202A
:101DC000BDE8F09F40F2B2750AE02846FFF7F0FD4B
:101DD00010B12048044401E01F480444681C85B247
:101DE000B542F2DB781EC7B2002510E01B48405D0B
:101DF00040F2A321484304EBC0143046FFF7D8FD5E
:101E000018B1012D01D116480444681C85B2BD42A9
:101E1000ECDBA8F1010040F2A321484304EBC0141D
:101E2000C9EB4910C0EB092004EB0014CAEB0A10FF
:101E300004EB80045C4401214FF0C050FFF7C8FE62
:101E40000120FFF7A1FE204600F000FA00F02AFA78
:101E50000020B5E70085E2018033E101EC6E000867
:101E600080510100024909888143014A118070476D
:101E7000042800400348008840F010000149088011
:101E80007047000004280040034800884FF6EF71B7
:101E900008400149088070470428004070B50026BA
:101EA0000024002500F07AF806463848B6FBF0F426
:101EB00037480088A0423CD035490C8040F2B275CA
:101EC00010E02846FFF774FD40B1B4F5B77F02D3A8
:101ED000A4F5B77404E0681C85B206E0A4F26D14A2
:101EE000681C85B2B4F5B67FEBD800BF2948858061
:101EF000002516E027498888FFF75AFD30B1012DEB
:101F000004D11D2C01D31D3C09E00CE02248405DAA
:101F1000A04203D82048405D241A00E003E0681C7A
:101F200085B21C2CE6D200BF681C1A498871601C5F
:101F3000C8711648B6FBF0F100FB11644FF4616004
:101F4000B4FBF0F0134908704FF46160B4FBF0F19A
:101F500000FB11403C21B0FBF1F00E4948704FF4FA
:101F60006160B4FBF0F100FB11403C21B0FBF1F2E9
:101F700001FB1200074988700B46DA799979988835
:101F800000F028F803490872002070BD805101005C
:101F90003A00002088000020EC6E00080021034871
:101FA0000188001F008841EA004070471C2800405B
:101FB00001460020064A12880A40D0B2044A121F85
:101FC00012880A4012B108B1012000E000207047D9
:101FD00004280040F0B503460C461546642093FBE8
:101FE000F0F0C6B2642093FBF0F700FB1730C1B2EB
:101FF000132E02DD01F16400C1B20846CF1701EBD8
:10200000977701EBA707BAB2072092FBF0F700FB26
:10201000172082B25719601EDFF82CC01CF8000090
:10202000384482B2CF1701EB9777BF10A1EB870737
:102030001FB9032C01DA501E82B2072092FBF0F781
:1020400000FB1720C0B2F0BDE06E000810B5012003
:10205000FFF7AEFF08B1FFF721FF0220FFF7A8FF4F
:1020600020B10220FFF7FEFEFFF718FF0520FFF763
:10207000F9FE00F017F910BD29B1064A1288024393
:10208000044B1A8004E0034A12888243014B1A80F1
:1020900070470000002800401CB5002401214FF0CB
:1020A000C050FFF795FD0120FFF76EFD0420FEF7FD
:1020B000C9FA4AF2A001884241D0FEF7BBFA0120DA
:1020C000FFF744FE05E0601CC4B242F21070FEF758
:1020D00027FD4120FFF71CFE08B9FA2CF3DBFA2C90
:1020E00001DB01201CBD4FF48070FFF74FFE012083
:1020F000FFF746FE00F0D6F800F0DEF801210846B2
:10210000FFF7BAFF00F0CEF8FFF7B4FE47F6FF7016
:1021100000F0B8F800F0C6F8372022211123012280
:10212000CDE900100B2140F2E37000F02BF8FFF72F
:10213000ABFE4AF2A0010420FEF792FA0BE000F099
:10214000BBF801210846FFF797FF01210220FFF7A6
:1021500093FF00F0A7F800F004F8FFF79FFE0020BF
:10216000C0E708B503208DF8000000208DF80100BD
:102170008DF8020001208DF803006846FFF7C2FCCD
:1021800008BD00002DE9F05F06460F4690469946CF
:10219000DDE90AAB002440F2B270864203DB40F670
:1021A0003300864202DD0120BDE8F09F40F2B275A7
:1021B0000AE02846FFF7FCFB10B12048044401E088
:1021C0001F480444681C85B2B542F2DB781EC7B2D2
:1021D000002510E01B48405D40F2A321484304EB7A
:1021E000C0143046FFF7E4FB18B1012D01D11648A9
:1021F0000444681C85B2BD42ECDBA8F1010040F24A
:10220000A321484304EBC014C9EB4910C0EB0920DB
:1022100004EB0014CAEB0A1004EB80045C440121B7
:102220004FF0C050FFF7D4FC0120FFF7ADFC204673
:1022300000F01AF800F036F80020B5E70085E2015A
:102240008033E101EC6E00088051010000B50246C8
:10225000FFF710FE100C03490880091D0A80FFF7E4
:1022600013FE00BD2028004000B50246FFF702FE25
:10227000100C03490880091D0A80FFF705FE00BD08
:102280001828004000B50246FFF7F4FDC2F30340F2
:1022900003490880091D0A80FFF7F6FD00BD000014
:1022A0000828004000BF0348008800F020000028F4
:1022B000F9D0704704280040074800884FF6F771AE
:1022C00008400549088000BF0348008800F0080066
:1022D0000028F9D0704700000428004008B580208D
:1022E000ADF8000048208DF8030069460148FFF76B
:1022F00057F908BD000C014008B58020ADF800007A
:1023000003208DF8020010208DF803006946024872
:10231000FFF746F908BD0000000C01407CB50546FA
:10232000002400200090019000260DB1022600E05C
:1023300000262248406900F0007008B10E207CBDE4
:102340001F49098888B26946FFF740F804460CB176
:102350002046F4E7019800F4802060B31848008814
:102360000004184908603720486040208860002039
:10237000C8604FF480600861084600F0A1F837207B
:10238000FEF796F904460CB12046D8E70D480660E2
:1023900006200C494860402088600020C8604FF447
:1023A00080600861084600F08BF80620FEF780F98F
:1023B00004462046C3E72520C1E700000080014015
:1023C00044000020B01000200149886370470000DD
:1023D000008001400149086070470000A0003042C1
:1023E0000146034A506820F0FF00084350607047E0
:1023F0000080014001490860704700008C053042B0
:1024000000210A4B02685A6242689A621A46D16AEF
:1024100021F0F701D0E902231A4303691A43436903
:102420001A431143014AD162704700000080014005
:1024300000200649086048608860C8604862886279
:10244000C862034888630020C86370470080014069
:10245000FF07C00001460020034A526B0A400AB140
:10246000012000E000207047008001400248006821
:1024700000F00300704700000080014010B500F03C
:1024800053FC10BD00210A4A516847F6FF62914390
:10249000027D83681A4343681A43C3681A4303687A
:1024A0001A4303691A431143014A516070470000FF
:1024B00000800140014800687047000080800140B2
:1024C0000021094B02689A601A46D1686FF30A012D
:1024D000D0E901231A43C3681A4303691A4311431D
:1024E000014AD16070470000008001400549096839
:1024F00021F00301034A116011460968014311608C
:1025000070470000008001400149086070470000EA
:102510008080014070B58CB006460C4615460121FE
:102520000220FFF745FB1348FEF7B2F900211148DE
:10253000FEF7A2F91048019002960395A0080490B6
:102540000020059080200690800007908000089071
:10255000002009904FF400500A9000200B9001A930
:102560000448FEF73BFA00210248FEF785F90CB05B
:1025700070BD0000440402408080014070B50446F4
:10258000002516480078032801D1272070BD134884
:10259000007838B111480078012803D00F4800783E
:1025A000022818D1022C01D32720EFE7E0B2FFF771
:1025B000B5FE05467DB90A48406820F4C050084978
:1025C000486008464068A1B240EAC120044948601A
:1025D0000846406848602846D8E7000040000020D0
:1025E00000800140F0B5014600200022BE4B1B7860
:1025F00081F85630BD4B1B88A1F85430BC4B1B688A
:102600001A0E93090B70C2F383034B7002F003039D
:102610008B70B74B1B68C3F30742CA70B44B1B885F
:10262000C3F307220A71B24B1A784A715B681A0E1B
:102630001301CB80AE4B5B68C3F30742CB8843EA00
:102640001213CB8002F00F030B72A94B9B88C3F3CC
:102650000722D3094B72C2F380138B72C2F340136B
:10266000CB72C2F300130B7300234B739E4B1B788A
:102670003BB19D4B1B78012B03D09B4B1B78032B4D
:102680004FD193071B0D0B61994B1A790B6943EAE4
:1026900082030B61964B9B681A0E0B6943EA9213F7
:1026A0000B61C2F3C2030B7502F007034B75904B2D
:1026B0009B68C3F3074253098B75C2F38203CB7542
:1026C00093075B0F0B768A4B1B89C3F307220B7EA4
:1026D00043EAD2130B760B695B1C0024C1E9123468
:1026E0000B7E9B1C012404FA03F3DC17D1E912567C
:1026F000A5FB037C06FB03C305FB0433C1E912738E
:102700000C7A0123A3400B650024D1E912650B6DFF
:10271000A6FB037C05FB03C306FB0433C1E912736C
:102720002EE0714B1B78022B2AD1714B1A7993063C
:102730009B0A0B616E4B9B681A0E0B6943EA0223DE
:102740000B616B4B9B68C3F307420B6913430B612F
:10275000674B1B89C3F307220B695B1C4FF40074A2
:10276000A3FB04464FF480630025A4FB037C06FB17
:1027700003C304FB0533C1E912734FF400730B6507
:10278000C2F3801301F8193F93065B0E4B70584B50
:102790001A7A4B7843EAD2134B7002F07F038B70A6
:1027A000534BDB681A0ED309CB70C2F341130B7184
:1027B000C2F382034B7193071B0F8B714C4BDB6889
:1027C000C3F307428B7943EA92138B71C2F3401330
:1027D000CB7100230B7202F001034B72444B9B89B7
:1027E000C3F30722D3098B72C2F38013CB72C2F3F7
:1027F00040130B73C2F300134B73C2F381038B734B
:1028000002F00303CB733A4B1A7B53080B7401237A
:102810004B74384B1B681A0ECA741939354B1B6838
:10282000C3F307421402CC85324B1B88C3F3072243
:10283000CB8D1343CB852F4B1A7814060C635B6842
:102840001A0E0B6B43EA02440C632A4B5B68C3F31A
:1028500007420B6B43EA02240C63264B9B88C3F3AD
:1028600007220B6B13430B63224B1A7934235A5400
:10287000204B9B681A0E35235A541E4B9B68C3F39A
:10288000074214068C631B4B1B89C3F307228B6B17
:1028900043EA02448C63174B1A7A8B6B43EA022497
:1028A0008C63144BDB681A0E8B6B13438B63114BD9
:1028B000DB68C3F307423C235B5C43EA12143C230E
:1028C0005C5413071C0DCC870A4B9B89C3F307226A
:1028D000CB8F1343CB87074B1A7B540840235C54A0
:1028E000012441235C54F0BD40000020440000203E
:1028F000DC100020EC1000207CB500250024012114
:102900003020FFF775F9012140F20240FFF750F93E
:102910004FF4F850ADF8000018208DF803000320A4
:102920008DF8020069463048FEF73AFE0420ADF803
:10293000000018208DF8030003208DF8020069467E
:102940002A48FEF72DFE8020ADF8000048208DF8C3
:10295000030003208DF8020069462448FEF720FE9C
:10296000FFF766FD31208DF8040000208DF805008A
:102970008DF8060001208DF8070001A8FFF7C2F8C6
:1029800000F0E4F8044614B900F036F804461CB927
:102990001748FFF727FE044634B91549B1F854101B
:1029A000080400F04BFD04461CB90120FFF7E6FDCA
:1029B00004461CB10F480078032812D10C4890F847
:1029C000560020B10A4890F85600012801D10A2586
:1029D00000E004252846FFF703FD002000F046FD37
:1029E000044620467CBD0000001001400014014058
:1029F000001100204000002038B500240120009084
:102A0000FFF734FD08B9252038BD4A48007804286E
:102A100021D000204849086002204860C02088601A
:102A20000020C8604FF4806008610846FFF748FD49
:102A3000FDF76EFE04460CB12046E5E73F484069CD
:102A40003F4908603D48806948603C48C0698860EB
:102A50003A48006AC8603748007858B1354800786D
:102A6000012807D033480078062803D03148007881
:102A7000022816D100203049086003204860402019
:102A800088600020C8604FF4806008610846FFF746
:102A900017FD69460320FDF781FE04460CB1204670
:102AA000B2E724480078032816D1BDF800000004DE
:102AB0002149086003204860402088600020C860E9
:102AC0004FF4806008610846FFF7FAFCFDF720FE2E
:102AD00004460CB1204697E716480078042827D012
:102AE000BDF8000017490860BDF800000004124955
:102AF000086009204860C02088600020C8604FF44A
:102B0000806008610846FFF7DBFCFDF701FE044624
:102B10000CB1204678E7094840690B49086007482E
:102B2000806948600548C06988600448006AC860D8
:102B3000002069E740000020B01000200080014024
:102B4000EC10002044000020DC1000202DE9F047AC
:102B50000027002400260025A046A146B2206C498B
:102B600008750020086048608860C86008610846F1
:102B7000FFF788FC0320FFF7B9FC0120FFF72AFCD0
:102B800000BF12E000206349086048608860C860A8
:102B90004FF4806008610846FFF792FCFDF770FD76
:102BA000044604B903E0781CC7B24A2FEADB00BF31
:102BB00014B12046BDE8F0874FF4D5705549086040
:102BC00008204860402088600020C8604FF4806082
:102BD00008610846FFF774FCFDF728FE044624B997
:102BE00001204D4908704FF0804900204949086094
:102BF00037204860402088600020C8604FF4806023
:102C000008610846FFF75CFC3720FDF751FD0446DC
:102C1000002C4BD134E000203E490860372048604A
:102C2000402088600020C8604FF48060086108463A
:102C3000FFF746FC3720FDF73BFD04460CB120466C
:102C4000B8E7364849EA0000324908602920486060
:102C5000402088600020C8604FF48060086108460A
:102C6000FFF72EFCFDF77EFD04460CB12046A1E7E0
:102C70002B484669012080EAD67080F001086D1C5F
:102C8000B8F1000F03D14FF6FF708542C3D34FF662
:102C9000FF70854202D31B2420468BE706F080405C
:102CA000061E32D002201C4908702EE01CE01D4890
:102CB0001849086001204860402088600020C860F2
:102CC0004FF4806008610846FFF7FAFBFDF74AFD04
:102CD00004460CB120466DE711484669012080EAA0
:102CE000D67080F001086D1CB8F1000F03D14FF6CB
:102CF000FF708542DBD34FF6FF70854202D31B2461
:102D0000204657E7032004490870204652E7000098
:102D100098100020B010002040000020000010801B
:102D2000008001400080FF8010B54948406B00F4EE
:102D3000807070B347480078012814D100204649BC
:102D400008600C204860402088600020C8604FF474
:102D5000806008610846FFF7B3FB0C20FDF7A8FC74
:102D60003E49087002E000203C4908703848806BFA
:102D700040F48070364988630846C06B4CF23A31A3
:102D800088433349C86301203549087033480078C7
:102D900010BDFFE70220FFF75DFB68B10220FFF7DF
:102DA00013FB2B48C06B4CF23A3188432849C86367
:102DB00002202A490870EBE70820FFF74BFB68B1B7
:102DC0000820FFF701FB2248C06B4CF23A318843E0
:102DD0001F49C863042021490870D9E72020FFF764
:102DE00039FB68B12020FFF7EFFA1948C06B4CF2AD
:102DF0003A3188431649C863062018490870C7E766
:102E00001020FFF727FB68B11020FFF7DDFA10480C
:102E1000C06B4CF23A3188430D49C86305200F4915
:102E20000870B5E74FF40070FFF714FB70B14FF472
:102E30000070FFF7C9FA0648C06B4CF23A3188437C
:102E40000349C863072005490870A1E700209FE7F0
:102E50000080014049000020B01000204A000020FE
:102E60004B0000202DE9F84F8146174698460A9CF2
:102E70004FF0000AD3464D464FF0FF36B9F1000F30
:102E800002D12620BDE8F88F00208249C86282481E
:102E90000078022805D10402780A40EAC8574FEAB0
:102EA000682800207D4988604860401E0860012035
:102EB00048610020C86008610846FFF7A1FA75481C
:102EC000406900F0007008B10E20DBE7002C21DD26
:102ED000B4F5006F1EDC601E2040D8B9204601F01A
:102EE000CCFF00906E48046010206D49486040207F
:102EF00088600020C8604FF4806008610846FFF7D2
:102F0000DFFA1020FDF7D4FB8246BAF1000F03D0A0
:102F10005046B7E72620B5E7009800015F49886072
:102F2000084644604FF0FF300860012048610220ED
:102F3000C860002008610846FFF762FA5848076039
:102F4000112057494860402088600020C8604FF435
:102F5000806008610846FFF7B3FA1120FDF7A8FB6F
:102F60008246BAF1000F01D050468BE74D480078F9
:102F700000285AD1FEF7CAFC18E04FF40040FFF7D2
:102F800069FA78B14FF0000B06E0424880300068E3
:102F900045F82B000BF1010BBBF1080FF5D32035E1
:102FA000414E03E00EB904206CE7761E3948406BB1
:102FB00040F22A6108400028DFD00820FFF74AFAD3
:102FC00020B10820FFF700FA04205BE70220FFF79A
:102FD00041FA20B10220FFF7F7F9022052E7202042
:102FE000FFF738FA20B12020FFF7EEF9062049E775
:102FF0004FF40070FFF72EFA28B14FF40070FFF77E
:10300000E3F907203EE703E0FFF754FA28602D1D9F
:103010004FF40010FFF71EFA0028F5D1FEF778FCF8
:1030200040F2FF50FFF7D0F931E01E480078012848
:103030002DD1002221464846FFF76CFA00201B499B
:1030400008701B4908701B4908701248C06B40F299
:103050002A3108430F49C8630120FFF7CBF900E08C
:10306000761E1548006800F4005038B91148007801
:1030700020B90E48007808B9002EF1D10EB904200D
:1030800000E70A48007810B1084890F800A05046C0
:10309000F8E600000080014040000020C41000203D
:1030A000B010002048000020FFFF7F004A000020F1
:1030B000490000204B000020000402402DE9FE4F93
:1030C00083460C46914600200290002625462C4659
:1030D000700240EAD5566D020BF00300F0B14FF0DC
:1030E000000A18E04FF4007000904FEA4A20471998
:1030F00046EBE0733A461648FFF7B4FE02904FF4F1
:10310000007213495846FDF791F80BF5007B0AF160
:10311000010000F0FF0ACA45E4DB16E0B9F1010F37
:1031200009D14FF400702A46334600905846FFF705
:1031300099FE029009E04FF400702A463346CDE92B
:103140000009584600F006F802900298BDE8FE8F8C
:10315000581100202DE9FF5F17469846DDE90E461D
:103160004FF00009CA464FF0FF35A94900980860A2
:103170000020A849C862A8480078022805D10402A6
:10318000780A40EAC8574FEA68280020A3498860B7
:103190004860401E0860012048610020C860086146
:1031A0000846FFF72DF99B48406900F0007018B100
:1031B0000E2004B0BDE8F09F002C21DDB4F5006FB7
:1031C0001EDC601E2040D8B9204601F056FE834622
:1031D0009348046010209249486040208860002095
:1031E000C8604FF4806008610846FFF769F9102055
:1031F000FDF75EFA8146B9F1000F03D04846D8E7E3
:103200002620D6E7012E70D906FB04F0B0F1007F2E
:1032100001D32620CDE74FEA0B108049886006FBDA
:1032200004F048604FF0FF30086001204861022040
:10323000C860002008610846FFF7E2F87848076098
:10324000122077494860402088600020C8604FF411
:10325000806008610846FFF733F91220FDF728FA6D
:103260008146B9F1000F01D04846A2E76D480078C9
:1032700000287DD1FEF74AFB1EE04FF40040FFF727
:10328000E9F8A8B14FF0000A08E062488030006811
:103290005F49096841F82A000AF1010ABAF1080FEA
:1032A000F3D35B4800682030594908605E4D03E065
:1032B0000DB904207DE76D1E5648406B40F22A315F
:1032C00008400028D9D00820FFF7C4F820B1082012
:1032D000FFF77AF804206CE70220FFF7BBF828B16B
:1032E0000220FFF771F8022063E78EE02020FFF74D
:1032F000B1F820B12020FFF767F8062059E74FF416
:103300000070FFF7A7F828B14FF40070FFF75CF8E2
:1033100007204EE709E0FFF7CDF83D49096808604E
:103320003B480068001D3A4908604FF40010FFF761
:1033300091F80028EFD14FF48070FFF78BF820B39D
:103340003548007838B134480078012803D0324835
:103350000078022819D10020314908600C2048600B
:10336000402088600020C8604FF48060086100E061
:1033700012E00846FFF7A4F80C20FDF799F9814602
:10338000B9F1000F01D0484613E7FEF7C1FA40F249
:10339000FF50FFF719F838E022480078012834D1AF
:1033A00006FB04F100220098FFF7B4F800201F4943
:1033B000087001201E49087000201E490870154839
:1033C000C06B40F22A3108431249C8630846C06AFC
:1033D00040F00800C86200E06D1E1748006800F465
:1033E000005008B9002DF7D10DB90420E1E600BF67
:1033F0001048007818B90D4800780028F8D00B481C
:10340000007810B1094890F800904846D1E60000D5
:103410004C0000200080014040000020C41000202B
:10342000B010002048000020FFFF7F004A0000206D
:10343000490000204B0000200004024010B5044663
:10344000094804600720084948604020886000203F
:10345000C8604FF4806008610846FFF731F8072024
:10346000FDF726F910BD0000B01000200146002035
:10347000012900D011B9024B197000E026207047D5
:10348000480000202DE9FF5F86B017469846149D3E
:103490000026002005900490002481460390824677
:1034A00002900195DDF818B0DDF818B0BBF1000FFF
:1034B00003D126200AB0BDE8F09F0020C449C862AD
:1034C000C44988604860401E0860012048610020AF
:1034D000C86008610846FEF793FFBD48406900F0E8
:1034E000007008B10E20E5E7BB480078022805D13E
:1034F0000502780A40EAC8574FEA6828002D1FDD08
:10350000B5F5006F1CDC681E2840C8B9284601F0DC
:10351000B4FC0590B14805601020B04948604020D7
:1035200088600020C8604FF4806008610846FEF79C
:10353000C7FF1020FDF7BCF806461EB13046B9E7BC
:103540002620B7E7A64800880004A44908600D209B
:103550004860402088600020C8604FF480600861A7
:103560000846FEF7ADFF0D20FDF7A2F806460EB1A6
:1035700030469FE79648406903904FF0FF341BE0C8
:10358000641E974800880004944908600D20486034
:10359000402088600020C8604FF4806008610846C1
:1035A000FEF78EFF0D20FDF783F806460EB130467C
:1035B00080E7874840690390039800F4807008B959
:1035C000002CDDD10CB9292074E78448076018204D
:1035D00082494860402088600020C8604FF48060C5
:1035E00008610846FEF76CFF1820FDF761F80646F3
:1035F0000EB130465EE700207A4908700598000158
:1036000074498860084645604FF0FF30086001202B
:1036100048610020C86008610846FEF7F1FE4FF0DF
:10362000FF347148007800287BD1FEF76FF943E042
:103630004FF48040FEF70EFFC8B30198A0EB0900DD
:10364000202821D20198A0EB090000F0030020B946
:103650000198A0EB0900800804E00198A0EB0900A4
:103660008008401C02904FF0000A09E0DBF80000DF
:10367000FEF74AFF0AF1010A0BF1040B09F10409F4
:1036800002988245F2D30FE04FF0000A05E05BF8A4
:103690002A00FEF739FF0AF1010ABAF1080FF6D342
:1036A0000BF1200B09F120096FF0404404E0FFE723
:1036B0000CB90420FEE6641E4548406B40F21A61D6
:1036C00008400028B4D00820FEF7C4FE20B108202E
:1036D000FEF77AFE0420EDE60220FEF7BBFE20B1E5
:1036E0000220FEF771FE0220E4E61020FEF7B2FE93
:1036F00020B11020FEF768FE0520DBE64FF40070D5
:10370000FEF7A8FE30B14FF40070FEF75DFE072013
:10371000D0E606E0FEF7FCF840F2FF502C49886343
:103720003EE03148007801283AD110222946069817
:10373000FEF7F0FE00202D4908702A4908702C4938
:1037400008702348C06B40F21A3108432049C8630F
:103750000846C06A40F00800C86200E0641E2548C0
:10376000006800F4005008B9002CF7D11CB9FFF72D
:10377000C3F804209EE64FF0FF3400E0641E1C48AE
:10378000007820B91948007808B9002CF6D10CB996
:1037900004208FE61548007810B11448007889E6B7
:1037A00040F2FF50FEF710FE04A8FEF7B3F80646FD
:1037B00003E004A8FEF7AEF806463EB99DF81000F7
:1037C0000728F6D09DF810000628F2D0304671E6A2
:1037D00000800140C410002040000020B0100020F4
:1037E0004400002049000020480000204A0000203A
:1037F0004B000020000402402DE9FE4F81460C469C
:10380000924600200290002625462C46700240EA8F
:10381000D5566D0209F00300F0B14FF0000B18E02F
:103820004FF4007249461948FCF700FD4FF4007050
:1038300000904FEA4B20471946EBE0733A46134895
:10384000FFF720FE029009F500790BF1010000F06E
:10385000FF0BD345E4DB16E0BAF1010F09D14FF4B9
:1038600000702A46334600904846FFF70BFE029050
:1038700009E04FF400702A463346CDE9000A484675
:1038800000F006F802900298BDE8FE8F5811002063
:103890002DE9FF5F84B0DDE9124700260020039088
:1038A0000290002580468146019007FB04FBDDF86D
:1038B00010A0DDF810A0BAF1000F03D1262008B047
:1038C000BDE8F09F0020D849C862D84988604860A8
:1038D000401E0860012048610020C8600861084659
:1038E000FEF78EFDD048406900F0007008B10E2050
:1038F000E5E7CF480078022808D10402DDE9060197
:10390000400A40EAC1504912CDE90601002C1FDDF2
:10391000B4F5006F1CDC601E2040C8B9204601F0E1
:10392000ACFA0390C34804601020C24948604020AC
:1039300088600020C8604FF4806008610846FEF788
:10394000BFFD1020FCF7B4FE06461EB13046B6E7B8
:103950002620B4E7012F6FD907FB04F0B0F1007FF8
:1039600001D32620ABE7B248007838B1B0480078E0
:10397000012803D0AE48007802282DD1AE48008837
:103980000004AC490860372048604020886000206F
:10399000C8604FF4806008610846FEF791FD37204B
:1039A000FCF786FE06460EB1304688E7A148076060
:1039B0001720A0494860402088600020C8604FF46C
:1039C000806008610846FEF77BFD1720FCF770FE5B
:1039D00006460EB1304672E79649069808601920EF
:1039E0004860402088600020C8604FF48060086113
:1039F0000846FEF765FD1920FCF75AFE06460EB193
:103A000030465CE7039800018849886007FB04F0B2
:103A100048604FF0FF300860012048610020C86016
:103A200008610846FEF7ECFC84480078002871D154
:103A3000451EFDF76BFF40E0DEE07B48406B00F485
:103A40008040A8B3ABEB080020281ED2ABEB0800E7
:103A500000F0030018B9ABEB0800800803E0ABEB03
:103A600008008008401C01904FF0000909E0DAF8D6
:103A70000000FEF749FD09F101090AF1040A08F105
:103A8000040801988145F2D30FE04FF0000905E0EA
:103A90005AF82900FEF738FD09F10109B9F1080FBC
:103AA000F6D30AF1200A08F120086FF0404504E03F
:103AB000FFE70DB9042002E76D1E5B48406B40F242
:103AC0001A3108400028B8D00820FEF7C3FC20B106
:103AD0000820FEF779FC0420F1E60220FEF7BAFC8C
:103AE00020B10220FEF770FC0220E8E61020FEF76D
:103AF000B1FC20B11020FEF767FC0520DFE64FF493
:103B00000070FEF7A7FC30B14FF40070FEF75CFCCC
:103B10000720D4E62CE04FF48070FEF79BFC00B346
:103B20004348007838B142480078012803D0404823
:103B30000078022815D100203E4908600C2048601A
:103B4000402088600020C8604FF48060086108460B
:103B5000FEF7B6FC0C20FCF7ABFD06460EB1304676
:103B6000ADE6FDF7D5FE40F2FF50FEF72DFC43E039
:103B70003248007801283FD107FB04F11022049855
:103B8000FEF7C8FC00202E49087001202D4908705E
:103B900000202D4908702448C06B40F21A310843B8
:103BA0002149C8630846C06A40F00800C8624FF067
:103BB000FF3500E06D1E2548006800F4005008B98C
:103BC000002DF7D11DB9FEF797FE042077E64FF0E0
:103BD000FF3500E06D1E1C48007820B918480078B9
:103BE00008B9002DF6D10DB9042068E61448007814
:103BF00010B11348007862E640F2FF50FEF7E4FB94
:103C000002A8FDF787FE064603E002A8FDF782FE44
:103C100006463EB99DF808000728F6D09DF8080032
:103C20000628F2D030464AE600800140C410002049
:103C300040000020B0100020440000204800002078
:103C40004A000020490000204B00002000040240F0
:103C500000B587B001210820FDF7CAFF01218803C4
:103C6000FDF7B6FF4FF46040ADF8180018208DF84E
:103C70001B0003208DF81A0006A91648FDF790FCDA
:103C80000020ADF804004FF48270ADF8060000206B
:103C9000ADF808000220ADF80A000120ADF80C00D4
:103CA0004002ADF80E003820ADF810000020ADF84D
:103CB00012000720ADF8140001A9074800F058F8D9
:103CC0000121054800F03AF8FF2000F007F807B09E
:103CD00000BD0000000C01400038004010B5044653
:103CE00000BF02210A4800F035F80028F9D021462B
:103CF000074800F03BF800BF0121054800F02AF812
:103D00000028F9D0024800F02EF8C0B210BD000023
:103D10000038004010B50446074800884FF6C771C8
:103D20000840054908800846008820430880012192
:103D3000014800F003F810BD0038004021B10288AE
:103D400042F04002028004E002884FF6BF731A403E
:103D5000028070470246002013890B400BB10120FE
:103D600000E00020704701468889704781817047D4
:103D700010B50022028802F441520B884C8823437C
:103D80008C882343CC8823430C8923434C892343C9
:103D90008C892343CC8923431A430280838B4FF2BF
:103DA000FF74234083830B8A038210BD704710B5D4
:103DB00000F002F810BD00000CB50020019000904A
:103DC0003348006840F480303149086000BF304813
:103DD000006800F4003000900198401C01900098A9
:103DE00018B90198B0F5A06FF1D12948006800F426
:103DF000003010B10120009001E0002000900098F8
:103E0000012843D12348006840F010002149086090
:103E10000846006820F0030008600846006840F08B
:103E2000020008601A48406819494860084640681E
:103E300048600846406840F4806048600846406832
:103E400020F47C1048600846406840F4E810486060
:103E50000846006840F08070086000BF0C480068A9
:103E600000F000700028F9D00948406820F00300F5
:103E7000074948600846406840F00200486000BFBB
:103E80000348406800F00C000828F9D10CBD000080
:103E9000001002400020024030B50146B1F1807FA1
:103EA00001D3012030BD21F07F40401E4FF0E022C1
:103EB000506150170F22002807DA13071D0E094B17
:103EC00000F00F04241F1D5503E013071C0E064BC2
:103ED0001C5400BF00204FF0E022906107201061C9
:103EE0000020DFE718ED00E000E400E031B5104805
:103EF00000684FF47A71B0FBF1F52846FFF7CCFF6C
:103F0000002408E000BF4FF0E020006900F480309A
:103F10000028F8D0641C00988442F3D34FF0E020CE
:103F2000006920F001004FF0E021086138BD000079
:103F30000000002031B50F4800680F49B0FBF1F5D3
:103F40002846FFF7A9FF002408E000BF4FF0E0205B
:103F5000006900F480300028F8D0641C0098844286
:103F6000F3D34FF0E020006920F001004FF0E02192
:103F7000086138BD0000002040420F0010B500F07D
:103F800003FC10BD10B5064800680649B0FBF1F40B
:103F90002046FFF781FF08B100BFFEE710BD00001B
:103FA0000000002040420F0010B51348006840F0A8
:103FB00001001149086008464068104908400E4950
:103FC0004860084600680E4908400B4908600846EA
:103FD000006820F4802008600846406820F4FE0055
:103FE00048604FF41F008860FFF7E1FE4FF000606B
:103FF0000449086010BD0000001002400000FFF8F6
:10400000FFFFF6FE08ED00E0F0B50C461546002275
:104010000021068C4FF6FE773E400684028B018C11
:104020004FF60C7632407E1C06EA03162E433243CE
:10403000104EB0420ED0104EB0420BD0B0F1804FB7
:1040400008D00E4EB04205D00D4EB04202D00D4EFB
:10405000B04206D14FF6FD76314044F001063143BF
:1040600005E04FF6F576314044F001063143028316
:104070000184F0BD002C01400034014000040040E8
:1040800000080040000C0040F0B50C461546002228
:1040900000210026078C4FF6EF7C07EA0C07078407
:1040A000028B018C4FF6FF7707EA041640F6FF47B4
:1040B0003A404FF6FF7707EA03373A434FF6FF7768
:1040C00007EA05273A43114FB8420ED0104FB842C5
:1040D0000BD0B0F1804F08D00E4FB84205D00E4F34
:1040E000B84202D00D4FB84206D14FF6DF773940C3
:1040F00046F01007394305E04FF65F77394044F04A
:104100001007394302830184F0BD0000002C0140F8
:10411000003401400004004000080040000C004052
:10412000F0B50C461546002200210026078C4FF6FC
:10413000FF6C07EA0C070784828B018C4FF6FF7730
:1041400007EA04264FF60C773A404FF6FF7707EA66
:1041500003172F433A43114FB8420ED0104FB842C5
:104160000BD0B0F1804F08D00E4FB84205D00E4FA3
:10417000B84202D00D4FB84206D14FF6FF57394032
:1041800046F48077394305E04FF2FF57394044F455
:104190008077394382830184F0BD0000002C014008
:1041A000003401400004004000080040000C0040C2
:1041B000F0B50C461546002200210026078C4EF66D
:1041C000FF7C07EA0C070784828B018C4FF6FF7790
:1041D00007EA043640F6FF473A404FF6FF7707EA12
:1041E00005273A434FF6FF7707EA03373A43114F63
:1041F000B8420ED0104FB8420BD0B0F1804F08D06B
:104200000E4FB84205D00E4FB84202D00D4FB84203
:1042100006D14DF6FF77394046F48057394305E023
:1042200047F6FF57394044F480573943828301846D
:10423000F0BD0000002C01400034014000040040AB
:1042400000080040000C00402DE9F041344D0121F0
:10425000344800F0A0F940B133488088401C32490E
:10426000888001212F4800F084F902212D4800F0B8
:1042700092F9002852D02C48407878B9002129487A
:1042800000F002FA00202849888048800221254851
:1042900000F0F1F90120244948700DE0214800F0B8
:1042A00077F92149488000211E4800F0E4F90020F8
:1042B0001D4948700120087002211A4800F059F980
:1042C00019480078012829D117484088401C164910
:1042D000898800EB014414484288818813A000F0CB
:1042E000AFFBB4FBF5F005FB1046B4FBF5F7324627
:1042F000394618A000F0A4FBB4FBF5F0C6B2314675
:104300000020FCF744F90020FCF715F90646314679
:1043100018A000F095FB002003490870BDE8F0816B
:1043200040420F00000C00403400002043617074D4
:104330007572655F506572696F643A2564204361E8
:1043400070747572655F43637256616C75653A256A
:10435000640D0A000D0AB2E2B5C3B8DFB5E7C6BD09
:10436000C2F6BFEDCAB1BCE4A3BA25642E25642011
:10437000730D0A00B6C1C8A1B5C4CAFDBEDDCAC767
:10438000A3BA25640D0A000000B589B001210420FC
:10439000FDF72EFC0120ADF8200028208DF8230029
:1043A00008A92648FDF7FCF84FF4E060FDF7E2FBB2
:1043B00032208DF81C0000208DF81D0003208DF8A0
:1043C0001E0001208DF81F0007A8FDF79BFB0121AF
:1043D0000820FDF7FDFB4FF6FF70ADF814004720F5
:1043E000ADF810000020ADF81600ADF812008DF801
:1043F000180004A9124800F075F90020ADF8040077
:10440000ADF806000120ADF808000020ADF80A0064
:10441000ADF80C0001A90A4800F0CEF803210848C5
:1044200000F0A4F801220321054800F01BF9012146
:10443000034800F0A1F809B000BD000000080140E9
:10444000000C004010B501210B4800F0A4F840B169
:104450000A480068401C094908600121064800F02C
:1044600088F806480068B0F57A7F02D10020034939
:1044700008600248006810BD001000402C000020B9
:104480001FB536208DF80C0000208DF80D0003209C
:104490008DF80E0001208DF80F0003A8FDF732FB08
:1044A00040F2E730ADF804004720ADF8000069465F
:1044B000084800F017F90121064800F057F80122DA
:1044C0001146044800F0CEF80121024800F054F8EB
:1044D0001FBD00000010004010B501210B4800F086
:1044E0005AF840B10A480068401C09490860012197
:1044F000064800F03EF806480068B0F57A7F02D121
:104500000020034908600248006810BD0014004004
:10451000300000201FB537208DF80C0000208DF8EA
:104520000D0004208DF80E0001208DF80F0003A867
:10453000FDF7E8FA40F2E730ADF804004720ADF8A7
:1045400000006946084800F0CDF80121064800F057
:104550000DF801221146044800F084F801210248B8
:1045600000F00AF81FBD000000140040CA43028298
:104570007047CA430282704721B1028842F00102AB
:10458000028004E002884FF6FE731A4002807047F2
:104590000146888E704730B5024600200023002473
:1045A000158A05EA0103958905EA010413B10CB1E6
:1045B000012000E0002030BD70B505460C462448BF
:1045C00085420ED0234885420BD0B5F1804F08D0EC
:1045D0002148854205D02148854202D020488542A5
:1045E00000D100E000BF208850B92389A2886188EB
:1045F0002846FFF709FDE188284600F047F825E046
:10460000208804280AD12389A28861882846FFF7D8
:104610003BFDE188284600F042F817E02088082892
:104620000AD12389A28861882846FFF779FDE188AD
:10463000284600F041F809E02389A28861882846CD
:10464000FFF7B6FDE188284600F03FF870BD000096
:10465000002C0140003401400004004000080040EC
:10466000000C00401AB183890B43838102E08389E7
:104670008B43838170470A460021018C4FF6FD73FE
:10468000194011430184704781847047028B4FF6B3
:10469000F3731A400283028B0A4302837047028B32
:1046A0004FF2FF331A400283028B4FF6FF7303EA87
:1046B00001231A4302837047828B4FF6F3731A402B
:1046C0008283828B0A4382837047828B4FF2FF334F
:1046D0001A408283828B4FF6FF7303EA01231A4349
:1046E00082837047002202881D4B98420ED01D4BDA
:1046F00098420BD0B0F1804F08D01B4B984205D0A8
:104700001A4B984202D01A4B984204D14FF68F733D
:104710001A404B881A43174B984207D0164B9842C1
:1047200004D04FF6FF431A40CB881A4302808B888F
:1047300083850B8803850A4B98420BD0094B98421E
:1047400008D00E4B984205D00D4B984202D00D4B2D
:10475000984201D10B7A03860123838270470000BF
:10476000002C0140003401400004004000080040DB
:10477000000C0040001000400014004000400140C8
:1047800000440140004801400448006820B103484B
:104790000068401E014908607047000028000020A2
:1047A00010B540F22551064800F06DF838B10448C4
:1047B00000F024F9C4B22146014800F024F910BDEC
:1047C0000038014021B1828942F40052828104E024
:1047D00082894DF6FF731A408281704700B585B01B
:1047E00001210420FDF704FA01218803FDF700FAF6
:1047F0004FF40070ADF8100018208DF8130003205E
:104800008DF8120004A91748FCF7CAFE4FF4806027
:10481000ADF8100004208DF8130004A91148FCF72E
:10482000BFFE4FF4E13000900020ADF80400ADF879
:104830000600ADF80800ADF80C000C20ADF80A0039
:104840006946094800F06EF8FDF749F9012240F287
:104850002551054800F041F801210348FFF7B2FF58
:1048600005B000BD000801400038014002460020AC
:10487000B1F5007F00D100BF13880B400BB10120C0
:1048800000E00020704770B5024600240023002598
:10489000002040F66A16B14200D100BFC1F34215B4
:1048A00001F01F03012606FA03F3012D02D19689B8
:1048B000334006E0022D02D1168A334001E0968A89
:1048C00033400C12012606FA04F41688344013B162
:1048D0000CB1012000E0002070BDF0B503460024BB
:1048E00000260025002040F66A17B94200D100BF1B
:1048F0001846C1F3421401F01F06012707FA06F516
:10490000012C01D10C3004E0022C01D1103000E068
:1049100014301AB107682F43076002E00768AF43FD
:104920000760F0BD2DE9F04786B005460E4600242D
:10493000A24600BFA1460027B08900B100BF2F46A4
:104940002C8A4CF6FF700440F08804432C82AC891A
:104950004EF6F3100440B08831890843718908434A
:104960000443AC81AC8A4FF6FF400440B089044355
:10497000AC8201A8FDF762F91F48874202D1DDF839
:1049800010A001E0DDF80CA0A88900F4004040B1BF
:104990000AEBCA0000EB0A1031684900B0FBF1F8DD
:1049A00007E00AEBCA0000EB0A1031688900B0FB8F
:1049B000F1F86420B8FBF0F004012009642101FB48
:1049C0001089A88900F4004040B1322000EBC900F2
:1049D000B0FBF1F000F00700044308E0322000EBE8
:1049E00009106421B0FBF1F000F00F0004432C81AA
:1049F00006B0BDE8F0870000003801400146888815
:104A0000C0F308007047C1F308028280704700BFFE
:104A1000FEE700000020014908607047082C0040B4
:104A200010B57F2000F004F8FFF7F4FF10BD000080
:104A300000F07F01014A116070470000002C004027
:104A40000FB4054B10B503A9044A029800F018F8FA
:104A500010BC5DF814FB00001D65000884000020F8
:104A600002E008C8121F08C1002AFAD17047704737
:104A7000002001E001C1121F002AFBD17047000095
:104A80002DE9FF4F8DB09B460F460446002606E0F9
:104A900025280BD05A460F999047641C761C207825
:104AA0000028F5D111B03046BDE8F08F0025A846AA
:104AB0000122984900E0054314F8013F203B02FA27
:104AC00003F00842F7D120782E2817D114F8010FEF
:104AD00045F004052A280ED06FF02F022078A0F1AF
:104AE000300109290AD808EB880102EB410100EBEB
:104AF0000108641CF2E757F8048B641C20786C28CA
:104B00000DD004DC4C2812D06A2811D104E074289E
:104B10000DD07A280CD10AE045F4001507E0617841
:104B200045F48015814202D1641C05F58015641C92
:104B30002278692A45D008DC002AB3D0582A69D0E7
:104B4000632A10D0642A08D13BE0702A67D0732A08
:104B500013D0752A5CD0782A5CD010465A460F993B
:104B60009047761CD3E017F8040B8DF80000002066
:104B70008DF80100E946012003E057F8049B4FF04F
:104B8000FF3069074FF0000501D40AE06D1C454570
:104B90000DDA8542FADB19F805100029F6D106E096
:104BA0006D1C8542FCDB19F805100029F8D12E4454
:104BB00004E019F8010B5A460F9990476D1EF8D280
:104BC000A5E00A200021CDE90801C5F30250022822
:104BD0000DD001CFC117031E71F100030DDA4FF0A4
:104BE000000CD0EB0C006CEB01012D2308E0FF1D45
:104BF00027F00707F7E80201EDE72B0504D52B2383
:104C00008DF8283001233BE0EB0739D02023F7E76C
:104C10000A2000E010200021CDE9080107E0102063
:104C2000002145F00405CDE908014FF00808C5F35F
:104C3000025002280FD001CF00214FF0000A2B07AD
:104C40001FD5702A0DD0DDE908C38CF0100C5CEA8A
:104C5000030C0CD015E0FF1D27F00707F7E8020151
:104C6000EBE740228DF828204FF0010A0BE050EAD4
:104C7000010306D030238DF828308DF82920022337
:104C80009A46582A04D024A20DF120090B9209E07B
:104C900026A2F9E7DDE90823FBF766FA0B9B9B5C8C
:104CA00009F8013D50EA0102F4D1ADEB09002030D2
:104CB0000890680701D44FF001080899884502DD83
:104CC000A8EB010000E000208046002506E00AA8CD
:104CD0005A46405D0F9990476D1C761C5545F6DB92
:104CE00004E030205A460F999047761CB8F1000135
:104CF000A8F10108F5DC05E019F8010B5A460F99F7
:104D00009047761C0899481E08900029F4DC641C22
:104D1000C5E600000928010030313233343536371A
:104D200038396162636465660000000030313233F7
:104D30003435363738394142434445460000000097
:104D40002DE9F04704460D4690469946AD1EE06AAF
:104D500000EB153AC5F3C80605F0070101208840AD
:104D6000C7B200BF51460AF1010A204601F054FEC5
:104D700010B10120BDE8F08700BF00BF04F134008E
:104D8000805D384008B1012000E00020484501D195
:104D90000220EFE704F13400805D784004F1340133
:104DA00088550120E070A8F10100B0F1000800D1A1
:104DB000E0E77806000E071EE0D10127701C0646CA
:104DC000B0F5007FD9D3CDE770B504460D4600207D
:104DD000E070401E20632946204601F01DFE08B108
:104DE000042070BD04F2322001F0CBFC4AF65521BC
:104DF000884201D00320F4E704F16A0001F084FC4A
:104E000020F07F400D49884201D10020E9E704F1FC
:104E1000860001F079FC20F07F400849884201D1EA
:104E20000020DEE7082206A104F1370001F0CCFDE6
:104E300008B90120D5E70220D3E70000464154001D
:104E4000455846415420202000000000024600E062
:104E5000521C107810B110788842F9D11078704740
:104E60000246891E9069801E884201D80020704742
:104E70005389D06A01FB0300F9E70146002002E0F4
:104E80004910421CD0B20129FAD170472DE9F047F0
:104E900007468A463C68BAF1000F06D1266916B16A
:104EA000A069B04217D8012615E05146384601F0F6
:104EB00047FB8046B8F1020F02D20120BDE8F0871F
:104EC00008F1010008B94046F8E7A069404501D95A
:104ED0004046F3E75646207804282ED10122314679
:104EE000204601F09DF805460DB1681C08B928461A
:104EF000E4E701231A4629462046FFF721FF8146B1
:104F0000B9F1020F01D10120D8E7B9F1010F02D1A7
:104F10004FF0FF30D2E7BAF1000F02D10220F87152
:104F20002CE0F879022829D1701C854226D0B86877
:104F3000301AB8610320F87120E0354600BF6D1CBF
:104F4000A069A84204D80225B54201D90020B5E7DE
:104F50002946384601F0F4FA8046B8F1000F00D136
:104F60000BE0B8F1010F02D008F1010008B940468A
:104F7000A4E7B542E3D10020A0E700BF20780428D1
:104F800005D1F879022802D14FF0000912E04FF064
:104F9000FF322946204601F051FE8146B9F1000F4B
:104FA00008D1BAF1000F05D02A465146204601F03B
:104FB00045FE8146B9F1000F0DD12561D4E90510F8
:104FC000801E814202D26069401E6061207940F0FB
:104FD0000100207107E0B9F1010F02D14FF0FF305D
:104FE00000E001200546284668E72DE9F041044627
:104FF0000E46D4F800800021204600F046F9054610
:105000005DBB002700BF4046216B01F005FD054652
:1050100005B121E098F80000042805D1606B007804
:10502000012121EAD01009E0606B0078E52802D068
:10503000606B007808B9012000E0002020B1781CE6
:105040000746B04201D107E000270121204600F0C9
:105050000AF80546002DD6D000BF042D00D1072543
:105060002846BDE8F0812DE9F047044689462568C9
:10507000A06A00F12007206B40B12878042801D1F4
:10508000800601E04FF40010B84202D80420BDE8C9
:10509000F087C7F3080000286CD1206B401C206308
:1050A000E06A38B92889B0EB571F63D80020206325
:1050B0000420ECE76889401E00EA5720002859D1F7
:1050C0002046E16A01F03CFA0646012E01D8022092
:1050D000DDE7701C08B90120D9E7A869B04243D8C0
:1050E000B9F1000F03D1002020630420CFE7204650
:1050F000E16AFFF7CBFE06460EB90720C7E7012E8F
:1051000001D10220C3E7701C08B90120BFE7E07994
:1051100040F00400E071284601F09CFE08B1012037
:10512000B5E74FF40072002105F1340001F06BFC8B
:105130004FF0000831462846FFF792FE28630CE046
:105140000120E870284601F085FE08B101209EE7A5
:1051500008F10108286B401C286368894045EFD896
:10516000286BA0EB08002863E66231462846FFF76B
:1051700077FE2063A762C7F3080105F134000844F5
:105180006063002083E72DE9F05F04460F460426A4
:10519000D4F800804FF0FF0AD3466CE04046216B04
:1051A00001F03AFC064606B168E0606B05780DB97F
:1051B000042663E098F80000042813D117B1832D6A
:1051C00052D15BE0852D4FD1A06AE063204601F00B
:1051D000DEFA06462EB9D8F80C00007900F03F0040
:1051E000A0714BE0606BC07A00F03F0984F8069034
:1051F000E52D0AD02E2D08D029F02000082801D155
:10520000012000E00020B84202D04FF0FF0A2BE05E
:10521000B9F10F0F1CD105F0400038B1606B90F868
:105220000DB025F04005AA46A06AE06355450BD1B4
:10523000606B407B584507D1616B206C01F0BAFC74
:1052400010B1AAF1010000E0FF2000F0FF0A0BE01E
:10525000BAF1000F04D1606B01F0A4FD584502D0F3
:105260004FF0FF30E06309E000212046FFF7FBFE2E
:10527000064606B102E0206B00288FD100BF0EB1B8
:10528000002020633046BDE8F09F2DE9F041044640
:105290000D4626683078042801D1800601E04FF4DD
:1052A0000010A84202D905F01F0010B10220BDE88D
:1052B000F081A562A7682FB93078032802DBB76AAE
:1052C0000020E07147B93089B0EB551F01D80220AA
:1052D000EDE7B06A20631CE070894FEA402811E0D6
:1052E0003946204601F02CF90746781C08B9012000
:1052F000DDE7022F02D3B069B84201D80220D6E719
:10530000A5EB08054545EBD239463046FFF7A8FD29
:105310002063E762206B08B90220C8E7206B00EB2E
:1053200055202063C5F3080106F13400084460638A
:105330000020BCE770B50446002514B1012C0BD148
:1053400003E0FDF7D9FA054608E0FBF729FC4FF426
:10535000C0400549088001E0012500BF00BF0DB134
:10536000012070BD0020FCE76E0000202DE9F04711
:1053700006468946154646BBB9F1000F09D0B9F17A
:10538000010F13D0B9F1020F05D0B9F1030F19D1F4
:1053900006E0002418E04FF400702860002413E0B9
:1053A0001D48B0F85000288000240DE01A484FF442
:1053B00000720023D0E912713846FAF706FF286020
:1053C000002401E0042400BF22E0012E1FD1B9F126
:1053D000000F09D0B9F1010F11D0B9F1020F05D0BA
:1053E000B9F1030F10D106E000240FE04FF4007074
:1053F000288000240AE008202880002406E00748CE
:1054000000882860002401E0042400BF00E001249B
:105410002046BDE8F0870000001100206E0000204B
:105420002DE9F04107460E4615461C464FF0000890
:1054300014B90420BDE8F08117B1012F22D112E088
:10544000E2B229463046FDF739FE804607E0FDF717
:1054500053FAE2B229463046FDF730FE8046B8F1F5
:10546000000FF4D111E009E069024FF400723046F8
:10547000FBF7E2FB6D1C06F50076641E002CF3D1F1
:10548000A04602E04FF0010800BF00BFB8F1000FD6
:1054900001D10020CEE70120CCE701460020704773
:1054A0002DE9F04107460E4615461C464FF0000810
:1054B00014B90420BDE8F08117B1012F22D112E008
:1054C000E2B229463046FEF797F9804607E0FDF73D
:1054D00013FAE2B229463046FEF78EF98046B8F15B
:1054E000000FF4D111E009E069024FF40072304678
:1054F000FBF716FC6D1C06F50076641E002CF3D13C
:10550000A04602E04FF0010800BF00BFB8F1000F55
:1055100001D10020CEE70120CCE72DE9F74F8EB076
:105520008A4600220CA90EA800F0CCFD8346BBF1F0
:10553000000F0CD10C99109801600C98D0E905105F
:10554000801E814204D80C984069CAF8000093E09C
:1055500000260C98007801281BD102240C98029098
:1055600000BF214602A800F0EBFF0746781C10B9E7
:105570004FF0010B0CE0012F02D14FF0020B07E0BE
:1055800007B9761C601C04460C9989698842E8D3E7
:1055900068E00C980078042830D10C988069841E4B
:1055A0000C98D0F82C80002500BF4DB9414608F179
:1055B00001080C9801F030FAB0F1000B00D01BE0AC
:1055C000082000900C983430405D01900BE0019869
:1055D00000F0010000B9761C01984010019000987D
:1055E000401E0090641E009808B1002CEFD1681C8A
:1055F000C0F30805002CD8D100BF33E00C988469B3
:105600000C98D0F824800025A94600BF7DB94146FA
:1056100008F101080C9801F0FFF98346BBF1000F77
:1056200000D01EE00C9800F134094FF400750C987E
:105630000078022808D1484601F0A3F800B9761C8A
:1056400009F10209AD1E09E0484601F05DF820F0BD
:10565000704000B9761C09F104092D1F601E041E5C
:10566000D4D100BFCAF800600C9846610C9800794C
:1056700040F001000C990871584611B0BDE8F08F58
:105680002DE9F74F90B016461198012803DD13203D
:1056900013B0BDE8F08F10A801F011F80F900F982B
:1056A000002801DA0B20F3E7F9490F9851F820B0F0
:1056B000BBF1000F01D10C20EAE700208BF80000BD
:1056C0000F98C0B20C9000200B900C98FFF732FEA0
:1056D0000190019800F0010008B10320D8E701987B
:1056E00000F0040008B10A20D2E700BF04AA01219B
:1056F0000C98FFF73BFE10B90498802801D20120D6
:10570000C6E7119808B1002000E03F2082460498C7
:10571000A0EB0A000490701E304000B100269EB934
:105720004FF4FA610498B0FBF1F00A904FF00008D2
:1057300001E008F10108D74830F818100A988142B2
:10574000F7D8D54830F81860B6F5007F00D3760A50
:1057500006B90126802E00D980260498B0FBF6F702
:10576000012540F6F670874200D302254FF6F67009
:10577000874200D30325032D0BD1082000EB8700BF
:1057800000F2FF104FEA50292020039000200290E1
:1057900012E0012D05D107EB4700401C4008C01C5A
:1057A00001E07800001D814609F2FF104FEA502900
:1057B00001200390202002900398504407900798FE
:1057C000484406900299069808440590059830448C
:1057D000A0EB0A000499884201D90E2058E709AAD3
:1057E00003210C98FFF7C2FD28B9099818B1099850
:1057F000B0F5004F01D90120099009990598084496
:10580000401E491E8843099009990598081A099075
:10581000032D08D109990398084403900999079822
:105820000844079001E009988144DDE90301081A62
:10583000A0EB09010298081AB0FBF6F7022D03D17C
:1058400040F6F670874205D3032D05D14FF6F6706A
:10585000874201D20E201BE7032D02D10C200D90B0
:1058600010E0012D06D10498B0F5803F02D201204E
:105870000D9007E00498B0F5803F01D2042000E0CD
:1058800006200D9000BF119810B1F0200E903CE062
:105890004FF4007200210BF1340001F0B4F80BF565
:1058A000F97401206070A0700020E0700D982071E4
:1058B000FE206071049850443F21B0FBF1F0FF21BD
:1058C000B0FBF1F009903F21099841EA9000A071E6
:1058D0000998E07104F1080001F052FA04F10C009B
:1058E000049901F04DFA4AF655210BF2322001F0ED
:1058F00053FA012300220BF134010C98FFF7D0FD7D
:1059000008B10120C4E6F8200E900BF134044FF4E6
:1059100000720021204601F076F80B225FA120469C
:1059200001F064F84FF40078414604F10B0001F0F7
:1059300033FA6673039881B204F10E0001F02CFA79
:1059400001202074032D01D1002001E04FF40070EC
:1059500080461FFA88F104F1110001F01DFA049845
:10596000B0F5803F06D2049881B204F1130001F033
:1059700013FA04E004F12000049901F001FA0E98F2
:1059800060753F2104F1180001F006FAFF2104F1CF
:105990001A0001F001FA514604F11C0001F0F0F97F
:1059A00000F08BFE0990032D25D104F143000999E5
:1059B00001F0E6F9494604F1240001F0E1F9022181
:1059C00004F12C0001F0DCF9012104F1300001F0B8
:1059D000E3F9062104F1320001F0DEF9802084F8B9
:1059E0004000292084F8420013222FA104F147002F
:1059F00000F0FCFF16E004F12700099901F0C0F95E
:105A00001FFA89F104F1160001F0C6F9802084F82C
:105A10002400292084F82600132228A104F12B0059
:105A200000F0E4FF4AF6552104F5FF7001F0B4F9E7
:105A30000123524621460C98FFF732FD08B10120A0
:105A400026E6032D06D101230AF1060221460C9811
:105A5000FFF726FD079808904FF0000876E04FF416
:105A600000720021204600F0CEFF0E980990032D11
:105A700030D0012D01D1164801E06FF0FF000999E7
:105A8000084309902046099901F07AF935E00000B1
:105A900060BD00202E6F0008446F0008EBFE904DA3
:105AA00053444F53352E30004E4F204E414D45202C
:105AB0002020204641543332202020004E4F204EDB
:105AC000414D452020202046415420202020200008
:105AD00000FFFF00099860F0FF0009902046099937
